:020000040800F2
:100000005026002081060008E1060008E1060008ED
:10001000E1060008E1060008E10600080000000013
:10002000000000000000000000000000E1060008E1
:10003000E106000800000000E1060008F90D0008D4
:10004000E1060008E1060008E1060008E1060008F4
:10005000E1060008E1060008E1060008E1060008E4
:10006000E1060008E1060008E1060008E1060008D4
:10007000E1060008E1060008E1060008E1060008C4
:10008000E1060008E1060008E1060008E1060008B4
:10009000E1060008E1060008E1060008E1060008A4
:1000A000E1060008E1060008E1060008E106000894
:1000B000E1060008E1060008E1060008E106000884
:1000C000E1060008E1060008E1060008E106000874
:1000D000E1060008AD270008E1060008E106000877
:1000E000E1060008E1060008E10600080000000043
:1000F0000000000000000000000000000000000000
:0C01000000000000000000005FF808F1A3
:0402000001000000F9
:1002040010B5054C237833B9044B13B10448AFF34C
:1002140000800123237010BD90080020000000001E
:100224000C01000808B5034B1BB103490348AFF3A5
:10023400008008BD00000000940800200C010008A4
:10024400F0B4860743D0541E002A3ED0CAB20346F7
:1002540002E014F1FF3438D303F8012B9D07F8D1E1
:10026400032C2BD9CDB245EA05250F2C45EA0545CB
:1002740016D9A4F110073F0903F1200606EB07166F
:1002840003F1100242E9045542E902551032B24228
:10029400F8D104F00F040137032C03EB07130DD935
:1002A4001E462246043A032A46F8045BFAD8221F63
:1002B40022F003020432134404F003042CB1C9B243
:1002C4001C4403F8011B9C42FBD1F0BC704714464C
:1002D4000346C5E7024B13B1024800F005B8704766
:1002E40000000000F9020008002301461A461846DF
:1002F40000F022B838B50A4C0A4D641BA4100AD089
:1003040004F18043013B05EB8305013C55F80439B6
:100314009847002CF9D1BDE8384003F0F7BE00BF80
:10032400900800208C080020704700BF704700BF71
:10033400704700BF704700BF2DE9F8432B4D0646B8
:10034400286898460F469146FFF7F2FF284B1C6831
:10035400D4F84831002B3DD05A681F2A0DDC02F135
:10036400010C16BB0232C3F804C0286843F822709B
:10037400FFF7E0FF0020BDE8F8831E4B7BB34FF48A
:10038400C870AFF30080034648B30020D4F8481186
:100394004FF0010CC3E900100246C4F84831C3F819
:1003A4008801C3F88C01002EDCD0012103EB820408
:1003B400C4F88890D3F8880191400843022EC3F80A
:1003C4008801C4F80881CDD1D3F88C010143C3F866
:1003D4008C11C7E704F5A673C4F84831BCE7286854
:1003E400FFF7A8FF4FF0FF30C5E700BF300400203F
:1003F4001C4100080000000080B582B000AF7860A6
:1004040000BF4FF40031786802F040F90346002B36
:10041400F7D10121786802F0A0F800BF0549786897
:1004240002F005F90346002BF8D000BF0837BD469B
:1004340080BD00BF0100030080B582B000AF7860CA
:100444000121786802F0A8F800BF0837BD4680BDD6
:1004540080B582B000AF78600B46FB701346BB706A
:10046400BA78FB781946786802F0C4F8BB78002B98
:1004740008D100BF0B49786802F0D9F80346002B75
:10048400F8D00AE0BB78012B07D100BF0649786891
:1004940002F0CDF80346002BF8D000BF0837BD4664
:1004A40080BD00BF820007000200030080B582B057
:1004B40000AF78600B46FB70FB781946786802F051
:1004C4008AF800BF0549786802F0B1F80346002BAA
:1004D400F8D000BF0837BD4680BD00BF84000700C8
:1004E40080B500AF154B1B68144A43F00103136039
:1004F400124B5A681149124B13404B600F4B1B6847
:100504000E4A23F0847323F4803313600B4B1B686F
:100514000A4A23F480231360084B5B68074A23F4D8
:10052400FE035360054B4FF41F029A6000F00CF871
:10053400044B4FF000629A6000BF80BD001002407F
:100544000000FFF800ED00E080B500AF00F002F815
:1005540000BF80BD80B483B000AF00237B60002364
:100564003B603A4B1B68394A43F480331360374B82
:100574001B6803F400333B607B6801337B603B689A
:10058400002B03D17B68B3F5A06FF0D12F4B1B6810
:1005940003F40033002B02D001233B6001E000236D
:1005A4003B603B68012B4BD1294B1B68284A43F025
:1005B40010031360264B1B68254A23F003031360C2
:1005C400234B1B68224A43F0020313601F4B1F4A4C
:1005D4005B6853601D4B1D4A5B6853601B4B5B6833
:1005E4001A4A43F480635360184B5B68174A23F438
:1005F4007C135360154B5B68144A43F4E81353604F
:10060400124B1B68114A43F08073136000BF0F4BF9
:100614001B6803F00073002BF9D00C4B5B680B4A8A
:1006240023F003035360094B5B68084A43F0020359
:10063400536000BF054B5B6803F00C03082BF9D132
:1006440000BF0C37BD4680BC704700BF001002409D
:100654000020024080B582B000AF0123BB80142388
:10066400FB710323BB713B1D1946034800F0F2F9EB
:1006740000BF0837BD4680BD0008014080B582B088
:1006840000AF114B7B60114B3B6007E07A68131D90
:100694007B603B68191D396012681A603B680C4A1C
:1006A4009342F3D30B480C494FF000028842B8BF81
:1006B40040F8042BFADBFFF713FF00F0A3FC00BFA4
:1006C4000837BD4680BD00BFEE6A00080000002068
:1006D40090080020900800205012002080B400AF41
:1006E400FEE7000080B500AF4FF4806200210448AB
:1006F400FFF7A6FD034B00221A7000BF80BD00BFA8
:10070400240D0020200D002080B485B000AFF860D7
:10071400B9601346FB71204B1B781F2B36D8FB683E
:10072400002B31D01C4B1B781C4A5B0113441C3337
:10073400FA681A60184B1B78184A5B011344BA68AC
:100744001A60154B1B78154A5B01134403F1180218
:1007540013786FF3000313700F4B1B781846FB7963
:10076400002B0CBF01230023D9B20C4A43011A44C5
:10077400137961F300031371074B1B780133DAB269
:10078400054B1A70002302E0FE2300E0FF23184605
:100794001437BD4680BC7047200D0020240D002076
:1007A40080B485B000AFF860B9601346FB71294B83
:1007B4001B781F2B48D8FB68002B43D0254B1B7894
:1007C400254A5B0113441C33FA681A60214B1B78D9
:1007D400214A5B0113440C33BA681A601D4B1B7821
:1007E40018461E4B1A681C4943010B4410331A6007
:1007F400184B1B78184A5B01134403F11802137851
:1008040043F001031370134B1B78134A5B01134429
:1008140000221A600F4B1B781846FB79002B0CBF83
:1008240001230023D9B20C4A43011A44137961F31A
:1008340000031371074B1B780133DAB2054B1A70AE
:10084400002302E0FE2300E0FF2318461437BD46D0
:1008540080BC7047200D0020240D0020AC0800202F
:1008640080B483B000AF0023FB7115E0FA79FB7903
:100874000E4952010A44083212680C495B010B44C8
:1008840014331A60FB79094A5B01134408330022CC
:100894001A60FB790133FB71054B1B78FA799A4294
:1008A400E4D300BF0C37BD4680BC7047240D002044
:1008B400200D002080B582B000AF164B1B6816488F
:1008C4009847144B1B68154898470023FB710EE0AA
:1008D400104B1B68F879FA79114952010A44143211
:1008E400126801460F489847FB790133FB710E4BA0
:1008F4001B78FA799A42EBD3064B1B680B4898474E
:10090400044B1B68FA7911460948984700BF083719
:10091400BD4680BD180D0020204100082841000874
:10092400240D002034410008200D0020444100081B
:100934004C41000890B583B002AF0E4B1B680E4AC1
:10094400128811460D4898470A4B1C680C4B1B88AB
:1009540019460C4B1B8818460B4B1A680B4B1B682B
:100964000093134602460A48A04700BF0437BD4619
:1009740090BD00BF180D0020E0F7FF1F684100087C
:10098400E8F7FF1FEAF7FF1FECF7FF1FF0F7FF1F61
:100994008041000880B500AF044B1B68044A12680C
:1009A40011460448984700BF80BD00BF180D0020C1
:1009B40034040020A0410008B0B584B004AF194B42
:1009C4001B6819489847174B1B6818489847154BDC
:1009D4001B6817489847134B1C68164B1B7819461D
:1009E400154B1B781846154B1B781D46144B1B786A
:1009F4001A46144B0293144B019300922B46024661
:100A04001248A047074B1B6811489847FFF792FF0D
:100A1400FFF7C0FF034B1B680448984700BFBD465F
:100A2400B0BD00BF180D0020B8410008C041000847
:100A3400C841000800020008010200080202000880
:100A440003020008004200080C420008DC410008D0
:100A54001842000880B489B000AF78603960002380
:100A6400FB6100233B610023BB610023FB60002387
:100A74007B610023BB603B68DB7803F00F03FB6101
:100A84003B68DB7803F01003002B05D03B689B78B0
:100A94001A46FB691343FB613B681B88DBB2002BDE
:100AA40044D07B681B687B610023BB6138E0012272
:100AB400BB6902FA03F3FB603B681B881A46FB68B8
:100AC40013403B613A69FB689A4226D1BB699B009B
:100AD400FB600F22FB6802FA03F3BB60BB68DB43D5
:100AE4007A6913407B61FA69FB6802FA03F37A6955
:100AF40013437B613B68DB78282B05D10122BB695A
:100B04009A407B685A6108E03B68DB78482B04D143
:100B14000122BB699A407B681A61BB690133BB61DE
:100B2400BB69072BC3D97B687A691A603B681B8849
:100B3400FF2B46D97B685B687B610023BB613AE08D
:100B4400BB690833012202FA03F3FB603B681B888C
:100B54001A46FB6813403B613A69FB689A4227D105
:100B6400BB699B00FB600F22FB6802FA03F3BB60C6
:100B7400BB68DB437A6913407B61FA69FB6802FA5C
:100B840003F37A6913437B613B68DB78282B05D137
:100B9400BB69083301229A407B685A613B68DB7861
:100BA400482B05D1BB69083301229A407B681A613E
:100BB400BB690133BB61BB69072BC1D97B687A6907
:100BC4005A6000BF2437BD4680BC704780B485B0EE
:100BD40000AF78600B467B800023FB737B689A68C8
:100BE4007B881340002B02D00123FB7301E0002318
:100BF400FB73FB7B18461437BD4680BC704780B43A
:100C040083B000AF78600B467B807A887B681A617A
:100C140000BF0C37BD4680BC704780B483B000AFC2
:100C240078600B467B807A887B685A6100BF0C37FA
:100C3400BD4680BC7047000080B487B000AF7860C8
:100C44000B46FB7000233B610023FB6000237B61A8
:100C54000023BB607B68002B03DA2E4BDB697B61CE
:100C640002E02C4B5B687B617B681B0C03F00F0379
:100C7400BB607B689BB23B617B6803F44013B3F5B4
:100C8400401F0AD17B6923F070637B61214B5B6851
:100C9400204A23F07063536021E07B6803F48013DF
:100CA400002B0ED00322BB6802FA03F3FB60FB683F
:100CB400DB437A6913407B617B6943F070637B613A
:100CC4000DE07B685B0D1B013A6902FA03F3DB4319
:100CD4007A6913407B617B6943F070637B61FB78C5
:100CE400002B08D07B685B0D1B013A6902FA03F301
:100CF4007A6913437B617B68002B03DA054A7B69BD
:100D0400D36102E0034A7B69536000BF1C37BD46D0
:100D140080BC70470000014080B483B000AF03463C
:100D24003960FB7197F90730002B0BDA3B68DAB2B4
:100D34000C49FB7903F00F03043B1201D2B20B44BC
:100D44001A7609E03B68DAB2074997F907301201CD
:100D5400D2B20B4483F8002300BF0C37BD4680BCDD
:100D6400704700BF00ED00E000E100E080B582B014
:100D740000AF78607B68B3F1807F01D3012311E079
:100D84007B6823F07F43094A013B53600F214FF0F6
:100D9400FF30FFF7C1FF054B00229A60034B072287
:100DA4001A60002318460837BD4680BD10E000E0F5
:100DB40080B586B000AF3B1D184600F053FCBB68FD
:100DC400054AA2FB03239B0C1846FFF7CFFF00BF85
:100DD4001837BD4680BD00BF83DE1B4380B500AF1E
:100DE400034B00221A60FFF7E3FF00BF80BD00BF82
:100DF400AC08002080B400AF044B1B680133034AE5
:100E0400136000BFBD4680BC704700BFAC08002023
:100E140080B485B000AF7860084B1B68FB60074B5B
:100E24001B68FA689B1A7A689A4200D9F7E700BFF0
:100E340000BF1437BD4680BC704700BFAC0800201B
:100E440080B582B000AF0023FB717AE0FB79404AA1
:100E54005B0113445B68C3F30003DBB2002B6DD169
:100E6400FB793B4A5B01134418331B68C3F300034B
:100E7400DBB2002B2CD1FB79354A5B0113441B6890
:100E84001B78002B5AD0334B1B683B60FB79304AEC
:100E94005B0113441C331B6898472E4B1A683B684C
:100EA400D31A3B60FB792A4A5B011344083319685F
:100EB400FB793A680A4426495B010B4408331A60FB
:100EC400FB79234A5B0113441B6800221A7035E046
:100ED400204B1A68FB791E495B010B4410331B68D5
:100EE400D21AFB791A495B010B440C331B689A42F2
:100EF40024D3184B1B683B60FB79154A5B011344F0
:100F04001C331B689847134B1A683B68D31A3B6021
:100F1400FB790F4A5B01134408331968FB793A687B
:100F24000A440B495B010B4408331A60FB79094AF4
:100F3400126807495B010B4410331A60FB790133D3
:100F4400FB71054B1B78FA799A42FFF47FAF7AE77D
:100F5400240D0020AC080020200D002080B500AF37
:100F6400FFF7C0FB01220F490F48FFF7CDFB012219
:100F74000E490F48FFF714FC01220E490E48FFF7F3
:100F84000FFC01220B490D48FFF70AFC0022094916
:100F94000B48FFF705FC002206490A48FFF700FC4E
:100FA40000BF80BD44120020E51E000820A10700F8
:100FB400CD29000840420F008D2A0008612B00084B
:100FC400B90800086508000880B500AFFFF7C6FF40
:100FD400FFF704FF4FF4612000F004FFFFF7ECFC7F
:100FE4000121042000F0EEFBFFF734FB01F03CFC90
:100FF40000F0FAFF0248FFF70BFF00BF80BD00BFFF
:1010040040420F0080B500AF0121012000F0DAFB5F
:1010140001210548FFF710FEFFF7D6FFFFF710FF89
:101024000023184680BD00BF0002300080B483B0A6
:1010340000AF78600B46FB707B68FA781A70012366
:1010440018460C37BD4680BC704780B485B000AFED
:10105400786039600023FB600AE03A68531C3B6007
:101064007B68591C796012781A70FB680133FB6045
:101074003B681B78002BF0D1FB6818461437BD463B
:1010840080BC704780B586B000AFF8607A603B6082
:101094000B46FB7200237B617B68013B7B603B68F2
:1010A400092B1DD93B681D4AA2FB0323DB08F97AEF
:1010B4007A68F868FFF7E6FF78617B69FA68134499
:1010C400FB6010E0FB7A1946F868FFF7AFFFFB6896
:1010D4000133FB607B6901337B617B68013B7B608F
:1010E4007B68002BEEDC39680C4BA3FB0123DA0888
:1010F40013469B0013445B00CA1AD3B23033DBB2ED
:101104001946F868FFF792FF02467B6913447B6136
:101114007B6918461837BD4680BD00BFCDCCCCCC0A
:1011240080B586B000AFF8607A603B600B46FB7216
:1011340000237B613B68002B03DA3B685B423B6125
:1011440001E03B683B617B68013B7B603B69092BA9
:101154001FD93B68002B0CDA3B692E4AA2FB032300
:10116400DB085B42F97A7A68F868FFF7D9FF78619F
:101174000AE03B69274AA2FB0323DB08F97A7A6871
:10118400F868FFF7CDFF78617B69FA681344FB6068
:1011940025E03B68002B11DA7B68013B7B600DE0A6
:1011A400FB7A1946F868FFF741FFFB680133FB60DF
:1011B4007B6901337B617B68013B7B607B68002B2F
:1011C400EEDC3B68002B0ADA2D21F868FFF72EFFCE
:1011D40002467B6913447B61FB680133FB60396918
:1011E4000C4BA3FB0123DA0813469B0013445B005A
:1011F400CA1AD3B23033DBB21946F868FFF716FFC8
:1012040002467B6913447B617B6918461837BD46E7
:1012140080BD00BFCDCCCCCC80B588B002AFF86027
:101224007A601A460B46FB721346BB7200237B613D
:101234007B68013B7B603B6A1B09002B20D03B6A27
:101244001B09BA7AF97A009313467A68F868FFF7AB
:10125400E3FF02467B6913447B617B69FA681344AC
:10126400FB6010E0FB7A1946F868FFF7DFFEFB68C5
:101274000133FB607B6901337B617B68013B7B60ED
:101284007B68002BEEDC3B6A03F00F03092B0BD8C1
:101294003B6ADBB203F00F03DBB23033DBB2194637
:1012A400F868FFF7C3FE19E0BB7A002B0BD03B6A4A
:1012B400DBB203F00F03DBB23733DBB21946F86855
:1012C400FFF7B4FE0AE03B6ADBB203F00F03DBB2C4
:1012D4005733DBB21946F868FFF7A8FE7B69013380
:1012E4007B617B6918461837BD4680BD80B58AB0DE
:1012F40002AFF860B9607A603B600023BB610023F1
:101304007B61FB68002B00F0FC80FB6800221A70F4
:10131400F7E07B681B78252B0BD07A68531C7B6025
:10132400FB68591CF96012781A707B6901337B6180
:10133400E7E07B6801331B78252B0BD1FB685A1C33
:10134400FA6025221A707B6802337B607B69013363
:101354007B61D6E02023FB770023BB777B680133D6
:101364007B607B681B78302B14D13023FB777B6840
:1013740001337B600EE0BB7F1A46920013445B008E
:10138400DAB27B681B781344DBB2303BBB777B68F3
:1013940001337B607B681B782F2B03D97B681B7818
:1013A400392BE8D9BA7F7B6913441A46BB68934248
:1013B40005D2BB68DAB27B69DBB2D31ABB777B6830
:1013C4001B78583B202B00F28E8001A252F823F0A8
:1013D400A5140008EB140008EB140008EB14000833
:1013E400EB140008EB140008EB140008EB140008DD
:1013F400EB140008EB140008EB140008D5140008E3
:1014040059140008EB140008EB140008EB1400084E
:10141400EB14000859140008EB140008EB1400083E
:10142400EB140008EB140008EB140008EB1400089C
:10143400EB140008EB140008EB140008C1140008B6
:10144400EB14000871140008EB140008EB140008F6
:1014540089140008B87F3B681A1D3A601B68F97F3D
:101464000246F868FFF75CFEB8613FE0B87F3B686E
:101474001A1D3A601B68F97F0246F868FFF702FEFE
:10148400B86133E0B87F3B681A1D3A601B68F97F86
:10149400009300230246F868FFF7BEFEB86125E01A
:1014A400B87F3B681A1D3A601B68F97F00930123DB
:1014B4000246F868FFF7B0FEB86117E03B681A1DF2
:1014C4003A601B681946F868FFF7BFFDB8610DE084
:1014D4003B681A1D3A601B68DBB21946F868FFF7CF
:1014E400A5FDB86102E04FF0FF3325E07B680133CE
:1014F4007B60BB69FA681344FB607A69BB69134477
:101504007B617B681B78002B04D07B69BA689A42A4
:101514003FF6FFAE7B69BA689A4203D9FB680022A2
:101524001A7008E0FB68013BFB60FB6800221A703C
:101534007B69013B7B617B6918462037BD4680BDD2
:1015440080B584B000AFF860B9607A607B68BA682F
:101554006421F868FFF7CAFE034618461037BD46F3
:1015640080BD0000B0B5A6B000AFF860B9607A6085
:10157400144B07F110041D460FCD0FC40FCD0FC43B
:101584002B68236007F134037A68B9681846FFF7BB
:10159400D7FF0346632B09DD0B4B1B68DA6807F1A1
:1015A40010031146184600F039F8FEE707F134033A
:1015B400F968184600F032F8034618469837BD46D5
:1015C400B0BD00BF204200080000002080B582B0FA
:1015D40000AF78603960064B1B689B683A6879688D
:1015E4001846FFF7BFFF034618460837BD4680BDBF
:1015F400000000200FB480B582B000AF07F11403DF
:101604003B6039683869FFF7E1FF78607B6818460A
:101614000837BD46BDE8804004B0704780B584B04B
:1016240000AF786039600023FB6012E07B681B78B0
:101634003968184601F046FD0346B3F1FF3F02D175
:101644004FF0FF330AE0FB680133FB607B68013332
:101654007B607B681B78002BE8D1FB681846103749
:10166400BD4680BD80B487B000AF786000237B6145
:1016740000233B610023FB600023BB604C4B5B6891
:1016840003F00C037B617B69042B07D0082B09D082
:10169400002B33D17B68474A1A6033E07B68454AA4
:1016A4001A602FE0424B5B6803F470133B61404BBC
:1016B4005B6803F48033FB603B699B0C02333B6142
:1016C400FB68002B06D13B693B4A02FB03F27B68B3
:1016D4001A6017E0364B5B6803F40033002B06D026
:1016E4003B69354A02FB03F27B681A600AE03B69F6
:1016F400304A02FB03F27B681A6003E07B682D4AE0
:101704001A6000BF2A4B5B6803F0F0037B617B69BE
:101714001B097B61294A7B6913441B78DBB2BB60DC
:101724007B681A68BB68DA407B685A60204B5B6848
:1017340003F4E0637B617B691B0A7B611F4A7B695D
:1017440013441B78DBB2BB607B685A68BB68DA4021
:101754007B689A60164B5B6803F460537B617B691A
:10176400DB0A7B61154A7B6913441B78DBB2BB60DF
:101774007B685A68BB68DA407B68DA600C4B5B684C
:1017840003F440437B617B699B0B7B610C4A7B695F
:1017940013441B78DBB2BB607B68DA68BB68B2FBBE
:1017A400F3F27B681A6100BF1C37BD4680BC7047EA
:1017B4000010024000127A0000093D004804002095
:1017C4005804002080B483B000AF78600B46FB70EF
:1017D400FB78002B06D0094B9A6908497B681343B0
:1017E4008B6106E0054B9A697B68DB430349134030
:1017F4008B6100BF0C37BD4680BC704700100240AF
:1018040080B483B000AF78600B46FB70FB78002B8C
:1018140006D0094BDA6908497B681343CB6106E0BB
:10182400054BDA697B68DB4303491340CB6100BF96
:101834000C37BD4680BC70470010024080B58CB0A8
:1018440000AF786039600023FB620023BB62002391
:101854007B6200233B620023FB617B68FB617B6846
:101864001B8A9BB2FB62FA6A4CF6FF731340FB625D
:101874003B68DB881A46FB6A1343FB62FB6A9AB235
:101884007B681A827B689B899BB2FB62FA6A4EF67C
:10189400F3131340FB623B689A883B681B8913432C
:1018A4009AB23B685B8913439BB21A46FB6A1343A3
:1018B400FB62FB6A9AB27B689A817B689B8A9BB2C3
:1018C400FB62FA6A4FF6FF431340FB623B689B8955
:1018D4001A46FB6A1343FB62FB6A9AB27B689A82DC
:1018E40007F108031846FFF7BDFEFB692E4A934231
:1018F40002D17B69BB6201E03B69BB627B689B8967
:101904009BB21BB2002B0CDABA6A13469B00134439
:101914009A001A443B681B685B00B2FBF3F37B62DA
:101924000BE0BA6A13469B0013449A001A443B68BE
:101934001B689B00B2FBF3F37B627B6A1B4AA2FB2E
:1019440003235B091B01FB62FB6A1B09642202FB84
:1019540003F37A6AD31A3B627B689B899BB21BB2FE
:10196400002B0CDA3B6ADB003233104AA2FB032360
:101974005B0903F00703FA6A1343FB620BE03B6A5B
:101984001B013233094AA2FB03235B0903F00F0353
:10199400FA6A1343FB62FB6A9AB27B681A8100BF3E
:1019A4003037BD4680BD00BF003801401F85EB5174
:1019B40080B483B000AF78600B46FB70FB78002BDB
:1019C40008D07B689B899BB243F400539AB27B682E
:1019D4009A8107E07B689B899BB223F400539AB2F7
:1019E4007B689A8100BF0C37BD4680BC704780B4C9
:1019F40087B000AF78600B467B8013467B70002372
:101A04003B610023FB600023BB6000237B617B6898
:101A14007B617B88DBB25B09DBB23B617B8803F0D3
:101A24001F03FB600122FB6802FA03F3BB603B69FE
:101A3400012B03D17B690C337B6109E03B69022BE9
:101A440003D17B6910337B6102E07B6914337B61D2
:101A54007B78002B06D07B6919687B69BA680A43D6
:101A64001A6006E07B691968BB68DA437B690A403F
:101A74001A6000BF1C37BD4680BC704780B485B077
:101A840000AF78600A4B1B68002B02D1084B094A4F
:101A94001A60074B1B68FB60054B1A687B6813448C
:101AA400034A1360FB6818461437BD4680BC704770
:101AB400B00800205012002080B483B000AF7860DA
:101AC4004FF0FF3318460C37BD4680BC704780B4D6
:101AD40083B000AF786039603B684FF400525A60BD
:101AE400002318460C37BD4680BC704780B483B0D1
:101AF40000AF7860012318460C37BD4680BC7047A0
:101B040080B485B000AFF860B9607A6000231846ED
:101B14001437BD4680BC704780B485B000AFF86010
:101B2400B9607A607B6818461437BD4680BC70473C
:101B340080B584B000AFF860B9607A607968B8683D
:101B440000F0A2F97B6818461037BD4680BD00003E
:101B540080B586B000AF01210820FFF733FEC02313
:101B6400BB821C23FB750323BB7507F114031946C1
:101B74001148FEF76FFF01214FF40010FFF740FEFC
:101B840000233B814BF6FF737B810023BB814FF421
:101B94008063FB814FF480433B82084B7B603B1D99
:101BA4001946074800F0F8FB0121054800F0B6FC8F
:101BB40000BF1837BD4680BD000C0140801A0600E6
:101BC4000054004080B582B000AF0346FB710C485E
:101BD400FEF712FC002278210948FEF739FC0021A7
:101BE4000748FEF763FCFB7919460548FEF75EFCDF
:101BF4000348FEF721FC00BF0837BD4680BD00BF87
:101C04000054004080B584B000AF78600B467B8000
:101C14001248FEF7F1FB002278211048FEF718FC69
:101C240040210E48FEF742FC0023FB810AE0FB89B9
:101C34007A6813441B7819460848FEF737FCFB8979
:101C44000133FB81FA897B889A42F0D30348FEF77B
:101C5400F3FB00BF1037BD4680BD00BF00540040F9
:101C640080B584B000AF78600B467B800020FFF71E
:101C7400CFF87B8819467868FEF7CFFF4FF4F070F1
:101C8400FFF7C6F87B8819467868FEF7B8FF462048
:101C9400FFF7BEF87B8819467868FEF797FF03467E
:101CA400FB604FF4CD70FFF7B3F8FB6818461037AC
:101CB400BD4680BD80B584B000AFF8600B467A6045
:101CC4007B817B68002B10D07B891946F868FEF76E
:101CD400A4FF0620FFF79CF87B891946F868FEF7F5
:101CE4008EFF4020FFF794F80FE07B891946F868CF
:101CF400FEF793FF3C20FFF78BF87B891946F868C1
:101D0400FEF77DFF0A20FFF783F800BF1037BD46BA
:101D140080BD80B584B000AF78600B467B807B8843
:101D240019467868FEF779FF0620FFF771F87B887B
:101D340019467868FEF763FF0920FFF769F87B8886
:101D440019467868FEF742FF0346FB603720FFF729
:101D54005FF8FB6818461037BD4680BD80B586B075
:101D640000AFF8600B467A607B8100237B610DE055
:101D74007B6803F001027B891946F868FFF79AFF34
:101D84007B685B107B607B6901337B617B69072B1C
:101D9400EEDD00BF1837BD4680BD80B584B000AF0E
:101DA40078600B467B800023BB600023FB6011E05E
:101DB400BB685B10BB607B8819467868FFF7A9FF96
:101DC4000346002B03D0BB6843F08003BB60FB6871
:101DD4000133FB60FB68072BEADDBB68184610374C
:101DE400BD4680BD80B582B000AF78604FF4867286
:101DF40000210C48FEF724FA142200210A48FEF7B9
:101E04001FFA084B01221A72084B00221A707868D4
:101E140000F06EFC064B074A1A6000BF0837BD4647
:101E240080BD00BF3811002024110020441200207E
:101E3400180D0020F915000880B483B000AF786055
:101E44000F4B1B68DBB27A68D1B20D4A13440A46C1
:101E54005A720B4B1B680133094A1360084B00226A
:101E64001A72084B9B899BB2064A43F080039BB2CB
:101E74009381002318460C37BD4680BC704700BFD1
:101E8400381100200038014080B584B000AF78607C
:101E940039600023FB6009E07B685A1C7A601B7878
:101EA4001846FFF7C9FFFB680133FB60FA683B681B
:101EB4009A42F1DB00BF1037BD4680BD80B500AF4C
:101EC400044B1B6804489847024B1B680348984717
:101ED40000BF80BD180D0020606A0008686A000811
:101EE40080B500AF094B1B7ADBB23F2B02D1FFF761
:101EF400E5FF08E0064B1B68044A127AD2B2114689
:101F04000448984700BF00BF80BD00BF24110020D3
:101F1400180D00208C6A000880B487B000AF786088
:101F240000237B6100233B610F23FB607B68DB782C
:101F3400002B3AD0274BDB68DB431B0A03F0070373
:101F44007B617B69C3F104033B61FA687B6922FA14
:101F540003F3FB607B685B781A463B6902FA03F380
:101F64007B617B689B781A46FB6813407A6913434C
:101F74007B617B691B017B61174A7B681B787969EC
:101F8400C9B213440A4683F800237B681B7803F024
:101F94001F0311497A6812785209D2B210460122FD
:101FA40002FA03F341F820300FE07B681B7803F05A
:101FB4001F0309497A6812785209D2B210460122E5
:101FC4009A4000F1200341F8232000BF1C37BD468E
:101FD40080BC704700ED00E000E100E080B400AF99
:101FE40000BFBD4680BC704780B500AFFFF7B0FDB1
:101FF400FFF7F4FF3348FEF70BFFAE20FFF7E2FDD7
:102004002020FFF7DFFD1020FFF7DCFDB020FFF7F5
:10201400D9FDC820FFF7D6FD0020FFF7D3FD10201F
:10202400FFF7D0FD4020FFF7CDFD8120FFF7CAFD6B
:10203400FF20FFF7C7FDA120FFF7C4FDA620FFF78F
:10204400C1FDA820FFF7BEFD3F20FFF7BBFDA42084
:10205400FFF7B8FDD320FFF7B5FD0020FFF7B2FD71
:10206400D520FFF7AFFDF020FFF7ACFDD920FFF737
:10207400A9FD2220FFF7A6FDDA20FFF7A3FD122019
:10208400FFF7A0FDDB20FFF79DFD2020FFF79AFD61
:102094008D20FFF797FD1420FFF794FDAF20FFF785
:1020A40091FD002000F012F800F032F8064B0022F7
:1020B4001A80054B00225A80034B01225A7100BF3B
:1020C40080BD00BFA0860100B40C002080B485B0A0
:1020D40000AF0346FB710023FB600DE0FB79002B8E
:1020E40001D1002100E0FF21084AFB6813440A469D
:1020F4001A70FB680133FB60FB68B3F5806FEDD3A6
:1021040000BF1437BD4680BC704700BFB408002030
:1021140080B582B000AF0023FB7116E0FB79503B21
:10212400DBB21846FFF74EFD0020FFF74BFD1020F1
:10213400FFF748FDFB79DB01074A13448021184669
:10214400FFF760FDFB790133FB71FB79072BE5D9C0
:1021540000BF0837BD4680BDB408002080B483B0FA
:1021640000AF0346FB710B46BB7113467B7197F9B5
:102174000730002B48DBBB793F2B45D8254B1B7917
:10218400002B06D07B79002B0CBF01230023DBB28C
:102194007B717B79012B1AD1FA79BB79DB08D8B230
:1021A4000346DB0113441C4AD35C5AB2BB7903F0E7
:1021B4000703012101FA03F35BB2134359B2FA791D
:1021C4000346DB011344C9B2134AD1541DE0FA7922
:1021D400BB79DB08D8B20346DB0113440E4AD35C57
:1021E4005AB2BB7903F00703012101FA03F35BB28E
:1021F400DB435BB2134059B2FA790346DB01134463
:10220400C9B2054AD15400E000BF0C37BD4680BCBA
:10221400704700BFB40C0020B408002090B589B00A
:1022240000AF0446381D80E806001A462346FB73B7
:102234001346BB73384B1B881A463B7913447F2BD8
:1022440006DC354B5B881A467B7913443F2B01DD52
:1022540000235DE00023FB614CE0BA68FB7B203B7C
:10226400797901FB03F31946FB690B445B001344C2
:102274001B887B610023BB6134E07A69BB6902FA85
:1022840003F303F40043002B12D0234B1B88DAB270
:10229400BB69DBB21344D8B21F4B5B88DAB2FB696B
:1022A400DBB21344DBB2BA7B1946FFF757FF16E0E3
:1022B400194B1B88DAB2BB69DBB21344D8B2164B94
:1022C4005B88DAB2FB69DBB21344D9B2BB7B002B67
:1022D4000CBF01230023DBB21A46FFF73FFFBB69A3
:1022E4000133BB613B791A46BB699342C5D3FB6991
:1022F4000133FB617B791A46FB699342ADD3064BEC
:102304001A883B799BB213449AB2034B1A80FB7B25
:1023140018462437BD4690BDB40C002080B584B067
:1023240000AFF860381D80E80600FB7012E0FB681F
:102334001878FB783A1D06CAFFF770FF03461A4661
:10234400FB681B789A4202D0FB681B7808E0FB68A4
:102354000133FB60FB681B78002BE8D1FB681B781A
:1023640018461037BD4680BD80B483B000AF034625
:102374000A46FB711346BB71FB799AB2054B1A806E
:10238400BB799AB2034B5A8000BF0C37BD4680BC60
:10239400704700BFB40C002080B58AB000AF7860ED
:1023A40039600023FB8400237B840423BB84574BC4
:1023B400FB617B689B88FB84FB8C23F03F03FB84DD
:1023C40007F108031846FFF74DF93B69FB61FB6908
:1023D4004F4AA2FB03239B0C7B84FA8C7B8C134314
:1023E400FB847B68FA8C9A807B681B889BB223F001
:1023F40001039AB27B681A800023FB843B681B6844
:10240400444A934215D83B681B685B00FA69B2FBE7
:10241400F3F3BB84BB8C032B01D80423BB84FA8C59
:10242400BB8C1343FB847B8C01339AB27B681A8484
:1024340040E03B68DB884BF6FF72934209D13B686E
:102444001A6813465B001344FA69B2FBF3F3BB84C6
:102454000EE03B681A6813469B0013449A00134429
:10246400FA69B2FBF3F3BB84BB8C43F48043BB84B3
:10247400BB8CC3F30B03002B03D1BB8C43F00103D0
:10248400BB84BA8CFB8C13439BB26FEA43436FEA61
:102494005343FB847B8C4FF4967202FB03F31E4A76
:1024A40082FB03129211DB17D31A9BB201339AB247
:1024B4007B681A847B68FA8C9A837B681B889BB23E
:1024C40043F001039AB27B681A807B681B88FB8403
:1024D400FB8C23F4816323F00203FB843B689A881A
:1024E4003B685B8913439AB2FB8C1343FB847B6880
:1024F400FA8C1A803B689A893B681B8913439AB209
:102504007B681A8100BF2837BD4680BD00127A005F
:1025140083DE1B43A0860100D34D621080B483B0D8
:1025240000AF78600B46FB70FB78002B08D07B680B
:102534001B889BB243F001039AB27B681A8007E0C0
:102544007B681B889BB223F001039AB27B681A80D4
:1025540000BF0C37BD4680BC704780B483B000AF69
:1025640078600B46FB70FB78002B08D07B681B88D7
:102574009BB243F480739AB27B681A8007E07B684D
:102584001B889BB223F480739AB27B681A8000BFC5
:102594000C37BD4680BC704780B483B000AF786010
:1025A4000B46FB70FB78002B08D07B681B889BB222
:1025B40043F400739AB27B681A8007E07B681B8837
:1025C4009BB223F400739AB27B681A8000BF0C3765
:1025D400BD4680BC704780B483B000AF78600B46C2
:1025E400FB70FB789AB27B681A8200BF0C37BD4639
:1025F40080BC704780B483B000AF78600B46FB703A
:102604001346BB70BB78002B04D0FB7843F0010366
:10261400FB7003E0FB7823F00103FB70FB789AB2B4
:102624007B681A8200BF0C37BD4680BC704780B4FB
:1026340087B000AF7860396000233B610023FB6002
:102644000023BB600023FB757B689B8A9BB2FB6005
:102654007B681B8B9BB2BB60BB681B04BB60FA68C6
:10266400BB68134323F07F433B613A693B681340E3
:102674003A689A4202D10123FB7501E00023FB75FD
:10268400FB7D18461C37BD4680BC704780B487B0BC
:1026940000AF786039600023FB7500233B610023A1
:1026A400FB607B68FB603B681B0F3B613B6823F06E
:1026B4007F433B603B69002B03D0FB681433FB6012
:1026C40005E03B681B0C3B60FB681833FB60FB6850
:1026D4001A683B681340002B02D00123FB7501E00C
:1026E4000023FB75FB7D18461C37BD4680BC704734
:1026F40080B588B000AF786001210520FFF762F84B
:1027040001214FF48040FFF75DF84FF40073BB8361
:102714001823FB770323BB7707F11C0319462048D2
:10272400FEF798F94FF48063BB830423FB7707F12A
:102734001C0319461A48FEF78DF97B68FB600023D9
:102744003B8200237B820023BB8200233B830C2338
:10275400FB8207F10C0319461248FFF76FF80122B8
:1027640040F225510F48FFF742F9012240F2277148
:102774000C48FFF73CF925233B7200237B720023AE
:10278400BB720123FB7207F108031846FFF7C4FB71
:1027940001210448FFF70CF900BF2037BD4680BD76
:1027A400000801400038014080B483B000AF2A4BD8
:1027B4001B889BB203F02003002B11D0264B9B886F
:1027C4009BB2FB71254AFB791372254B01221A70C7
:1027D400214B1B889BB2204A23F020039BB2138019
:1027E4001D4B1B889BB203F08003002B2FD01D4B85
:1027F4001A681C4B5B689A4216D01A4B5B68DBB2B2
:10280400184A13445B7ADAB2134B92B29A80154B8E
:102814005B68DBB2134A134400225A72114B5B68A3
:102824000133104A53600AE00B4B9B899BB20A4A5E
:1028340023F080039BB293810A4B01221A72064B48
:102844001B889BB2044A23F080039BB2138000BF11
:102854000C37BD4680BC704700380140241100206D
:10286400441200203811002080B582B000AF4FF42C
:102874000063BB801423FB710323BB713B1D19460A
:102884000748FEF7E7F84FF48053BB803B1D194619
:102894000348FEF7DFF800BF0837BD4680BD00BF20
:1028A4000008014080B584B000AF0346FB71FB799A
:1028B400012B05D1374BFB604FF480537B8105E03E
:1028C400344BFB604FF400637B8100BF7B89194666
:1028D400F868FFF7C5F940F27710FEF799FA7B899B
:1028E400CC221946F868FFF739FA0C20FEF790FA63
:1028F4007B8944221946F868FFF730FA2648FEF728
:1029040087FA7B891946F868FFF7AAF940F277102D
:10291400FEF77EFA7B89CC221946F868FFF71EFA87
:102924000C20FEF775FA7B89BE221946F868FFF77A
:1029340015FA0C20FEF76CFA7B891946F868FFF744
:102944002CFA0346DBB23B720220FEF761FA7B8964
:102954001946F868FFF721FA0346DBB27B727B89DC
:102964001946F868FFF77CF9B7F90830184600F003
:10297400DFF903464FF08341184600F0E1FA0346BD
:10298400184600F079FB03461BB218461037BD46C3
:1029940080BD00BF00080140E093040090B583B0FF
:1029A40000AF0346FB71FC79FB791846FFF77AFF09
:1029B40003461A46034B23F8142000BF0C37BD46C8
:1029C40090BD00BF4812002080B500AF0020FFF783
:1029D400E5FF0120FFF7E2FF00BF80BD80B483B0B4
:1029E40000AF03463960FB80B7F90630002B07DAE5
:1029F4003B682D221A70FB885B429BB2FB8013E07C
:102A0400FB8863339BB2C62B0BD9FB881C4AA2FB01
:102A140003235B099BB2DBB23033DAB23B681A7032
:102A240002E03B682B221A70FB88164AA2FB0323A0
:102A3400DB089AB2134BA3FB0213D9080B469B0085
:102A44000B445B00D31A9BB2DAB23B6801333032D9
:102A5400D2B21A70FA880B4BA3FB0213D9080B46A7
:102A64009B000B445B00D31A9BB2DAB23B6802337F
:102A74003032D2B21A7000BF0C37BD4680BC7047EA
:102A84001F85EB51CDCCCCCC80B582B000AF2B4BA5
:102A94007B600020FFF71AFB294BB3F902303A1D83
:102AA40011461846FFF79AFF00210220FFF75CFC4D
:102AB400244A012306CA2448FFF730FC10210220CF
:102AC400FFF752FC214A381D012306CAFFF726FCF2
:102AD40000215C20FFF748FC1A4A012306CA1C485F
:102AE400FFF71CFC10215C20FFF73EFC174A381D41
:102AF400012306CAFFF712FC114BB3F900303A1D4B
:102B040011461846FFF76AFF00212C20FFF72CFC22
:102B14000C4A012306CA0F48FFF700FC182128209D
:102B2400FFF722FC0C4A381D012306CAFFF7F6FB07
:102B3400FFF7EEFA00BF0837BD4680BD30303000E5
:102B4400481200205C040020A06A000864040020ED
:102B5400A86A0008B06A00086C04002080B500AFC1
:102B64000F4B1B680F4898470D4B1B680E4AB2F970
:102B7400002011460D489847094B1B680A4AB2F9D0
:102B8400022011460A489847054B1B680948984794
:102B9400034B1B6802210848984700BF80BD00BF53
:102BA400180D0020B86A000848120020C06A000806
:102BB400D06A0008E06A0008E86A000880F0004073
:102BC40002E000BF81F0004142001FBF5FEA410301
:102BD40092EA030F7FEA226C7FEA236C6AD04FEA01
:102BE4001262D2EB1363C1BFD21841404840414046
:102BF400B8BF5B42192B88BF704710F0004F40F4F8
:102C0400000020F07F4018BF404211F0004F41F413
:102C1400000121F07F4118BF494292EA030F3FD0DF
:102C2400A2F1010241FA03FC10EB0C00C3F12003F2
:102C340001FA03F100F0004302D5494260EB400081
:102C4400B0F5000F13D3B0F1807F06D340084FEAEC
:102C5400310102F10102FE2A51D2B1F1004F40EBE1
:102C6400C25008BF20F0010040EA03007047490049
:102C740040EB000010F4000FA2F10102EDD1B0FA14
:102C840080FCACF1080CB2EB0C0200FA0CF0AABF09
:102C940000EBC25052421843BCBFD04018437047A7
:102CA40092F0000F81F4000106BF80F400000132AD
:102CB400013BB5E74FEA41037FEA226C18BF7FEA84
:102CC400236C21D092EA030F04D092F0000F08BFC6
:102CD4000846704790EA010F1CBF0020704712F0AD
:102CE4007F4F04D1400028BF40F00040704712F1EC
:102CF40000723CBF00F50000704700F0004343F051
:102D0400FE4040F4000070477FEA226216BF084686
:102D14007FEA23630146420206BF5FEA412390EA49
:102D2400010F40F4800070474FF0000304E000BF3F
:102D340010F0004348BF40425FEA000C08BF7047F0
:102D440043F0964301464FF000001CE050EA0102B4
:102D540008BF70474FF000030AE000BF50EA0102C9
:102D640008BF704711F0004302D5404261EB4101B6
:102D74005FEA010C02BF84460146002043F0B643DB
:102D840008BFA3F18053A3F50003BCFA8CF2083A00
:102D9400A3EBC25310DB01FA02FC634400FA02FC09
:102DA400C2F12002BCF1004F20FA02F243EB020010
:102DB40008BF20F00100704702F1200201FA02FC72
:102DC400C2F1200250EA4C0021FA02F243EB020065
:102DD40008BF20EADC7070474FF0FF0C1CEAD052A9
:102DE4001EBF1CEAD15392EA0C0F93EA0C0F6FD06A
:102DF4001A4480EA010C400218BF5FEA41211ED048
:102E04004FF0006343EA501043EA5111A0FB013133
:102E14000CF00040B1F5000F3EBF490041EAD37108
:102E24005B0040EA010062F17F02FD2A1DD8B3F184
:102E3400004F40EBC25008BF20F00100704790F0F3
:102E4400000F0CF0004C08BF49024CEA502040EA45
:102E540051207F3AC2BFD2F1FF0340EAC25070470B
:102E640040F400004FF00003013A5DDC12F1190F49
:102E7400DCBF00F000407047C2F10002410021FABB
:102E840002F1C2F1200200FA02FC5FEA310040F1D3
:102E9400000053EA4C0308BF20EADC70704792F04C
:102EA400000F00F0004C02BF400010F4000F013A84
:102EB400F9D040EA0C0093F0000F01F0004C02BF7F
:102EC400490011F4000F013BF9D041EA0C018FE7EE
:102ED4000CEAD15392EA0C0F18BF93EA0C0F0AD0F4
:102EE40030F0004C18BF31F0004CD8D180EA01001A
:102EF40000F00040704790F0000F17BF90F0004FB3
:102F0400084691F0000F91F0004F14D092EA0C0F94
:102F140001D142020FD193EA0C0F03D14B0218BF27
:102F2400084608D180EA010000F0004040F0FE406D
:102F340040F40000704740F0FE4040F44000704709
:102F44004FF0FF0C1CEAD0521EBF1CEAD15392EA88
:102F54000C0F93EA0C0F69D0A2EB030280EA010C78
:102F640049024FEA402037D04FF0805343EA111111
:102F740043EA10130CF000408B4238BF5B0042F16F
:102F84007D024FF4000C8B4224BF5B1A40EA0C0014
:102F9400B3EB510F24BFA3EB510340EA5C00B3EB46
:102FA400910F24BFA3EB910340EA9C00B3EBD10F34
:102FB40024BFA3EBD10340EADC001B0118BF5FEA86
:102FC4001C1CE0D1FD2A3FF650AF8B4240EBC250AF
:102FD40008BF20F0010070470CF0004C4CEA502070
:102FE4007F32C2BFD2F1FF0340EAC250704740F4BF
:102FF40000004FF00003013A37E792F0000F00F0B1
:10300400004C02BF400010F4000F013AF9D040EA2E
:103014000C0093F0000F01F0004C02BF490011F4C2
:10302400000F013BF9D041EA0C0195E70CEAD153BA
:1030340092EA0C0F08D142027FF47DAF93EA0C0FA1
:103044007FF470AF084676E793EA0C0F04D14B0285
:103054003FF44CAF08466EE730F0004C18BF31F037
:10306400004CCAD130F000427FF45CAF31F0004331
:103074007FF43CAF5FE700BF4FEA4002B2F1FE4F7E
:103084000FD34FF09E03B3EB12620DD94FEA002326
:1030940043F0004310F0004F23FA02F018BF4042FF
:1030A40070474FF00000704712F1610F01D14202E6
:1030B40005D110F0004008BF6FF0004070474FF09A
:1030C40000007047144B70B51D6806460C460DB1E0
:1030D400AB6B9BB1636ED80702D4A389990516D54F
:1030E40028462246314600F019F8636E0546DA0791
:1030F40002D4A3899B0505D5284670BD284600F057
:1031040009FAE7E7A06DFDF715F9284670BDA06D33
:10311400FDF70EF9E4E700BF00000020F8B50E4605
:103124001446074608B1836BBBB1636ED80702D45B
:10313400A389990526D5A368013B002BA3600FDB67
:10314400F5B223685A1C22601E70636EDA0702D43B
:10315400A3899B0511D52846F8BD00F0DBF9E4E707
:10316400A269934202DBF5B20A2DEAD13146384610
:10317400224600F00BF80546E7E7A06DFDF7DAF804
:103184002846F8BDA06DFDF7D3F8D4E7F8B50D4691
:103194001446064610B1836B002B43D0B4F90C20BF
:1031A400A36991B20807A3601BD52369CBB1EDB223
:1031B40089042F4622D522686169D31A994229DDF0
:1031C4000133A168501C0139A16020601570626947
:1031D4009A422AD0A389DB0701D50A2D25D0384687
:1031E400F8BD2146304600F029F820BBB4F90C2084
:1031F400EDB291B2890423692F46DCD4616E42F4A6
:10320400005221F40051A281226861666169D31AD7
:103214009942D5DC2146304600F020F958B9012303
:103224002268CEE700F076F9B8E72146304600F090
:1032340015F90028D3D04FF0FF37D0E738B5314B1C
:10324400054618680C4610B1836B002B3AD0B4F9CC
:103254000C2093B218070CD52069A8B113F0010211
:1032640020D000226369A2605B42A36100B3002006
:1032740038BDD9063DD5580727D4206942F0080344
:10328400A3819BB20028E9D103F42072B2F5007F38
:10329400E4D02846214600F013FBA389206913F0EB
:1032A4000102DED1990758BF6269A2600028DED10D
:1032B400B4F90C301A06DBD543F04003A3814FF078
:1032C400FF3038BD00F026F9C1E7216B51B104F19C
:1032D4004003994204D0284600F0A8F9B4F90C2020
:1032E400002323630023206922F02402C4E900039D
:1032F400C4E7092342F040022B604FF0FF30A28163
:1033040038BD00BF00000020B1F90C302DE9F041B8
:103314009AB20C461107804644D4626843F40063B1
:10332400002AA3815ADDA56A002D54D000229BB245
:10333400D8F80060E169C8F8002013F4805240F026
:10334400848001234046A847431C4BD0A389A56A27
:10335400E1695F0705D56268236B801A0BB1E36BE3
:10336400C01A024600234046A847451C46D0002107
:10337400B4F90C30226923F40063A381DB04C4E9AB
:10338400002100D52065216BC8F8006019B304F151
:103394004003994202D0404600F048F900202063DF
:1033A400BDE8F0812669B6B1920718BF00232568ED
:1033B40008BF63692660AD1BA3600AE02B46324652
:1033C400676AE1694046B8470028A5EB0005064452
:1033D4002BDD002DF2DC0020BDE8F081E26B002A39
:1033E400A1DCF8E7D8F80030002BAFD01D2B01D0BA
:1033F400162B2CD1C8F800600020EDE7D8F8005057
:103404001D2D1AD8144BB4F90C20EB40DB4313F0F8
:10341400010314D1216922F40062C4E90013D10428
:10342400A281B0D5002DAED1ACE7A3894FF0FF3017
:1034340043F04003A381BDE8F081B4F90C2042F0CD
:103444004002A2814FF0FF30C6E7206D81E7A389D7
:1034540043F04003A381BFE70100402038B50D4687
:10346400044608B1836BA3B1B5F90C00B8B16B6E17
:10347400DB0701D481051AD520462946FFF744FF0E
:103484006B6E0446DA0702D4AB899B050AD5204645
:1034940038BD00F03FF8B5F90C000028E7D1044628
:1034A400204638BDA86DFCF745FF204638BDA86D01
:1034B400FCF73EFFE0E700BF002310B5044681811E
:1034C400C281C0E9003383604366C0E90433836189
:1034D400194608225C30FCF7B3FE07480749084A3E
:1034E400084BC4E90740C4E90912E36204F1580037
:1034F400BDE81040FCF718BFB93E0008DD3E0008E7
:10350400193F0008393F0008014900F083B900BFA2
:10351400913F000810B504461448FCF709FFA26B5C
:10352400FAB90320124904F53B73C4F8E832C4F82D
:10353400E022C4F8E402E16360680421FFF7BCFF01
:10354400A06801220921FFF7B7FFE06802221221D7
:10355400FFF7B2FF01230548A363BDE81040FCF761
:10356400E9BE0248BDE81040FCF7E4BEFC0C0020B4
:103574000D3500080148FCF7DBBE00BF100D00202C
:103584000148FCF7D7BE00BF100D0020F8B50C466B
:10359400234F064600F070FCBB68C4F57E615D688D
:1035A4000F3125F00305294421F47F6121F00F0137
:1035B400A1F58054B4F5805F07DB0021304600F0AC
:1035C40067FCBB682B44984204D0304600F05AFC98
:1035D4000020F8BD6142304600F05AFC01300DD0A5
:1035E400104BBA6819682D1B45F001053046091BBC
:1035F4005560196000F046FC0120F8BD00213046FA
:1036040000F046FCBA68831A0F2BDEDD064943F04E
:1036140001030C680349001B53600860D5E700BF31
:1036240074040020BC0C00207C080020002953D026
:10363400F8B50D46064600F01FFC55F804CC714F52
:10364400A5F108012CF00103CA18B8685468904227
:1036540024F0030453D01CF0010F546002EB040067
:103664003BD155F808CC4068A1EB0C018D6807F1FB
:10367400080E7545634400F0010075D0D1F80CC004
:10368400C5F80CC0CCF8085060B343F001024A609E
:10369400CB50B3F5007F50D35A0A042A70D89A0944
:1036A40002F13905ED0002F138007C197A59083C21
:1036B400944278D0506820F00300984271D99268FF
:1036C4009442F7D1E368C1E9024330469960E1606E
:1036D400BDE8F84000F0D6BB7047406800F0010038
:1036E4000028D2D19068484D2344A84243F00104F5
:1036F40062D0D268C26090604C60CB50C9E71CF0C5
:10370400010F234407D155F8084C091BD1E90202E3
:103714002344C26090603D4A43F00100126848604F
:103724009A42B96004D83A4B30461968FFF72EFF25
:103734003046BDE8F84000F0A5BB0122DB087C68F8
:10374400981013448240224307EBC30057F83340D8
:103754000838C1E902407A60304647F83310E16026
:10376400BDE8F84000F08EBB002845D1D2E9020242
:10377400234443F00104C26090604C60CB50D7E70F
:10378400142A08D9542A1ED81A0B02F16F05ED0029
:1037940002F16E0089E702F15C05ED0002F15B00C5
:1037A40083E714468EE701238210786803FA02F255
:1037B40002437A60234686E7C7E90411C1E902009F
:1037C4004C60CB50B4E7B2F5AA7F06D8DA0B02F10D
:1037D4007805ED0002F1770067E740F25450824229
:1037E40006D89A0C02F17D05ED0002F17C005CE73D
:1037F4004FF47E757E2058E743F001004860136063
:1038040096E700BF740400207C0400208008002098
:10381400EC0C00202DE9F84310F538761ED08846CC
:1038240007464FF00009D6E90154013D10D4A3899D
:10383400013D012B08D9B4F90E30013304D02146DF
:103844003846C04749EA00096B1C04F16804EED10C
:103854003668002EE7D14846BDE8F883B1464846AD
:10386400BDE8F88370B50C46B1F90E1096B0002986
:1038740015461E460FDA0023A289336012F0800039
:1038840004D14FF480632B6016B070BD40221846FB
:103894002A6016B070BD6A4600F0E0FB0028EADB3F
:1038A400019B4FF4806203F47043A3F50053B3FA11
:1038B40083F34FF400605B0933602A6016B070BD77
:1038C4008A890B46920706D5012103F14302596107
:1038D4001A601A61704770B582B001AB6A460C4633
:1038E4000546FFF7BFFF00990646284600F032F868
:1038F400B4F90C30D8B1164A0099EA63019A43F03E
:103904008003A3812060C4E904011AB93343A3816D
:1039140002B070BD2846B4F90E1000F0B3FBA0B19C
:10392400A38923F0030343F001031BB2EEE79A05D6
:10393400EED4012123F0030304F1430243F0020314
:10394400A381616122602261E2E7B4F90C30DDE712
:103954000D3500082DE9F04F01F10B05162D83B04C
:10396400064623D8102900F2B68000F085FA102507
:1039740018230220CC4F3B445C68A3F10802944214
:1039840000F056816368E16823F0030323445A6816
:10399400A56842F00102E96030468D605A6000F08B
:1039A40071FA0834204603B0BDE8F08F35F00705FE
:1039B40000F19180A94200F28E8000F05DFAB5F525
:1039C400FC7FC0F064816B0A00F08C80042B00F251
:1039D4003681AB0903F1390003F1380CC100B24F51
:1039E40039444C680839A14206D10CE0002A80F21F
:1039F4001B81E468A14206D0636823F003035A1BC9
:103A04000F2AF3DD60463C69DFF8B0C264456FD02D
:103A1400636823F003035A1B0F2A00F32681002A4C
:103A2400C7E904CC80F21781B3F5007F80F0598197
:103A34000122DB08991013448A40796857F833E06F
:103A440007EBC3080A43A8F10801C4E902E17A605C
:103A540047F83340CEF80C40012483109C40944234
:103A64004CD8144206D120F003006400144200F143
:103A74000400FAD007EBC009CE468046DEF80C30CD
:103A84009E4507D107E1002A80F21C81DB689E4530
:103A940000F00181596821F003014A1B0F2AF2DD6D
:103AA40045F001083046D3E902E41D4442F0010622
:103AB400C3F80480CEF80C40C4F808E0C7E9045504
:103AC400C5E902CC6E605A50019300F0DBF9019B0A
:103AD40003F1080466E700240C232046336003B096
:103AE400BDE8F08F4FF4007140204FF03F0C76E7B3
:103AF40001247A6883109C409442B2D9BC686368FC
:103B040023F00309A94503D3A9EB05030F2B7BDCA1
:103B1400664BDFF8ACA11A68DAF8003005EB02084E
:103B2400013300F03A8108F5805808F10F0828F4B1
:103B34007F6828F00F084146304600F0A9F9B0F13B
:103B4400FF3F834600F0F68004EB0900584500F27D
:103B5400EF80574A13684344136000F03F81DAF85A
:103B6400001001311BBFABEB00001B18CAF800B0FA
:103B740013601BF0070300F02681C3F10801C3F5AD
:103B840080538B440833D844C8F30B08A3EB0808CC
:103B940041463046019200F07BF9431C019A00F043
:103BA4003881A0EB0B01414441F001011368BC4290
:103BB4004344C7F808B01360CBF8041015D0B9F12A
:103BC4000F0F40F222814FF0050E6168A9F10C003D
:103BD40020F0070001F00101014304EB000C0F2861
:103BE4006160CCE901EE00F22C81324A324811685E
:103BF400BC688B42016888BF136062688B4222F004
:103C0400030288BF036099E045F0010243F0010319
:103C1400254462603046BD6008346B6000F032F9C0
:103C2400204603B0BDE8F08F23445A68E168AFE64C
:103C3400DC68A34208BF02303FF4E5AEA2E6142BD1
:103C440070D9542B00F2AC802B0B03F16F0003F1FD
:103C54006E0CC100C3E623445A68304642F00102A8
:103C64005A60083400F00EF99CE645F0010E42F06B
:103C740001012544C4F804E03046C7E90455C5E908
:103C840002CC6960E25000F0FDF808348AE6E808E6
:103C940005F108036EE608F1010818F0030F0EF1B0
:103CA400080E7FF4EBAE60E074040020EC0C0020FE
:103CB400BC0C0020E40C0020E80C00207C04002054
:103CC4007C0800201C4619444A68DB6854F8085FE5
:103CD40042F001024A603046EB609D6000F0D2F889
:103CE40060E65A0A042A35D9142A6FD802F15C0115
:103CF400C9005B3207EB010E7958AEF1080E8E4510
:103D040058D04A6822F003029A4202D989688E4543
:103D1400F7D1D1F80CE07A68C4E9021ECEF8084065
:103D2400CC6099E603F15C0003F15B0CC10056E63C
:103D3400BC4272D0BC68626822F003029542A2EBD6
:103D4400050302D80F2B3FF75FAF304600F09AF817
:103D5400002427E69A0902F13901C9003832C9E77B
:103D6400D9F80090994540F0838010F0030FA9F131
:103D7400080300F1FF30F3D17B6823EA04037B607E
:103D840064009C423FF6BAAE1CB9B7E6640008F181
:103D940004081C42FAD040466CE608F11008CAE652
:103DA400B3F5AA7F26D8EB0B03F1780003F1770C67
:103DB400C10014E64FF001087B68921008FA02F281
:103DC4001A437A60A8E74FF48053DCE6542A29D8D2
:103DD4001A0B02F16F01C9006E328BE7C0F30B01BD
:103DE40000297FF4BCAE09EB0802B96842F0010275
:103DF4004A60FAE640F2545293421CD8AB0C03F1E9
:103E04007D0003F17C0CC100E9E50123CBF804300B
:103E14009BE701214FF00008C8E6164A13684344A3
:103E240013609CE6B2F5AA7F14D8DA0B02F178018C
:103E3400C90077325EE74FF47E717F204FF07E0C2D
:103E4400CDE504F1080130460192FFF7EFFB019A3A
:103E54001368CAE640F254518A4205D89A0C02F11A
:103E64007D01C9007C3245E74FF47E717E2241E733
:103E74007B6885E7BC0C00200148FCF759BA00BFF9
:103E8400000D00200148FCF755BA00BF000D0020CA
:103E940038B50023064C054608462360FDF7EEFDC1
:103EA400431C00D038BD2368002BFBD02B6038BDE9
:103EB4004C12002010B50C46B1F90E1000F00AF9AE
:103EC400002803DB236D0344236510BDA38923F479
:103ED4008053A38110BD00BF2DE9F041B1F90C401E
:103EE4009846E3050D461746B1F90E10064607D568
:103EF4000223002200F0D8F8B5F90C40B5F90E10F1
:103F040024F48054AC8143463A463046BDE8F0413F
:103F140000F014B810B50C46B1F90E1000F0C4F856
:103F2400A389421C0EBF23F4805343F480532065BD
:103F3400A38110BDB1F90E1000F016B8F8B50E4605
:103F44000025084C114607461A4630462560FDF701
:103F5400EFFD431C00D0F8BD2368002BFBD03B6071
:103F6400F8BD00BF4C12002038B50023064C0546AE
:103F740008462360FDF7A0FD431C00D038BD23682C
:103F8400002BFBD02B6038BD4C12002070B50029EB
:103F940048D005460C4610B1836B002B48D0626EA6
:103FA400B4F90C30D00740D4990530D521462846C1
:103FB400FFF7AAF9E36A064633B1E1692846984750
:103FC4000028B8BF4FF0FF36A3891A063CD4216BF2
:103FD40041B104F14003994202D02846FFF726FB81
:103FE40000232363616C21B12846FFF71FFB0023E4
:103FF4006364FFF7BFFA0022636EA281DB071FD55B
:10400400A06DFCF793F9FFF7BBFA304670BDA06DC5
:10401400FCF78EF9B4F90C30002BC7D1666E16F09C
:10402400010616D00026304670BD002BFAD0BDE73D
:10403400FFF770FA626EB4F90C30D007F5D4B3E729
:10404400A06DFCF777F9DBE721692846FFF7EEFA64
:10405400BDE7A06DFCF76EF9304670BD70B50D4636
:104064000023074C0646114628462360FDF72FFD22
:10407400431C00D070BD2368002BFBD0336070BD9F
:104084004C12002038B50023064C05460846236030
:10409400FDF72CFD431C00D038BD2368002BFBD05A
:1040A4002B6038BD4C120020F8B50E460025084C94
:1040B400114607461A4630462560FDF721FD431C8C
:1040C40000D0F8BD2368002BFBD03B60F8BD00BFD7
:1040D4004C120020F8B50E460025084C1146074640
:1040E4001A4630462560FDF717FD431C00D0F8BD85
:1040F4002368002BFBD03B60F8BD00BF4C120020AE
:10410400F8B500BFF8BC08BC9E467047F8B500BFC0
:10411400F8BC08BC9E467047080000201B5B303B7F
:1041240033376D0050494420202075530D0A000098
:104134005B2532645D3A20253037640D0A000000A7
:104144001B5B303B33326D001B5B25644100000078
:104154001B5B2564420000005E43204F4B2E2E0D56
:104164000A000000466C6173682073697A655B6BB2
:10417400425D203A2025640D0A0000004D4355207D
:10418400756E6971756520494420203A2030782580
:10419400582558255825580D0A0000005379737482
:1041A400656D20467265715B487A5D3A2025640D21
:1041B4000A0000001B5B324A000000001B5B303B1E
:1041C40033326D000D0A53574820646562756720C9
:1041D400706F72740D0A0000467720566572736919
:1041E4006F6E3A2025642E25642E25642E256420C6
:1041F4005B25732025735D0D0A0000005365702054
:10420400333020323031380031303A34303A3034BF
:10421400000000001B5B303B33376D00737464692E
:104224006F2E633A20696E637265617365204D4138
:10423400585F535452494E475F53495A450A0D003B
:10424400000000000000000000000000000000006A
:1042540000000000001000100010001000100010FA
:1042640000000010000000000028002800280000C2
:1042740000000000000000000000000000240024F2
:10428400007C00240048007C004800480000000036
:104294000038005400500038001400540054003812
:1042A4000010000000200054005800300028005482
:1042B400001400080000000000100028002800106E
:1042C40000340048004800340000000000100010D2
:1042D40000100000000000000000000000000000CA
:1042E40000080010002000200020002000200020F2
:1042F4000010000800200010000800080008000852
:1043040000080008001000200010003800100028E9
:104314000000000000000000000000000000000099
:1043240000100010007C00100010000000000000CD
:104334000000000000000000000000000000001069
:104344000010001000000000000000000000003811
:104354000000000000000000000000000000000059
:104364000000000000000010000000000008000829
:1043740000100010001000100020002000000000B9
:104384000038004400440054004400440044003811
:104394000000000000100030005000100010001059
:1043A4000010001000000000003800440044000425
:1043B400000800100020007C0000000000380044C9
:1043C4000004001800040004004400380000000049
:1043D40000080018002800280048007C0008000895
:1043E40000000000007C004000400078000400044D
:1043F4000044003800000000003800440040007809
:10440400004400440044003800000000007C000424
:104414000008001000100020002000200000000010
:10442400003800440044003800440044004400388C
:10443400000000000038004400440044003C000434
:1044440000440038000000000000000000100000DC
:104454000000000000000010000000000000000048
:104464000000001000000000000000100010001008
:1044740000000000000C003000400030000C000080
:1044840000000000000000000000007C0000007C30
:1044940000000000000000000000000000600018A0
:1044A4000004001800600000000000000038004410
:1044B40000040008001000100000001000000000BC
:1044C40000380044004C0054005C004000400038B8
:1044D4000000000000100028002800280028007CAC
:1044E40000440044000000000078004400440078C8
:1044F40000440044004400780000000000380044F8
:10450400004000400040004000440038000000002B
:104514000070004800440044004400440048007017
:1045240000000000007C00400040007C004000408F
:104534000040007C00000000007C00400040007847
:1045440000400040004000400000000000380044EB
:1045540000400040005C00440044003800000000BB
:10456400004400440044007C0044004400440044EF
:1045740000000000003800100010001000100010AF
:1045840000100038000000000004000400040004CF
:104594000004000400440038000000000044004807
:1045A4000050006000500048004800440000000033
:1045B4000040004000400040004000400040007CBB
:1045C400000000000044006C006C005400440044EF
:1045D40000440044000000000044006400640054EF
:1045E4000054004C004C004400000000003800441B
:1045F400004400440044004400440038000000002B
:10460400007800440044004400780040004000402A
:10461400000000000038004400440044004400440A
:1046240000540038000400000078004400440044B2
:1046340000780048004800440000000000380044AE
:10464400004000300008000400440038000000006E
:10465400007C00100010001000100010001000106A
:1046640000000000004400440044004400440044AE
:1046740000440038000000000044004400440028C6
:10468400002800280010001000000000004400442E
:10469400005400540054006C00280028000000005E
:1046A40000440028002800100010002800280044BE
:1046B40000000000004400440028002800100010FE
:1046C4000010001000000000007C0004000800102E
:1046D400001000200040007C0000000000180010C2
:1046E400001000100010001000100010001000183E
:1046F4000020002000100010001000100008000826
:104704000000000000300010001000100010001025
:104714000010001000100030001000280028004491
:104724000000000000000000000000000000000085
:10473400000000000000000000000000000000FE77
:104744000020001000000000000000000000000035
:10475400000000000000000000380044003C004459
:10476400004C003400000000004000400058006489
:1047740000440044006400580000000000000000F1
:1047840000380044004000400044003800000000AD
:10479400000400040034004C00440044004C003485
:1047A400000000000000000000380044007C0040CD
:1047B4000044003800000000000C0010007C0010D1
:1047C40000100010001000100000000000000000A5
:1047D4000034004C00440044004C003400040078D1
:1047E4000040004000580064004400440044004479
:1047F4000000000000100000007000100010001005
:1048040000100010000000000010000000700010F4
:104814000010001000100010001000E000400040E4
:1048240000480050006000500048004400000000B0
:104834000070001000100010001000100010001094
:1048440000000000000000000078005400540054F0
:1048540000540054000000000000000000580064F0
:104864000044004400440044000000000000000034
:1048740000380044004400440044003800000000B4
:104884000000000000580064004400440064005824
:1048940000400040000000000034004C004400448C
:1048A400004C0034000400040000000000580064C0
:1048B40000400040004000400000000000000000F4
:1048C40000380044003000080044003800000000B4
:1048D4000020002000780020002000200020001884
:1048E40000000000000000000044004400440044B4
:1048F400004C0034000000000000000000440044AC
:10490400002800280028001000000000000000001B
:10491400005400540054006C0028002800000000DB
:10492400000000000044002800100010002800448B
:10493400000000000000000000440044002800289B
:10494400001000100010006000000000007C00084F
:10495400001000200040007C00000000001800103F
:10496400001000100020002000100010001000189B
:1049740000100010001000100010001000100010B3
:104984000010001000300010001000100008000893
:10499400001000100010003000000000000000743F
:1049A400004C0000000000000000000000000000B7
:1049B40000000000000000000000000000000000F3
:1049C40000000000000000000000000000000000E3
:1049D4000000000C000C000C000C000C000C000C7F
:1049E400000C000C000C000C0000000C000C00007B
:1049F400000000000000001B001B001B001B001B2C
:104A040000000000000000000000000000000000A2
:104A140000000000000000000000801980198019C7
:104A24008019C07FC07F80190033C07FC07F0033EE
:104A34000033003300330000000000000000001EBB
:104A4400003F807580650074003C001E00078005EF
:104A5400806580658075003F001E0004000400002E
:104A64000000007000D840D8C0D880D90073000678
:104A7400000C801BC036C066C046C0068003000020
:104A8400000000000000001E003F0033003300332C
:104A9400001E000CC03CC066806380618063C03E21
:104AA400801C0000000000000000000C000C000C42
:104AB400000C000C000000000000000000000000DA
:104AC4000000000000000000000000008000000161
:104AD4000003000600060004000C000C000C000C8F
:104AE400000C000C00040006000600030001800016
:104AF400002000100018000C000C00040006000642
:104B040000060006000600060004000C000C001855
:104B1400001000200000000C002D003F001E003398
:104B24000000000000000000000000000000000081
:104B34000000000000000000000000000000000C65
:104B4400000C000C000CC0FFC0FF000C000C000C9B
:104B5400000C000000000000000000000000000045
:104B64000000000000000000000000000000000041
:104B7400000000000000000C000C00040004000809
:104B84000000000000000000000000000000000021
:104B94000000001E001E00000000000000000000D5
:104BA4000000000000000000000000000000000001
:104BB4000000000000000000000000000000000CE5
:104BC400000C0000000000000000000300030003CC
:104BD4000006000600060006000C000C000C000C89
:104BE4000018001800180000000000000000001E5B
:104BF400003F0033806180618061806D806D8061E1
:104C0400806180610033003F001E0000000000004E
:104C140000000006000E001E0036002600060006F6
:104C24000006000600060006000600060006000056
:104C3400000000000000001E003F8073806180615E
:104C4400800100030006000C001800300060807F23
:104C5400807F0000000000000000001C003E006394
:104C640000630003000E000E0003800180018061D8
:104C74008073003F001E00000000000000000006DA
:104C8400000E000E001E001E0016003600360066E0
:104C9400807F807F00060006000600000000000000
:104CA4000000007F007F006000600060006E007FF5
:104CB40080638001800180618073003F001E0000DA
:104CC400000000000000001E003F8033806100608F
:104CD400006E007F80738061806180618033003F5B
:104CE400001E0000000000000000807F807F800123
:104CF4000003000300060006000C000C000C000872
:104D04000018001800180000000000000000001E39
:104D1400003F8063806180610021001E003F80614C
:104D2400806180618061003F001E0000000000007F
:104D34000000001E003F0073806180618061807309
:104D4400803F801D800180610073003F001E0000D1
:104D54000000000000000000000000000000000C43
:104D6400000C000000000000000000000000000C27
:104D7400000C000000000000000000000000000023
:104D840000000000000C000C000000000000000007
:104D94000000000C000C00040004000800000000E7
:104DA4000000000080008003000E0038006000381E
:104DB400000E8003800000000000000000000000DE
:104DC40000000000000000000000807F807F0000E1
:104DD4000000807F807F00000000000000000000D1
:104DE400000000000000000000000000004000700F
:104DF400001C000780010007001C00700040000038
:104E040000000000000000000000001F803FC0718F
:104E1400C060C000C00180030007000E000C000C3D
:104E24000000000C000C0000000000000000001E48
:104E3400003F803180718063806F806D806D806FF2
:104E4400806700600032003E001C0000000000008B
:104E54000000000E000E001B001B001B001B803115
:104E64008031803F803F8031C060C060C0600000FE
:104E7400000000000000007C007E0063006300630B
:104E84000063007E007E0063806180618063007F38
:104E9400007E0000000000000000001E003F803182
:104EA40080610060006000600060006000608061FC
:104EB4008031003F001E0000000000000000007C64
:104EC400007F0063806380618061806180618061B4
:104ED400806100630063007E007C0000000000002D
:104EE4000000807F807F0060006000600060007FC1
:104EF400007F0060006000600060807F807F0000B1
:104F0400000000000000807F807F0060006000607F
:104F14000060007F007F006000600060006000604F
:104F240000600000000000000000001E003F80310F
:104F340080610060006000608063806380618061E4
:104F44008031803F001E00000000000000008061EE
:104F540080618061806180618061807F807F806109
:104F640080618061806180618061000000000000D8
:104F74000000003F003F000C000C000C000C000C73
:104F8400000C000C000C000C000C003F003F000063
:104F94000000000000008001800180018001800188
:104FA4008001800180018001806180618073003F05
:104FB400001E0000000000000000C060806100636B
:104FC40000660066006C0078007C00660066006382
:104FD40080618061C060000000000000000000608B
:104FE40000600060006000600060006000600060BD
:104FF400006000600060807F807F0000000000008F
:105004000000C071C071C07BC07AC06AC06AC06E43
:10501400C064C060C060C060C060C060C0600000A8
:1050240000000000000080718071807980798079AF
:10503400806D806D806D8065806780678067806328
:1050440080630000000000000000001E003F0033E9
:105054008061806180618061806180618061806144
:105064000033003F001E0000000000000000007E2E
:10507400007F80638061806180618063007F007E47
:10508400006000600060006000600000000000003C
:105094000000001E003F00338061806180618061F8
:1050A40080618061806580670033803F401E00001E
:1050B400000000000000007E007F8063806180614A
:1050C4008063007F007E006600630063806180610E
:1050D400C0600000000000000000000E001F8031CE
:1050E400803100300038001E000780038061806139
:1050F4008031003F001E0000000000000000C0FFDF
:10510400C0FF000C000C000C000C000C000C000C88
:10511400000C000C000C000C000C0000000000004F
:105124000000806180618061806180618061806154
:1051340080618061806180618073003F001E000097
:10514400000000000000C060C060C0608031803199
:105154008031001B001B001B001B000E000E000E04
:1051640000040000000000000000C0C0C0C0C0C0B7
:10517400C0C0C0C0C0CC804C804C805E8052805285
:105184008073806180610000000000000000C0C0E6
:10519400806080610033003B001E000C000C001E88
:1051A400001F003B80718061C0C00000000000004F
:1051B4000000C0C08061806100330033001E001E07
:1051C400000C000C000C000C000C000C000C000087
:1051D400000000000000803F803F800100030003C6
:1051E4000006000C000C0018001800300060807FDE
:1051F400807F000000000000000F000F000C000C76
:10520400000C000C000C000C000C000C000C000C3A
:10521400000C000C000C000C000F000F0000001824
:1052240000180018000C000C000C000C000600060E
:105234000006000600030003000300000000000055
:10524400001E001E000600060006000600060006FA
:10525400000600060006000600060006000600061A
:10526400001E001E0000000C000C001E0012003383
:105274000033806180610000000000000000000035
:10528400000000000000000000000000000000001A
:10529400000000000000000000000000000000000A
:1052A4000000000000000000E0FF000000000038E3
:1052B4000018000C000000000000000000000000C6
:1052C40000000000000000000000000000000000DA
:1052D40000000000000000000000001F803F80610B
:1052E4008001801F803F80618063807FC038000020
:1052F4000000000000000060006000600060006EBC
:10530400007F807380618061806180618073007F31
:10531400006E00000000000000000000000000001B
:105324000000001E003F80738061006000608061A7
:105334008073003F001E0000000000000000800198
:10534400800180018001801D803F807380618061C5
:10535400806180618073803F801D00000000000038
:1053640000000000000000000000001E003F007369
:105374008061807F807F00608071003F001E00009C
:10538400000000000000C007C00F000C000C807F6C
:10539400807F000C000C000C000C000C000C000CB6
:1053A400000C0000000000000000000000000000ED
:1053B400801D803F80738061806180618061807323
:1053C400803F801D80018063007F003E00000060FC
:1053D400006000600060006F807F80718061806188
:1053E4008061806180618061806100000000000054
:1053F40000000006000600000000003E003E00061B
:10540400000600060006000600060006000600006E
:10541400000000000006000600000000003E003E00
:105424000006000600060006000600060006000648
:1054340000060046007E003C000000600060006042
:105444000060806100630066006C007C007600638D
:1054540000638061C0600000000000000000003EA6
:10546400003E0006000600060006000600060006D0
:10547400000600060006000600060000000000000A
:105484000000000000000000000080DDC0FFC0CE6E
:10549400C0CCC0CCC0CCC0CCC0CCC0CCC0CC000034
:1054A4000000000000000000000000000000006F89
:1054B400807F8071806180618061806180618061B2
:1054C40080610000000000000000000000000000F7
:1054D4000000001E003F80738061806180618061F4
:1054E4008073003F001E0000000000000000000068
:1054F40000000000006E007F807380618061806125
:1055040080618073007F006E006000600060006056
:105514000000000000000000801D803F8073806157
:105524008061806180618073803F801D8001800183
:1055340080018001000000000000000000000067FE
:10554400803F00390030003000300030003000303F
:105554000030000000000000000000000000000017
:105564000000001E803F80610060007F803F80015A
:105574008061007F001E00000000000000000000A9
:10558400000800180018007F007F00180018001899
:10559400001800180018801F800F00000000000091
:1055A4000000000000000000000080618061806154
:1055B40080618061806180618063807F803D0000C4
:1055C4000000000000000000000000000000C060B7
:1055D400803180318031001B001B001B000E000E47
:1055E40000060000000000000000000000000000B1
:1055F400000080DD80DD80DD00550055005500771A
:1056040000770022002200000000000000000000DB
:10561400000000000000806100330033001E000C15
:10562400000C001E00330033806100000000000005
:1056340000000000000000008061806180310033C0
:105644000033001B001B001B000E000E000E001C8C
:10565400007C007000000000000000000000C07F1B
:10566400C07F800100030006000C00180030C07FDA
:10567400C07F0000000000008003800700060006D1
:10568400000600060006000E001C001C000E0006AA
:1056940000060006000600068007800300060006D8
:1056A40000060006000600060006000600060006C6
:1056B40000060006000600060006000600060006B6
:1056C4000038003C000C000C000C000C000C000E18
:1056D40000070007000E000C000C000C000C000C6E
:1056E400003C003800000000000000000000000042
:1056F40000008038807F00470000000000000000A8
:105704000000000000000000000000000000000095
:105714000000000000000000000000000000000085
:105724000000000000000000000000000000000075
:10573400000000000000000000000000E003E0039F
:10574400E003E003E003E003E003E003C003C0037D
:10575400C001C001C001C001C00100000000000080
:10576400E003E003E003000000000000000000008C
:105774003C1E3C1E3C1E3C1E3C1E3C1E3C1E0000AF
:105784000000000000000000000000000000000015
:105794000000000000000000000000000000000005
:1057A40000000000CE01CE03DE039E039C039C0791
:1057B400FF3FFF7F3807380F780F780F780EFFFF11
:1057C400FFFFF01EF01CE01CE03CE03DE03900006F
:1057D4000000000000000000FC03FE0FEE1FE01EAE
:1057E400E01EE01EE01EE01FE00FE007F003FC01F6
:1057F400FE01FE01FE01FE01FE01FE01FE3DFC3F35
:10580400F00FE001E001000000000000033E07F794
:105814008FE78EE79EE3BCE3B8E7F8E7F0F7E03FF5
:10582400C001FF03FF07F307F30FF31EF33CF33844
:10583400F3787FF03FE0000000000000000000006B
:10584400E007F80F780F781F781F781F780FF00F94
:10585400E00F801FC37FC3FBE7F3F7F1F7F0FFF01E
:105864007FF03EF87F7CFF3FEF1F00000000000048
:1058740000000000E003E003E003E003E003C003F2
:10588400C001000000000000000000000000000053
:105894000000000000000000000000000000000004
:1058A40000000000000000003F007C00F001E00167
:1058B400C003C00780078007800F000F000F000F90
:1058C400000F000F000F800F80078007C007C00380
:1058D400E001F0017C003F000F000000007E001F8B
:1058E400C007C003E001F001F000F000F800780008
:1058F40078007800780078007800F800F000F00074
:10590400F001E001C003C007001F007E0078000022
:10591400E003C003C001CE39FF3F7F3F2003700383
:10592400F807780F3C1F3806000000000000000054
:105934000000000000000000000000000000000063
:105944000000000000000000000000000000000053
:10595400C001C001C001C001C001C001C001FFFFFE
:10596400FFFFC001C001C001C001C001C0010000AF
:105974000000000000000000000000000000000023
:105984000000000000000000000000000000000013
:1059940000000000000000000000E003E003E0035A
:1059A400E003E001E001E001C00180030000000029
:1059B40000000000000000000000000000000000E3
:1059C4000000FE3FFE3F0000000000000000000059
:1059D40000000000000000000000000000000000C3
:1059E40000000000000000000000000000000000B3
:1059F40000000000000000000000000000000000A3
:105A04000000E003E003E003E00300000000000006
:105A1400000000000F000F001E001E003C003C00B0
:105A240078007800F000F000E001E001C003C0035A
:105A340080078007000F000F001E001E003C003C82
:105A44000078007800F00000F007F80F7C1F3E3E5D
:105A54001E3C1F7C1F7C0F780F780F780F780F780F
:105A64000F780F781F7C1F7C1E3C3E3E7C1FF80F76
:105A7400F00700000000000000000000F000F00744
:105A8400F03FF03FF001F001F001F001F001F0010E
:105A9400F001F001F001F001F001F001F001F0017A
:105AA400F001FF3FFF3F0000000000000000000085
:105AB400E00FF83F7C3C3C003E003E003E003C00D2
:105AC4003C007C00F800F001E003C0078007000FF1
:105AD400001E003E003CFE3FFE3F000000000000B0
:105AE40000000000F00FF81F7C1C3E003E003E004A
:105AF4003C003C00F800F00FF80F7C003E001E0054
:105B04001E001E001E003E007C1CF81FE01F00004B
:105B140000000000000000007800F800F800F80120
:105B2400F803F807F807780F781E781E783C787821
:105B34007878FFFFFFFF780078007800780078001D
:105B4400780000000000000000000000FC1FFC1FA3
:105B5400FC1F001E001E001E001E001EE01FF81F7A
:105B6400FC007C003E003E001E003E003E003C0067
:105B74007C1CF81FE01F0000000000000000000073
:105B8400FC01FE078E0F001F001E003E003C003C7F
:105B9400F83DFC3F3E7F1F7E0F3C0F3C0F3C0F3C0B
:105BA4000F3E1F1E3E1FFC0FF0030000000000000C
:105BB40000000000FF3FFF3FFF3F0F001E001E00DC
