:020000040800F2
:10000000502600200D0F0008090F0008090F0008F6
:10001000090F0008090F0008090F00080000000080
:10002000000000000000000000000000090F0008B0
:10003000090F000800000000090F0008AD150008B6
:10004000090F0008090F0008090F0008090F000830
:10005000090F0008090F0008090F0008090F000820
:10006000090F0008090F0008090F0008090F000810
:10007000090F0008090F0008090F0008090F000800
:10008000090F0008090F0008090F0008090F0008F0
:10009000090F0008090F0008090F0008090F0008E0
:1000A000090F0008090F0008090F0008090F0008D0
:1000B000090F0008090F0008090F0008090F0008C0
:1000C000090F0008090F0008090F0008090F0008B0
:1000D000090F0008AD300008090F0008090F0008DB
:1000E000090F0008090F0008090F000800000000B0
:1000F0000000000000000000000000000000000000
:0C01000000000000000000005FF808F1A3
:0402000000000100F9
:1002040010B5054C237833B9044B13B10448AFF34C
:1002140000800123237010BD90080020000000001E
:100224000C01000808B5034B1BB103490348AFF3A5
:10023400008008BD00000000940800200C010008A4
:10024400F0B4860743D0541E002A3ED0CAB20346F7
:1002540002E014F1FF3438D303F8012B9D07F8D1E1
:10026400032C2BD9CDB245EA05250F2C45EA0545CB
:1002740016D9A4F110073F0903F1200606EB07166F
:1002840003F1100242E9045542E902551032B24228
:10029400F8D104F00F040137032C03EB07130DD935
:1002A4001E462246043A032A46F8045BFAD8221F63
:1002B40022F003020432134404F003042CB1C9B243
:1002C4001C4403F8011B9C42FBD1F0BC704714464C
:1002D4000346C5E7024B13B1024800F005B8704766
:1002E40000000000F9020008002301461A461846DF
:1002F40000F022B838B50A4C0A4D641BA4100AD089
:1003040004F18043013B05EB8305013C55F80439B6
:100314009847002CF9D1BDE8384004F0D7BA00BFA3
:10032400900800208C080020704700BF704700BF71
:10033400704700BF704700BF2DE9F8432B4D0646B8
:10034400286898460F469146FFF7F2FF284B1C6831
:10035400D4F84831002B3DD05A681F2A0DDC02F135
:10036400010C16BB0232C3F804C0286843F822709B
:10037400FFF7E0FF0020BDE8F8831E4B7BB34FF48A
:10038400C870AFF30080034648B30020D4F8481186
:100394004FF0010CC3E900100246C4F84831C3F819
:1003A4008801C3F88C01002EDCD0012103EB820408
:1003B400C4F88890D3F8880191400843022EC3F80A
:1003C4008801C4F80881CDD1D3F88C010143C3F866
:1003D4008C11C7E704F5A673C4F84831BCE7286854
:1003E400FFF7A8FF4FF0FF30C5E700BF300400203F
:1003F400DC4800080000000010B5204C20482368A9
:10040400984702F0BDF901F08BFF4FF400611D48DD
:1004140001F03EF823681C48984700F0F7F9236878
:1004240010B91A489847FEE71948984700F0A6F80B
:10043400FF2000F003FC732000F0C2FA202000F03B
:1004440051FB0C2000F08EFA032000F0D1FA114980
:10045400012000F0E5FA00210522012000F06EFBE6
:10046400012000F051FA022000F01EFABDE810400D
:100474004FF40061034801F009B800BF180D0020D3
:10048400E4480008000C0140044900081849000829
:1004940020490008E048000870B588B000F006FC68
:1004A400012817D00C4D6846294600F041FC0B4C3E
:1004B4000B4E307000F012FC3178236809489847DD
:1004C4002368094898476846297802F025F9236883
:1004D4000648984708B070BD140D0020180D002080
:1004E4001C0D002028490008344900084049000830
:1004F40038B504464FF40031204602F069FD002867
:10050400F8D10121204602F031FD044D2946204650
:1005140002F052FD0028F9D038BD00BF01000300ED
:10052400012102F02FBD00BF38B51546044602F084
:1005340037FD3DB9084D2946204602F03DFD00280F
:10054400F9D038BD012DFCD1044D2946204602F0D6
:1005540033FD0028F9D038BD8200070002000300F3
:1005640038B5054602F01AFD034C2146284602F030
:1005740023FD0028F9D038BD8400070038B5A24C0B
:100584004FF48051204600F083FF202001F0F6FE56
:10059400082001F0F3FE20464FF4805100F076FF6E
:1005A4004FF48051204600F073FF212001F0E6FE55
:1005B4003F2001F0E3FE20464FF4805100F066FF37
:1005C4004FF48051204600F063FF222001F0D6FE54
:1005D400032001F0D3FE20464FF4805100F056FF73
:1005E4004FF48051204600F053FF232001F0C6FE53
:1005F400032001F0C3FE20464FF4805100F046FF73
:100604004FF48051204600F043FF242001F0B6FE51
:10061400032001F0B3FE20464FF4805100F036FF72
:100624004FF48051204600F033FF252001F0A6FE50
:10063400022001F0A3FE20464FF4805100F026FF73
:100644004FF48051204600F023FF262001F096FE4F
:100654000E2001F093FE20464FF4805100F016FF67
:100664004FF48051204600F013FF272001F086FE4E
:10067400002001F083FE20464FF4805100F006FF75
:100684004FF48051204600F003FF312001F076FE44
:10069400002001F073FE20464FF4805100F0F6FE76
:1006A4004FF48051204600F0F3FE322001F066FE44
:1006B400002001F063FE20464FF4805100F0E6FE76
:1006C4004FF48051204600F0E3FE332001F056FE43
:1006D400002001F053FE20464FF4805100F0D6FE76
:1006E4004FF48051204600F0D3FE342001F046FE42
:1006F400002001F043FE20464FF4805100F0C6FE76
:100704004FF48051204600F0C3FE352001F036FE40
:10071400002001F033FE20464FF4805100F0B6FE75
:100724004FF48051204600F0B3FE362001F026FE3F
:10073400002001F023FE20464FF4805100F0A6FE75
:100744004FF48051204600F0A3FE3C2001F016FE39
:10075400002001F013FE20464FF4805100F096FE75
:100764004FF48051204600F093FE3D2001F006FE38
:10077400002001F003FE20464FF4805100F086FE75
:1007840020464FF4805100F083FEE22001F0F6FD94
:1007940020464FF4805100F079FE20464FF48051FA
:1007A40000F076FEE12001F0E9FD20464FF480518F
:1007B40000F06CFE4FF48051204600F069FE0720E3
:1007C40001F0DCFDFF2001F0D9FD05464FF4805116
:1007D400204600F05BFE4FF48051204600F058FEA6
:1007E400272001F0CBFD45F07000C0B201F0C6FD3A
:1007F40020464FF4805100F049FE2046BDE83840C1
:100804004FF4805100F042BE000C014030B54FF46B
:10081400805183B0224800F03BFE302001F0AEFD51
:10082400204C651D14F8010B01F0A8FDAC42F9D170
:100834004FF480511A4800F029FE4FF480511848B3
:1008440000F026FE102001F099FD6C460DF105051F
:10085400FF2001F093FD04F8010BAC42F8D14FF4F2
:1008640080510F4800F012FE9DF800306E2B14D119
:100874009DF80130522B10D19DF80230462B0CD13B
:100884009DF80330322B08D19DF80400A0F1340008
:10089400B0FA80F0400903B030BD002003B030BD91
:1008A400000C01405449000838B54FF48051054606
:1008B400144800F0EDFD002001F060FDFF2001F080
:1008C4005DFD04464FF480510E4800F0DFFD022D1B
:1008D40008BF44F002044FF480510A480CBFE4B24C
:1008E40004F0FD0400F0D4FD202001F047FD204673
:1008F40001F044FDBDE838404FF48051014800F058
:10090400C5BD00BF000C014070B5154D4FF48051BA
:100914000446284600F0BCFD002001F02FFDFF2016
:1009240001F02CFD06464FF48051284626F00106BE
:1009340004F0010400F0AAFD34434FF4805128462A
:1009440000F0A6FD64B2202001F018FDE0B201F031
:1009540015FD2846BDE870404FF4805100F096BD67
:10096400000C014070B5154D4FF4805104462846E3
:1009740000F08EFD002001F001FDFF2001F0FEFCDF
:1009840006464FF48051284626F00C0604F00C0469
:1009940000F07CFD34434FF48051284600F078FD8C
:1009A40064B2202001F0EAFCE0B201F0E7FC284642
:1009B400BDE870404FF4805100F068BD000C014068
:1009C40038B50546094C4FF48051204600F060FDCF
:1009D400252001F0D3FC284601F0D0FC2046BDE8D8
:1009E40038404FF4805100F051BD00BF000C01406D
:1009F40038B50446094D4FF48051284600F048FDAF
:100A0400232001F0BBFCA01EC0B201F0B7FC2846B5
:100A1400BDE838404FF4805100F038BD000C01406F
:100A240006280BD80123834013F0430F70B50C46FE
:100A3400054604D113F03C0F2FD170BD70474FF41D
:100A44008051264800F024FD032001F097FCFF208C
:100A540001F094FC4FF480510646204800F016FD46
:100A64004FF480511D4800F013FD1D4B0136585DB5
:100A7400F6B240F0200001F081FC3444A61B01349E
:100A840014F8010D01F07AFCB442F9D1BDE87040CC
:100A94004FF48051114800F0F9BC114B4FF48051D0
:100AA4001D5C0E48247800F0F3FC1F2D0DD9284658
:100AB40001F064FC05F11F03DBB2022BE6D9FF2D24
:100AC400E4D0204601F05AFCE0E745F0200001F0B4
:100AD40055FC204601F052FCD8E700BF000C014051
:100AE4004449000870B5144D4FF480510646284619
:100AF40000F0CEFC062001F041FCFF2001F03EFC9A
:100B040004464FF48051284600F0C0FC04F0D7049A
:100B14004FF48051284600F0BBFC3443262001F0FA
:100B24002DFC204601F02AFC2846BDE870404FF415
:100B3400805100F0ABBC00BF000C01402DE9F04136
:100B440007460E463B484FF48051904600F0A0FC07
:100B5400022001F013FCFF2001F010FC01240546E3
:100B64004FF48051334800F091FCBC404FF4805165
:100B7400304800F08DFC64B2222001F0FFFB44EA0F
:100B8400050000F03F0001F0F9FB4FF480512948C3
:100B940000F07CFC284B4FF480513B441D7A2548DF
:100BA40000F076FC1F2D08F03F083AD9284601F0E2
:100BB400E5FB05F11F03DBB2022B04D9FF2D02D0A4
:100BC400404601F0DBFB4FF480511A4800F05EFC14
:100BD4004FF48051174800F05BFC012001F0CEFB7C
:100BE400FF2001F0CBFB05464FF48051114800F083
:100BF4004DFC012E0CBF2C4325EA04044FF4805114
:100C04000C4800F045FCE4B2212001F0B7FB20467B
:100C140001F0B4FBBDE8F0414FF48051054800F009
:100C240035BC45F0200001F0A9FB404601F0A6FBCD
:100C3400C9E700BF000C014044490008052838B545
:100C440027D84FF480510446174800F021FC0120B6
:100C540001F094FBFF2001F091FB4FF48051054615
:100C6400114800F013FC4FF480510F4800F010FCC1
:100C7400212001F083FB0120A04025EA0000C0B23E
:100C840001F07CFBBDE838404FF48051064800F089
:100C9400FDBB4FF48051044800F0FAFB212001F021
:100CA4006DFB0020ECE700BF000C014038B50A4C96
:100CB4004FF48051204600F0EBFB172001F05EFB5F
:100CC400FF2001F05BFB05464FF48051204600F005
:100CD400DDFB05F0030038BD000C014038B5134CB2
:100CE4004FF48051204600F0D3FB072001F046FB6F
:100CF400FF2001F043FB05464FF48051204600F0ED
:100D0400C5FB4FF48051204600F0C2FB272001F0C0
:100D140035FB45F07000C0B201F030FB2046BDE861
:100D240038404FF4805100F0B1BB00BF000C0140CB
:100D3400F8B505460F4626484FF4805100F0A8FB4D
:100D4400072001F01BFBFF2001F018FB4FF480513A
:100D5400C0F342041E4800F099FB052C18D81D4B23
:100D64004FF4805123441E7A194800F091FB06F099
:100D74001F0001F003FBFF2001F000FB06464FF4C7
:100D84008051134800F082FB3E7036B92046F8BD0E
:100D94000023FF243B702046F8BD4FF480510C48DB
:100DA40000F076FB612001F0E9FA013EF6B201366B
:100DB4002E44FF2001F0E2FA05F8010BAE42F8D10F
:100DC4004FF48051024800F061FB2046F8BD00BF9B
:100DD400000C01404449000830B400244FF41F05BE
:100DE4003A4B3B49186882B040F0010018605868DB
:100DF4001A4601405960196821F0847121F4803148
:100E04001960196821F480211960596821F4FE01E0
:100E140059609D6000940194196841F4803119600F
:100E240003E0009BB3F5A06F09D0136803F400330B
:100E34000193009B01330093019B002BF1D0234BC2
:100E44001B6813F4003318BF01230193019B012B8A
:100E540006D04FF000621F4B9A6002B030BC70475E
:100E64001D491A4B08681A4640F0100008600868CB
:100E740020F003000860086840F002000860596828
:100E8400596059685960596841F4806159605968DA
:100E940021F47C115960596841F4E81159601968CA
:100EA40041F08071196013689B01FCD553680749B0
:100EB40023F003035360536843F0020353604B6809
:100EC40003F00C03082BFAD1C3E700BF0010024063
:100ED4000000FFF800ED00E00020024010B51422ED
:100EE4000323012482B001A90548ADF804408DF81C
:100EF40007208DF8063000F03DF902B010BD00BFA8
:100F040000080140FEE700BF08B50D480D4B9842AC
:100F140007D2C2431A4422F0030204320A4902F0FF
:100F240067FC0A480A494FF000028842B8BF40F8FB
:100F3400042BFADBFFF750FFBDE8084000F0A8BB24
:100F4400000000209008002028730008900800206A
:100F54005012002070B4084B1C785CB100231E466C
:100F6400064D05EB431201339068D9B2A14250619A
:100F74009660F6D370BC7047200D0020240D00202D
:100F84002DE9F041114D12482B68124E98472B68F9
:100F94001148984734787CB10024DFF84C800F4F17
:100FA40008EB44122B6821465269384698470134AD
:100FB4003378E4B2A342F3D82B68094898472B68E6
:100FC4002146BDE8F0410748184700BF180D00202E
:100FD4005C490008200D002064490008704900089D
:100FE4008049000888490008240D002008B54FF402
:100FF400806200210348FFF723F90022024B1A7094
:1010040008BD00BF240D0020200D0020F0B4104DB9
:101014002B781F2B15D8B8B1B2FA82F20D4F5E01AE
:10102400BC19E061B951217E52096FF300012176A8
:101034002179013362F300012B7021710020F0BC8F
:101044007047FF20F0BC7047FE20F0BC704700BF23
:10105400200D0020240D0020F0B4144E34781F2CF1
:101064001DD8F8B10025B2FA82F2DFF848C0670152
:101074000CEB0703D861D9600D49520909680134A2
:101084001961197E284641F0010119764CF8075080
:101094001979347062F300011971F0BC7047FF20B4
:1010A400F0BC7047FE20F0BC704700BF200D00204C
:1010B400AC080020240D0020F0B51C4C1C4D85B05C
:1010C40023681C48984723682846984723681A4889
:1010D40098471A481A4F427881780378C678194895
:1010E4000096CDE9010726681748B04723681748DA
:1010F4009847174A23681188164898471648174B8B
:101104000068174A17491B681288098826680090E6
:101114001548B047154A236811681548984728466A
:10112400236805B0BDE8F040184700BF180D002043
:1011340080490008F4490008FC490008000200083E
:10114400344A0008404A0008104A00085C49000874
:10115400E0F7FF1FA4490008F0F7FF1FECF7FF1F9B
:10116400EAF7FF1FE8F7FF1FBC490008440400200A
:10117400DC49000830B4CC78E30648BF8B7804F02F
:101184000F0548BF1D430B8813F0FF0F33D0482CC5
:10119400026800F0F480282C00F03381D90744BFA2
:1011A40022F00F022A43990744BF22F0F00242EAD8
:1011B4000512590744BF22F4706242EA0522190756
:1011C40044BF22F4704242EA0532D90644BF22F4F5
:1011D400702242EA0542990644BF22F4700242EAB0
:1011E4000552590644BF22F0706242EA05621906AC
:1011F40000F104810260FF2B4BD9282C42684AD0AD
:10120400482C40F08E80D90505D54FF4807122F02A
:101214000F022A4301619C0506D54FF4007122F0A8
:10122400F00242EA05120161590506D54FF48061C6
:1012340022F4706242EA052201611C0506D54FF4CE
:10124400006122F4704242EA05320161D90406D5F4
:101254004FF4805122F4702242EA054201619C0459
:1012640006D54FF4005122F4700242EA055201619E
:10127400590406D54FF4804122F0706242EA0562B7
:1012840001611C0404D54FF4004365F31F7203612C
:10129400426030BC7047D90505D54FF4807122F007
:1012A4000F022A4341619C0506D54FF4007122F0D8
:1012B400F00242EA05124161590506D54FF48061F6
:1012C40022F4706242EA052241611C0506D54FF4FE
:1012D400006122F4704242EA05324161D90406D524
:1012E4004FF4805122F4702242EA054241619C0489
:1012F40006D54FF4005122F4700242EA05524161CE
:10130400590406D54FF4804122F0706242EA056226
:1013140041611B04BCD54FF4004365F31F72436164
:10132400B6E7D90544BF22F00F022A439C0544BF07
:1013340022F0F00242EA0512590544BF22F4706219
:1013440042EA05221C0544BF22F4704242EA0532F7
:10135400D90444BF22F4702242EA05429C0444BFEB
:1013640022F4700242EA0552590444BF22F070622A
:1013740042EA05621C048BD565F31F7288E7D9071E
:1013840004D5012122F00F022A430161990705D5F2
:10139400022122F0F00242EA05120161590705D543
:1013A400042122F4706242EA05220161190705D57D
:1013B400082122F4704242EA05320161D90605D5BA
:1013C400102122F4702242EA05420161990605D5F2
:1013D400202122F4700242EA05520161590605D522
:1013E400402122F0706242EA0562016119067FF52C
:1013F40001AF802165F31F720161FBE665F31F7283
:10140400F8E6D90704D5012122F00F022A434161ED
:10141400990705D5022122F0F00242EA0512416142
:10142400590705D5042122F4706242EA052241617C
:10143400190705D5082122F4704242EA05324161B8
:10144400D90605D5102122F4702242EA05424161F1
:10145400990605D5202122F4700242EA0552416121
:10146400590605D5402122F0706242EA05624161C5
:1014740019067FF5BFAE802165F31F724161B9E69D
:101484008368194214BF012000207047016170472E
:10149400416170470028194B00F44012B4BFDB6966
:1014A4005B68B2F5401F30B484B21ED0C20213D5BB
:1014B4000322C0F30345AA4023EA020343F0706306
:1014C40019B1420D1201944023430C4A0028B4BFC1
:1014D400D361536030BC7047420D120104FA02F22A
:1014E40023EA020343F07063EAE7044D23F07063D8
:1014F4006A6822F070626A60E2E700BF000001409F
:1015040008B5002001F00EFB0021022001F06EFC62
:101514000E4A012306CA0E4801F044FB1A21022098
:1015240001F064FC0B4A012306CA0B4801F03AFBA4
:101534002C21022001F05AFC084A012306CA08485B
:1015440001F030FBBDE8084001F0F8BA5C0400206B
:101554004C4A000864040020584A00086C04002027
:10156400644A000830B5002487B00B4B01A81C6006
:10157400F02500F077FE0721029B0848084AA0FBEB
:10158400030308489B0C013B536080F8235094608C
:10159400116007B030BD00BFAC08002083DE1B43E0
:1015A40010E000E000ED00E0024A1368013313602C
:1015B400704700BFAC08002080B485B000AF7860ED
:1015C400084B1B68FB60074B1B68FA689B1A7A6818
:1015D4009A4200D9F7E700BF00BF1437BD4680BC6C
:1015E400704700BFAC08002010B5FFF7FFFC1E4C8D
:1015F40001221E491E48FFF709FD01221D491E480C
:10160400FFF72AFD214601221C48FFF725FD21464C
:1016140001221B48FFF720FD214600221948FFF74D
:101624001BFD214600221848FFF716FD01224FF446
:101634007A711648FFF710FDFFF794FF4FF461200D
:1016440001F024F8FFF738FD0121042000F050FEDA
:10165400FFF744FC01F06AFDFEF7CEFE01F006F947
:10166400BDE81040FFF74CBF40420F004412002079
:101674004927000820A1070025320008413200084C
:1016840045320008850F0008590F00089D04000822
:1016940001212DE98848084600F02AFE0121254849
:1016A400FFF7F8FEFFF7A0FFDFF88C80DFF88C90DF
:1016B400DFF88CA098F80020002AFBD0002417E063
:1016C40059F805301B787BB1DAF800B0F369984714
:1016D400DAF80030B268A3EB0B031344B36059F893
:1016E40005301F7098F800200134E4B29442E1D22E
:1016F400650109EB05067368DB07F5D4B76917F0D4
:101704000107DDD0DAF800303069F1681B1A8B422A
:10171400EAD3DAF80050F3699847DAF80030B2688F
:101724005B1B1344B360DAF8003098F8002033618F
:10173400DAE700BF00023000200D0020240D002055
:10174400AC080020092B2DE9F84317461C4602F18A
:10175400FF36054614D8002E10DD3246FEF770FD24
:10176400384635441E4BA3FB0423DB0803EB8303F9
:10177400A4EB430330332B70BDE8F8830120F1E779
:10178400174BA2F10209A3FB04384FEAD808B8F1B9
:10179400090F18D8B9F1000F11DD4A46FEF750FDC4
:1017A4003846A9440E4B3544A3FB0823DB0803EB5E
:1017B4008303A8EB4303303389F80030D2E7814632
:1017C40001260220EEE7074B4A46A3FB04635B09AC
:1017D400FFF7B8FF05EB0009461C0230E2E700BF43
:1017E400CDCCCCCC1F85EB512DE9F84F002B1746FF
:1017F40004460D46C0F2EE80092B1E4600F3CC8051
:10180400013A002A40F33681614201F00701002ABF
:1018140001F10700CCBF90464FF001080C2838BFF7
:101824000C2002F1FF3E002ACCBF77460027B842C5
:1018340000F22281002900F01A812046012900F8D3
:10184400015B26D00229657004F10200A2F1020EA8
:101854001FD00329A57004F10300A2F1030E18D0D0
:101864000429E57004F10400A2F1040E11D0052945
:10187400257104F10500A2F1050E0AD0072965714E
:1018840004F10600A2F1060E03D1A571E01DA2F138
:10189400070E4FF00009CA46CC4665F3070A65F304
:1018A400070965F30F2A65F30F29A8EB010865F30F
:1018B400174A65F31749214465F31F6A65F31F69E5
:1018C4004FEAD80B471C3C460CF1010CDC45C1E93E
:1018D400009A04F1070401F1080107F10807F2D3A3
:1018E40028F00707474500EB0701AEEB070043D09C
:1018F4000C46012804F8015B3ED002284D7001F12A
:10190400020439D003288D7001F1030434D0042873
:10191400CD7001F104042FD005280D7101F10504E7
:101924002AD006284D7101F1060425D007288D71AF
:1019340001F1070420D00828CD7101F108041BD05F
:1019440009280D7201F1090416D00A284D7201F11B
:101954000A0411D00B288D7201F10B040CD00C2851
:10196400CD7201F10C0407D00D2801F10D040D73A3
:101974001CBF4D7301F10E04002B02F1010051DB79
:10198400414BA3FB0623DB0803EB8303A6EB4303D2
:1019940030332370BDE8F88F3B4DA2F10208A5FB5C
:1019A4000635ED08092D42D8B8F1000F5BDD42463B
:1019B400FEF746FC3846A0447A1E334B1444A3FB7E
:1019C4000513DB0803EB8303A5EB4303303388F8EB
:1019D4000030D5E713F1090FC3F10006A2F10202AA
:1019E4001BDA294DA5FB0635ED08092D2BD9274B0C
:1019F400A3FB06735B095B42FFF7F6FE2118421C4A
:101A04000230214B1444A3FB0573DB0803EB83036F
:101A1400A5EB430330330B70B2E7002A3FF7F4AE73
:101A2400022000E0901C2D2304F8013BA8E7174B8B
:101A34004246A3FB06735B09FFF7D6FE04EB0008DE
:101A4400421C0230B9E7A7F10308B8F1000F16DD14
:101A54004246FEF7F5FB384604EB08017A1E2D23B7
:101A640001F8013BCDE7804601220220A5E7964616
:101A740020460EE7012083E72146104638E7014659
:101A840002220320EBE700BFCDCCCCCC1F85EB5169
:101A94002DE9F04782B00A9C92465FEA141802F1DD
:101AA400FF3605461F461BD1002E2FDD3246FEF7BA
:101AB400C7FB5046354404F00F04092CE3B20AD99D
:101AC40027B957332B7002B0BDE8F08737332B703A
:101AD40002B0BDE8F08730332B7002B0BDE8F08768
:101AE400A2F10209220A19D1B9F1000F1EDD4A46FA
:101AF400FEF7A6FB504605EB090208F00F03092B7D
:101B0400D9B205D93FB957311170D3E70120D2E7D3
:101B140030311170CEE737311170CBE700924A466D
:101B2400FFF7B6FF2A18461C0230E6E702460126F4
:101B34000220E2E72DE9F04F8A4689B0834608B1D6
:101B44000021017000241178254669B1A24553D9BA
:101B5400252911D08BF800100132117801340BF1D2
:101B6400010B25460029F1D1A24545D98BF8001077
:101B7400204609B0BDE8F08F5078252806D18BF8AF
:101B84000000023201340BF1010BDCE730283BD0BA
:101B94002021561CA0F13002092A4FF000020DD872
:101BA40002EB820200EB420216F8010F303AA0F178
:101BB4003005092D02F0FF02F2D91519AA4538BFE4
:101BC400AAEB0405A0F1580038BFEAB2202800F2BD
:101BD400D080DFE800F042CECECECECECECECECE7A
:101BE400CE6167CECECECE67CECECECECECECECE4C
:101BF400CE96CEA9CECE1D00013C002320460BF884
:101C0400013C09B0BDE8F08F961C90783021C1E703
:101C1400D3F800801F1D5FEA1813154602F1FF393F
:101C2400029340F0F981B9F1000F40F318824A465B
:101C34005846FEF705FB29460BEB090308F00F088D
:101C4400B8F1090F5FFA88F240F2968057321A70A1
:101C54003B468B442C44721C75E7D3F800801F1D4F
:101C64005FEA1813154602F1FF39029340F0B08180
:101C7400B9F1000F40F3EF814A465846FEF7E0FA07
:101C840029460BEB090308F00F08B8F1090F5FFAB6
:101C940088F271D93732DAE71A6801340BF8012B6C
:101CA4000433D8E7D3F800900433B9F1000F154694
:101CB40002F1FF38039361DB4F46092F72D9D44AEE
:101CC400AB1EA2FB09294FEAD909B9F1090F00F2A9
:101CD4006F81002B40F3F7811A4658460293FEF7B2
:101CE400AFFA4046AC46029B5B44C949A1FB0921BB
:101CF400C90801EB8101A9EB410101F130021A701D
:101D04004DE018681F1D0278002A00F05F815946D3
:101D140001F8012B10F8012FA1EB0B05002AF7D1D4
:101D24002C448B463B4696E7D3F800801546B8F121
:101D3400090F02F1FF3903F1040700F29881B9F1A8
:101D4400000F40F390814A465846FEF779FA2A4636
:101D5400D944AF4B9344A3FB0823DB0803EB830371
:101D6400A8EB430303F130082C443B4689F8008078
:101D740071E74FF0FF34FBE6303268E719F1090FE1
:101D8400C9F1000780F20281A14B4246A3FB07037D
:101D9400DB085B425846FFF727FD451CAC460BEBBE
:101DA4000002E5E0B8F1000F40F38281CBF10002BC
:101DB40002F00702B8F1000F02F10700CCBF43465E
:101DC40001230C2808F1FF3538BF0C20B8F1000FAF
:101DD4000495D8BF0025A84200F27281002A00F0C1
:101DE4006A815846012A00F8011B029039D00BF190
:101DF40002000290022AA8F102008BF8011004905C
:101E04002FD00BF103000290032AA8F103008BF8F2
:101E14000210049025D00BF104000290042AA8F1CA
:101E240004008BF8031004901BD00BF10500029002
:101E3400052AA8F105008BF80410049011D00BF1C9
:101E440006000290072AA8F106008BF805100490FA
:101E540007D10BF107000290A8F107008BF80610D8
:101E640004904FF0000CE64661F3070E61F30F2E69
:101E74009B1A61F3174E61F31F6E0593DB080696F8
:101E84001E467346A6461C46654661F3070C61F37D
:101E94000F2C61F3174C61F31F6CCDF81CC0029832
:101EA4008C4607995A44013003460135AE42C2E9D3
:101EB400001403F1070302F1080200F10800F3D84B
:101EC400059861461A4620F0070C029B049D604564
:101ED400069E74466344A5EB0C0543D01A46012DB7
:101EE40002F8011B3ED0022D597003F1020239D0D1
:101EF400032D997003F1030234D0042DD97003F13A
:101F040004022FD0052D197103F105022AD0062DE4
:101F1400597103F1060225D0072D997103F10702C7
:101F240020D0082DD97103F108021BD0092D197294
:101F340003F1090216D00A2D597203F10A0211D0D5
:101F44000B2D997203F10B020CD00C2DD97203F1F5
:101F54000C0207D00D2D03F10D0219731CBF597328
:101F640003F10E02B9F1000F08F101051CDBAC46C8
:101F7400274BE344A3FB0713DB0803EB8303A7EB23
:101F8400430730372C44039B177064E6A2F1020820
:101F9400B8F1000F3FF70AAF4FF0020C5A466546FE
:101FA4002D2302F8013BE3E708F10205AC46F7E70D
:101FB400184AA2FB07201A4643095846FFF714FCA7
:101FC400851C0BEB0003AC4601308EE63B4642E633
:101FD400931E5FEA182240F08180002B79DD1A46B7
:101FE40058460393FEF72CF94A462946039B0BEB0C
:101FF400030C029B03F00F095FFA89F3B9F1090F8F
:1020040094BF303337338CF800300BEB02033AE6DD
:10201400CDCCCCCC1F85EB51931E5FEA18226ED138
:10202400002B67DD1A4658460393FEF709F94A4622
:102034002946039B0BEB030C029B03F00F095FFA89
:1020440089F3B9F1090F94BF303357338CF800305A
:102054000BEB0203F2E501215B460D4613E6012179
:102064005B460D46EAE50122D946154671E65A4813
:10207400931EA0FB08C0C0080928029051D8002B69
:1020840049DD1A4658460393FEF7DAF82A46039BBD
:1020940002980BEB0301DFF840C1D944ACFB00C349
:1020A400DB0803EB8303A0EB430330330B7050E6F0
:1020B4005A4601255BE7CDF81080CDF808B0D0E68C
:1020C40045465B460AE74FF0020C5B466546012035
:1020D4000BE60221DC460D4601228AE700925846AF
:1020E4001A460123FFF7D4FC851C29460BEB000C90
:1020F400421C7EE70221DC460D4601229CE7009249
:1021040058461A460023FFF7C3FC851C29460BEBEF
:10211400000C421C90E70222594615464FF0010973
:10212400B9E72E48A0FB08C040090490D01E0390D4
:10213400049809281CD80398002838DD024658461C
:102144000593FEF77DF8059B1946039B5B441A46ED
:102154000498DFF884C05944ACFB00C3DB0803EBEC
:102164008303A0EB43033033137002982A4692E7AB
:102174004FF47A79B8FBF9F9B9F1090FA2F1040522
:102184001ED8002D19DD2A465846FEF759F80BEBE8
:1021940005010A22B9FBF2F302FB13936A1C3033E4
:1021A4000B7005F10309A91C5A440435D0E75A46BB
:1021B40003254FF002090121CAE759460025E8E743
:1021C40042F210732A46B8FBF3F35846FFF7BAFA03
:1021D40005460BEB0001DCE7CDCCCCCC1F85EB51E5
:1021E4000FB4F0B51D4DA5B002AC0FCD0FC40FCD8B
:1021F4000FC42AAE1A4F56F8042B29683D6833469B
:1022040021600BA864210196AE68FFF793FC632854
:1022140016DC9DF82C3018466BB10BACC4F10105EB
:1022240003E0601914F8013F2BB11846314601F060
:10223400B3FA431CF5D125B0BDE8F04004B07047B3
:102244003B6802AC7320DD6802E014F8010F20B192
:10225400294601F0A1FA0130F7D1FEE7904A0008BF
:10226400000000201E4A10B4536803F00C03082B2E
:102274000FD153685168C3F38343C90303F10203C5
:1022840028D55268920325D4164A02FB03F303604F
:1022940001E0144B03601249134A4C68C4F303145D
:1022A400145DE34043604C68C4F30224145D23FAD4
:1022B40004F484604C68C4F3C224145DE340C36036
:1022C400496810BCC1F381310A44127CB3FBF2F3B8
:1022D40003617047054A02FB03F30360DBE700BFB9
:1022E4000010024000127A004804002000093D005A
:1022F400044A936919B923EA0000906170471843AE
:102304009061704700100240044AD36919B923EA66
:102314000000D06170471843D0617047001002403C
:10232400F0B54FF4805702204FF0100C4FF40066C4
:10233400104A83B09369104C43F0080302AD9361D3
:1023440025F8047D29468DF8060020468DF807C03F
:10235400FEF710FF39462046FFF798F82946204635
:10236400ADF80460FEF706FF31462046FFF790F80B
:1023740003B0F0BD00100240000C014010B504464B
:1023840002210A4800F078FD0028F9D021460748C8
:1023940000F060FD0121054800F06EFD0028F9D031
:1023A400024800F059FDC0B210BD00BF0038004023
:1023B40030B50D460446038ACA889BB223F44053C1
:1023C40013438A8903828089234B8988034028899F
:1023D4000B43698903430B43A381A38A87B09BB250
:1023E40023F44073134301A8A382FFF73BFFDDE905
:1023F40003311A482A68844208BF0B46A18903EBBB
:10240400830309044CBF5200920003EB8303B3FB24
:10241400F2F364221248A589A0FB03C1490902FB17
:1024240011332A044FEA01110AD41B013233A0FBF1
:102434000323C3F343130B439BB2238107B030BD83
:10244400DA003232A0FB0232C2F3421242EA010342
:102454009BB2238107B030BDF3E9FFFF0038014090
:102464001F85EB51838929B923F400531B041B0CEA
:102474008381704743F4005383817047012310B470
:1024840001F01F04C1F34211012903FA04F30FD030
:1024940002290CBF103014302AB9026810BC22EA99
:1024A400030303607047026810BC13430360704762
:1024B4000C30F1E7044A05491368002B08BF0B46AA
:1024C4001844106018467047B008002050120020CD
:1024D4004FF0FF30704700BF4FF4005300204B60B3
:1024E400704700BF012070470020704710467047B6
:1024F40010B514460846114600F0EEF8204610BD0B
:1025040030B5012187B04FF40010FFF7FDFE002124
:102514004FF48045114C124A124B2046049102A9F3
:10252400CDE90223ADF8145000F0ACFC20460121A3
:1025340000F010FD01210820FFF7DAFEC0241C2260
:10254400022301A90848ADF804408DF807208DF84E
:102554000630FEF70FFE07B030BD00BF0054004048
:10256400A08601000000FFBF000C0140F8B50F4633
:1025740006461D461446FDF7BBFF790001F0FE0137
:1025840030460022FDF7D0FF3DB1254414F8011B6D
:102594003046FDF7E5FFA542F8D13046BDE8F840E6
:1025A400FDF7BEBF38B504460D460020FFF704F81A
:1025B40029462046FEF76CFF4FF4F070FEF7FCFF4F
:1025C40029462046FEF762FF4620FEF7F5FF29461E
:1025D4002046FEF755FF04464FF4CD70FEF7ECFF9E
:1025E400204638BDF8B507460E46154608240FE0C8
:1025F400FEF74EFF3C20FEF7DFFF31463846FEF77C
:1026040045FF0A20FEF7D8FF013C4FEA650513D0C9
:10261400EB0731463846EBD5FEF73AFF0620FEF7C6
:10262400CBFF31463846FEF731FF4020FEF7C4FFAA
:10263400013C4FEA6505EBD1F8BD00BF2DE9F0413F
:1026440007460E460825002431463846FEF720FF8B
:102654000620FEF7B1FF31463846FEF717FF092082
:10266400FEF7AAFF31463846FEF70AFF80463720B8
:102674006410FEF7A1FFB8F1000F01D044F080040C
:10268400013DE1D12046BDE8F08100BF70B50D4C9D
:1026940006464FF4867200212046FDF7D1FD002343
:1026A4000125094A09491360304653609360D36099
:1026B400136125720B7000F0A7FC054B054A1A60E4
:1026C40070BD00BF381100202411002044120020E6
:1026D400180D0020E5210008002917DD70B400263C
:1026E4000B4A0C4C0144136810F8015BDBB2134431
:1026F4005D721368814203F1010313601672A389AA
:1027040043F08003A381EED170BC7047704700BFD3
:10271400381100200038014079B1F8B504464D1E47
:10272400ADB20135054F064E054414F8011B3B6854
:1027340030469847A542F8D1F8BD7047180D0020DF
:10274400C8720008094B1A7A3F2A04D0084A09487B
:102754001268197A104710B5054C07482368984742
:1027640023680648BDE81040184700BF2411002024
:10277400180D0020F472000880490008D072000887
:1027840070B5012186B04FF48040FFF7BDFD0121F3
:102794000820FFF7ADFD4FF480611022022306AC40
:1027A4001A4D24F8181D214628468DF803208DF86B
:1027B40002301826FEF7DEFC03224FF46043214664
:1027C40028468DF80220ADF800308DF80360FEF73E
:1027D400D1FC072000234FF000724FF082750C4C9F
:1027E40001A9ADF814002046CDE90153CDE9032336
:1027F40000F004FB20464FF4807100F02FFB2046CC
:10280400012100F01BFB06B070BD00BF000C0140AD
:1028140000380040F0B401240178C37801F01F02AD
:1028240094404E092BB90F4B203643F82640F0BC98
:1028340070470D4B4778DD688278E8430F23C0F377
:102844000220C0F10405C34007FA05F513402B43E9
:10285400044A1B01DBB2114481F8003342F82640DC
:10286400F0BC704700E100E000ED00E02DE9F0432A
:1028740083B0FFF745FEA848FEF79EFE4FF42E43B3
:102884004FF400564FF480574FF4304502AC24F80F
:10289400043D224602237821A048FFF767FE224622
:1028A400022378219D48ADF80460FFF75FFE2246BD
:1028B400022378219948ADF80470FFF757FE2246A9
:1028C400022378219548ADF80450FFF74FFE4FF4EA
:1028D400484C00252246022378219048ADF804C0D4
:1028E400FFF744FE2246022378218C48ADF80450B9
:1028F400FFF73CFEADF804704FF4804722460223F4
:1029040078218648FFF732FEADF804704FF4014792
:102914002246022378218148FFF728FEADF804708F
:102924004FF47F472246022378217C48FFF71EFE9E
:10293400ADF804704FF421472246022378217748EA
:10294400FFF714FEADF804704FF426472246022325
:1029540078217248FFF70AFEADF804704FF4284757
:102964002246022378216D48FFF700FEADF804707B
:102974004FF47C572246022378216848FFF7F6FD7E
:10298400ADF804704FF424472246022378216348AB
:10299400FFF7ECFDADF804704FF4534722460223D1
:1029A40078215E48FFF7E2FDADF804704FF4554717
:1029B4002246022378215948FFF7D8FD22460223F4
:1029C40078215648ADF80450FFF7D0FDADF80470F7
:1029D4004FF470472246022378215048FFF7C6FD82
:1029E400ADF804704FF459472246022378214B482E
:1029F400FFF7BCFDADF804704FF4085722460223DC
:102A040078214648FFF7B2FDADF804704FF45A47F9
:102A14002246022378214148FFF7A8FDADF804704F
:102A24004FF490572246022378213C48FFF79EFD3D
:102A3400ADF804704FF45B472246022378213748EF
:102A4400FFF794FD2246022378213448ADF8047040
:102A5400FFF78CFDADF804604FF40D4622460223C7
:102A640078212E48FFF782FDADF804604FF4A0569C
:102A74002246022378212948FFF778FDADF8046047
:102A84004FF42F462246022378212448DFF8909001
:102A9400FFF76CFD2246022378212048ADF804603C
:102AA400FFF764FD29464FF480624846FDF7C8FBF2
:102AB400C846B025194E0027022322467821304605
:102AC4008DF805508DF80470FFF750FD022322465F
:102AD40078213046ADF80470FFF748FD4FF4805C70
:102AE40002232246782130460135ADF804C0EDB208
:102AF400FFF73CFD4246802378213046FFF736FD40
:102B0400B82D08F18008D6D10123C9F8007489F8DA
:102B1400053403B0BDE8F083A086010000540040F2
:102B2400B4080020002814BFFF2100214FF4806264
:102B34000148FDF785BB00BFB4080020F0B5B02400
:102B4400164E174D83B00027022301AA7821284688
:102B54008DF805408DF80470FFF708FDADF804709A
:102B64004FF48057022301AA78212846FFF7FEFC80
:102B74000134022301AA78212846ADF80470E4B296
:102B8400FFF7F4FC3246802378212846FFF7EEFC59
:102B9400B82C06F18006D6D103B0F0BDB4080020ED
:102BA400005400402DE9F04F8FB0019000780EAC36
:102BB40004E90600002800F09B80002B4FF000027F
:102BC40014BF00210121DFF8208208BF002498F8F7
:102BD400045418BF0124954214BF0B460C460393BA
:102BE4009DF83110B8F8023408949DF830400D9DDA
:102BF40006915918DBB2B8F800640A93A3B207939C
:102C0400AB1E0995029604910B9302990B197F2B25
:102C140000F3BA80049B3F2B00F2B680069A002A88
:102C240000F0DC80A0F1200902FB09F909F100475A
:102C34009144099A013F02EB47070B9A05900A9BBE
:102C4400089802EB49095FFA81FE37F8026FACB3CA
:102C5400012203F0070102FA01F149B2DA083F2B1D
:102C64006FEA010A4FEAC21228D8039D012D43D00E
:102C7400002865D105460CE001EB020C090605D4D9
:102C840018F80C100AEA010108F80C100135A542E5
:102C940014D006FA05FC0EEB05011CF4004FC9B272
:102CA400EAD011F0800FF1D1114418F801C00135B8
:102CB4000AEA0C0CA54208F801C0EAD101334F45D9
:102CC400DBB2C2D1019B05981B78029A07999842FE
:102CD4000A4492B2029240F08480019B012213F8CC
:102CE400010F0193002890D1BDF80830A8F80034F2
:102CF40000200FB0BDE8F08F00284CD184460CE0D2
:102D040005EB020B2D0604D418F80B500D4308F8FC
:102D14000B500CF1010C6445D0D006FA0CFB0EEB01
:102D24000C051BF4004FEDB2EAD115F0800FF0D181
:102D3400154418F805B00AEA0B0B08F805B0E8E7E3
:102D44004FF0000C0DE005EB020B2D0605D418F82E
:102D54000B500AEA050508F80B500CF1010C644508
:102D6400ACD006FA0CFB0EEB0C051BF4004FEDB2D5
:102D7400E9D115F0800FF0D1154418F805B041EAF7
:102D84000B0B08F805B0E8E7002AB2D0BDF808300C
:102D9400A8F80034ADE74FF0000C0CE005EB020A94
:102DA4002D0604D418F80A500D4308F80A500CF103
:102DB400010C644582D006FA0CFA0EEB0C051AF4E9
:102DC400004FEDB2EAD015F0800FF0D1154418F899
:102DD40005A041EA0A0A08F805A0E8E703460A46FE
:102DE40074E71846D2E700BFB4080020024BA3F8EA
:102DF4000004A3F802147047B40800204A880B8822
:102E040030B48C881343CA8823430C8913434A89FA
:102E14008D8923431343CC8902882B43234302F433
:102E2400415213430380838B0A8A23F400631B04F7
:102E34001B0C838330BC0282704700BF038829B90E
:102E440023F040031B041B0C0380704743F0400332
:102E54000380704781817047808970474FF6FF6314
:102E64009942038805BF23F480731B0443F48073E1
:102E74001B0C0380704700BF0389194214BF012053
:102E840000207047F0B504460D4687B0868801A837
:102E9400FFF7E8F903982B4926F03F06A1FB003120
:102EA4003604890C360C8FB23E43A68022882B68E8
:102EB40022F00102244E1204120CB34222801BD8C9
:102EC4005B00B0FBF3F39BB2042B38BF0423013740
:102ED4002784A38322881D4B42F00102228022888A
:102EE400A9886E8928891340AA8931430B43024378
:102EF4002380228107B0F0BD4BF6FF72EE88964224
:102F04001AD003EB830303EB8303B0FBF3F39BB20D
:102F140043F48043C3F30B020AB943F001034FF4B3
:102F2400967202FB01F10A4A43F40043A2FB012119
:102F3400890901312184CCE703EB4303B0FBF3F3AC
:102F44009BB2E7E783DE1B43A0860100F5FBFFFF8E
:102F5400D34D6210038829B923F001031B041B0C11
:102F64000380704743F0010303807047038829B945
:102F740023F480731B041B0C0380704743F4807399
:102F840003807047038829B923F400731B041B0CC6
:102F94000380704743F400730380704701827047D5
:102FA40022B901F0FE0189B20182704741F00101AA
:102FB40089B20182704700BF838A028B21F07F406F
:102FC40043EA02431840401AB0FA80F040097047BF
:102FD400002382B00A0F0093019301900092009B9A
:102FE40021F07F4153B1019B14330193019B1B6872
:102FF4000B4214BF0120002002B07047019B090C52
:1030040018330193F2E700BF30B5012187B00546BC
:103014000520FFF76DF901214FF48040FFF768F9AF
:103024004FF40071182203231D4CADF80010204604
:1030340069468DF803208DF80230FEF79BF84FF4B3
:103044008062042369462046ADF800208DF80330E1
:10305400FEF790F800234FF4402204F5405402A9EF
:103064002046CDE90332ADF814300295FFF7A0F9FC
:103074002046012240F22551FFF700FA01222046A2
:1030840040F22771FFF7FAF9064B06A840F8143D01
:10309400FFF7C0FB20460121FFF7E4F907B030BD7C
:1030A40000080140250000011C4A10B41388990649
:1030B4000CD5012093881A4C1A49DBB2237208708C
:1030C400138823F020031B041B0C1380134A13885A
:1030D4001B0618D5144B18685968884215D000206F
:1030E4005968C9B21944497A91805A68D2B21A44CB
:1030F40050725A6801325A60084A138823F08003D8
:103104001B041B0C138010BC70470120918921F013
:1031140080010904090C91811872EDE7003801401F
:103124002411002044120020381100204FF40061C3
:103134001422032310B50B4C82B02046ADF80410C2
:1031440001A98DF807208DF80630FEF713F84FF427
:10315400805301A92046ADF80430FEF70BF802B005
:1031640010BD00BF00080140012838B50CBF4FF462
:1031740080544FF4006428482146FFF713FA40F2C4
:103184007710FEF719FA2146CC222348FFF72AFAD2
:103194000C20FEF711FA442221461F48FFF722FAB9
:1031A4001E48FEF709FA21461B48FFF7FBF940F2D7
:1031B4007710FEF701FA2146CC221748FFF712FADE
:1031C4000C20FEF7F9F9BE2221461348FFF70AFA4C
:1031D4000C20FEF7F1F921460F48FFF72FFA4FF0C4
:1031E400000560F307050220FEF7E6F921460A48C8
:1031F400FFF724FA214660F30F250748FFF7D2F9B9
:1032040028B200F0FFF84FF0765100F04FF900F0CB
:103214009DFA00B238BD00BF00080140E0930400ED
:1032240010B50020FFF7A0FF034C20800120FFF71A
:103234009BFF608010BD00BF48120020704700BF94
:1032440070B50C4C0C4D23680C4898472368B5F9AD
:1032540000100B489847B5F90210236809489847AD
:1032640023680948984723680221BDE8704007484D
:10327400184700BF180D0020481200205C490008C0
:10328400087300081873000880490008884900087A
:1032940080F0004002E000BF81F0004142001FBF07
:1032A4005FEA410392EA030F7FEA226C7FEA236C10
:1032B4006AD04FEA1262D2EB1363C1BFD218414005
:1032C40048404140B8BF5B42192B88BF704710F09B
:1032D400004F40F4000020F07F4018BF404211F03E
:1032E400004F41F4000121F07F4118BF494292EAA6
:1032F400030F3FD0A2F1010241FA03FC10EB0C00D2
:10330400C3F1200301FA03F100F0004302D549425E
:1033140060EB4000B0F5000F13D3B0F1807F06D30B
:1033240040084FEA310102F10102FE2A51D2B1F103
:10333400004F40EBC25008BF20F0010040EA0300F8
:103344007047490040EB000010F4000FA2F10102A5
:10335400EDD1B0FA80FCACF1080CB2EB0C0200FA2F
:103364000CF0AABF00EBC25052421843BCBFD0407D
:103374001843704792F0000F81F4000106BF80F4F7
:1033840000000132013BB5E74FEA41037FEA226CBA
:1033940018BF7FEA236C21D092EA030F04D092F085
:1033A400000F08BF0846704790EA010F1CBF0020B9
:1033B400704712F07F4F04D1400028BF40F0004016
:1033C400704712F100723CBF00F50000704700F036
:1033D400004343F0FE4040F4000070477FEA22625D
:1033E40016BF08467FEA23630146420206BF5FEA2E
:1033F400412390EA010F40F4800070474FF000032E
:1034040004E000BF10F0004348BF40425FEA000CF4
:1034140008BF704743F0964301464FF000001CE09C
:1034240050EA010208BF70474FF000030AE000BFF2
:1034340050EA010208BF704711F0004302D5404230
:1034440061EB41015FEA010C02BF844601460020A2
:1034540043F0B64308BFA3F18053A3F50003BCFABD
:103464008CF2083AA3EBC25310DB01FA02FC63446A
:1034740000FA02FCC2F12002BCF1004F20FA02F271
:1034840043EB020008BF20F00100704702F1200264
:1034940001FA02FCC2F1200250EA4C0021FA02F2C5
:1034A40043EB020008BF20EADC7070474FF0FF0CCA
:1034B4001CEAD0521EBF1CEAD15392EA0C0F93EAC5
:1034C4000C0F6FD01A4480EA010C400218BF5FEA67
:1034D40041211ED04FF0006343EA501043EA5111DA
:1034E400A0FB01310CF00040B1F5000F3EBF4900D4
:1034F40041EAD3715B0040EA010062F17F02FD2AD8
:103504001DD8B3F1004F40EBC25008BF20F00100BA
:10351400704790F0000F0CF0004C08BF49024CEAD1
:10352400502040EA51207F3AC2BFD2F1FF0340EA63
:10353400C250704740F400004FF00003013A5DDCD4
:1035440012F1190FDCBF00F000407047C2F1000215
:10355400410021FA02F1C2F1200200FA02FC5FEA02
:10356400310040F1000053EA4C0308BF20EADC704C
:10357400704792F0000F00F0004C02BF400010F4BE
:10358400000F013AF9D040EA0C0093F0000F01F06B
:10359400004C02BF490011F4000F013BF9D041EA8D
:1035A4000C018FE70CEAD15392EA0C0F18BF93EA8F
:1035B4000C0F0AD030F0004C18BF31F0004CD8D1B9
:1035C40080EA010000F00040704790F0000F17BF40
:1035D40090F0004F084691F0000F91F0004F14D086
:1035E40092EA0C0F01D142020FD193EA0C0F03D1DE
:1035F4004B0218BF084608D180EA010000F00040E1
:1036040040F0FE4040F40000704740F0FE4040F4BB
:10361400400070474FF0FF0C1CEAD0521EBF1CEA5A
:10362400D15392EA0C0F93EA0C0F69D0A2EB030278
:1036340080EA010C49024FEA402037D04FF0805312
:1036440043EA111143EA10130CF000408B4238BFD7
:103654005B0042F17D024FF4000C8B4224BF5B1AE5
:1036640040EA0C00B3EB510F24BFA3EB510340EA33
:103674005C00B3EB910F24BFA3EB910340EA9C00E1
:10368400B3EBD10F24BFA3EBD10340EADC001B0151
:1036940018BF5FEA1C1CE0D1FD2A3FF650AF8B42F5
:1036A40040EBC25008BF20F0010070470CF0004C02
:1036B4004CEA50207F32C2BFD2F1FF0340EAC2502D
:1036C400704740F400004FF00003013A37E792F0EE
:1036D400000F00F0004C02BF400010F4000F013A4C
:1036E400F9D040EA0C0093F0000F01F0004C02BF47
:1036F400490011F4000F013BF9D041EA0C0195E7B0
:103704000CEAD15392EA0C0F08D142027FF47DAF48
:1037140093EA0C0F7FF470AF084676E793EA0C0F38
:1037240004D14B023FF44CAF08466EE730F0004C36
:1037340018BF31F0004CCAD130F000427FF45CAFC6
:1037440031F000437FF43CAF5FE700BF4FEA400233
:10375400B2F1FE4F0FD34FF09E03B3EB12620DD9BB
:103764004FEA002343F0004310F0004F23FA02F025
:1037740018BF404270474FF00000704712F1610FCC
:1037840001D1420205D110F0004008BF6FF00040A3
:1037940070474FF000007047144B70B51D68064623
:1037A4000C460DB1AB6B9BB1636ED80702D4A389F1
:1037B400990516D528462246314600F08FF8636EE7
:1037C4000546DA0702D4A3899B0505D5284670BDB2
:1037D400284600F07FFAE7E7A06DFCF7ABFD28462A
:1037E40070BDA06DFCF7A4FDE4E700BF000000205D
:1037F400844641EA000313F0030349D1403A23D33A
:103804000B6803604B6843608B688360CB68C3605C
:103814000B6903614B6943618B698361CB69C36144
:103824000B6A03624B6A43628B6A8362CB6AC3622C
:103834000B6B03634B6B43638B6B8363CB6BC36314
:1038440040304031403ADBD230320BD30B68036056
:103854004B6843608B688360CB68C3601030103161
:10386400103AF3D20C3205D351F8043B40F8043B30
:10387400043AF9D2043208D0D2071CBF11F8013B34
:1038840000F8013B01D30B8803806046704700BFFA
:10389400082A13D38B07B1D010F00303AED0C3F1C1
:1038A4000403D21ADB071CBF11F8013B00F8013BEB
:1038B400A4D331F8023B20F8023B9FE7043AD9D362
:1038C400013A11F8013B00F8013BF9D20B7803707F
:1038D4004B7843708B78837060467047F8B50E461A
:1038E4001446074608B1836BBBB1636ED80702D494
:1038F400A389990526D5A368013B002BA3600FDBA0
:10390400F5B223685A1C22601E70636EDA0702D473
:10391400A3899B0511D52846F8BD00F0DBF9E4E73F
:10392400A269934202DBF5B20A2DEAD13146384648
:10393400224600F00BF80546E7E7A06DFCF7FAFC19
:103944002846F8BDA06DFCF7F3FCD4E7F8B50D46A6
:103954001446064610B1836B002B43D0B4F90C20F7
:10396400A36991B20807A3601BD52369CBB1EDB25B
:1039740089042F4622D522686169D31A994229DD28
:103984000133A168501C0139A1602060157062697F
:103994009A422AD0A389DB0701D50A2D25D03846BF
:1039A400F8BD2146304600F029F820BBB4F90C20BC
:1039B400EDB291B2890423692F46DCD4616E42F4DE
:1039C400005221F40051A281226861666169D31A10
:1039D4009942D5DC2146304600F020F958B901233C
:1039E4002268CEE700F076F9B8E72146304600F0C9
:1039F40015F90028D3D04FF0FF37D0E738B5314B55
:103A0400054618680C4610B1836B002B3AD0B4F904
:103A14000C2093B218070CD52069A8B113F0010249
:103A240020D000226369A2605B42A36100B300203E
:103A340038BDD9063DD5580727D4206942F008037C
:103A4400A3819BB20028E9D103F42072B2F5007F70
:103A5400E4D02846214600F013FBA389206913F023
:103A64000102DED1990758BF6269A2600028DED145
:103A7400B4F90C301A06DBD543F04003A3814FF0B0
:103A8400FF3038BD00F026F9C1E7216B51B104F1D4
:103A94004003994204D0284600F0A8F9B4F90C2058
:103AA400002323630023206922F02402C4E90003D5
:103AB400C4E7092342F040022B604FF0FF30A2819B
:103AC40038BD00BF00000020B1F90C302DE9F041F1
:103AD4009AB20C461107804644D4626843F40063EA
:103AE400002AA3815ADDA56A002D54D000229BB27E
:103AF400D8F80060E169C8F8002013F4805240F05F
:103B0400848001234046A847431C4BD0A389A56A5F
:103B1400E1695F0705D56268236B801A0BB1E36B1B
:103B2400C01A024600234046A847451C46D000213F
:103B3400B4F90C30226923F40063A381DB04C4E9E3
:103B4400002100D52065216BC8F8006019B304F189
:103B54004003994202D0404600F048F90020206317
:103B6400BDE8F0812669B6B1920718BF0023256825
:103B740008BF63692660AD1BA3600AE02B4632468A
:103B8400676AE1694046B8470028A5EB000506448A
:103B94002BDD002DF2DC0020BDE8F081E26B002A71
:103BA400A1DCF8E7D8F80030002BAFD01D2B01D0F2
:103BB400162B2CD1C8F800600020EDE7D8F800508F
:103BC4001D2D1AD8144BB4F90C20EB40DB4313F031
:103BD400010314D1216922F40062C4E90013D10461
:103BE400A281B0D5002DAED1ACE7A3894FF0FF3050
:103BF40043F04003A381BDE8F081B4F90C2042F006
:103C04004002A2814FF0FF30C6E7206D81E7A3890F
:103C140043F04003A381BFE70100402038B50D46BF
:103C2400044608B1836BA3B1B5F90C00B8B16B6E4F
:103C3400DB0701D481051AD520462946FFF744FF46
:103C44006B6E0446DA0702D4AB899B050AD520467D
:103C540038BD00F03FF8B5F90C000028E7D1044660
:103C6400204638BDA86DFCF765FB204638BDA86D1D
:103C7400FCF75EFBE0E700BF002310B5044681813A
:103C8400C281C0E9003383604366C0E904338361C1
:103C9400194608225C30FCF7D3FA07480749084A5A
:103CA400084BC4E90740C4E90912E36204F158006F
:103CB400BDE81040FCF738BB794600089D46000873
:103CC400D9460008F9460008014900F083B900BF4D
:103CD4005147000810B504461448FCF729FBA26BB1
:103CE400FAB90320124904F53B73C4F8E832C4F866
:103CF400E022C4F8E402E16360680421FFF7BCFF3A
:103D0400A06801220921FFF7B7FFE068022212210F
:103D1400FFF7B2FF01230548A363BDE81040FCF799
:103D240009BB0248BDE81040FCF704BBFC0C0020B2
:103D3400CD3C00080148FCF7FBBA00BF100D002081
:103D44000148FCF7F7BA00BF100D0020F8B50C4687
:103D5400234F064600F070FCBB68C4F57E615D68C5
:103D64000F3125F00305294421F47F6121F00F016F
:103D7400A1F58054B4F5805F07DB0021304600F0E4
:103D840067FCBB682B44984204D0304600F05AFCD0
:103D94000020F8BD6142304600F05AFC01300DD0DD
:103DA400104BBA6819682D1B45F001053046091BF4
:103DB4005560196000F046FC0120F8BD0021304632
:103DC40000F046FCBA68831A0F2BDEDD064943F087
:103DD40001030C680349001B53600860D5E700BF6A
:103DE40074040020BC0C00207C080020002953D05F
:103DF400F8B50D46064600F01FFC55F804CC714F8B
:103E0400A5F108012CF00103CA18B868546890425F
:103E140024F0030453D01CF0010F546002EB04009F
:103E24003BD155F808CC4068A1EB0C018D6807F133
:103E3400080E7545634400F0010075D0D1F80CC03C
:103E4400C5F80CC0CCF8085060B343F001024A60D6
:103E5400CB50B3F5007F50D35A0A042A70D89A097C
:103E640002F13905ED0002F138007C197A59083C59
:103E7400944278D0506820F00300984271D9926837
:103E84009442F7D1E368C1E9024330469960E160A6
:103E9400BDE8F84000F0D6BB7047406800F0010070
:103EA4000028D2D19068484D2344A84243F001042D
:103EB40062D0D268C26090604C60CB50C9E71CF0FD
:103EC400010F234407D155F8084C091BD1E902021C
:103ED4002344C26090603D4A43F001001268486088
:103EE4009A42B96004D83A4B30461968FFF72EFF5E
:103EF4003046BDE8F84000F0A5BB0122DB087C6831
:103F0400981013448240224307EBC30057F8334010
:103F14000838C1E902407A60304647F83310E1605E
:103F2400BDE8F84000F08EBB002845D1D2E902027A
:103F3400234443F00104C26090604C60CB50D7E747
:103F4400142A08D9542A1ED81A0B02F16F05ED0061
:103F540002F16E0089E702F15C05ED0002F15B00FD
:103F640083E714468EE701238210786803FA02F28D
:103F740002437A60234686E7C7E90411C1E90200D7
:103F84004C60CB50B4E7B2F5AA7F06D8DA0B02F145
:103F94007805ED0002F1770067E740F25450824261
:103FA40006D89A0C02F17D05ED0002F17C005CE775
:103FB4004FF47E757E2058E743F00100486013609B
:103FC40096E700BF740400207C04002080080020D1
:103FD400EC0C00202DE9F84310F538761ED0884605
:103FE40007464FF00009D6E90154013D10D4A389D6
:103FF400013D012B08D9B4F90E30013304D0214618
:104004003846C04749EA00096B1C04F16804EED144
:104014003668002EE7D14846BDE8F883B1464846E5
:10402400BDE8F88370B50C46B1F90E1096B00029BE
:1040340015461E460FDA0023A289336012F0800071
:1040440004D14FF480632B6016B070BD4022184633
:104054002A6016B070BD6A4600F0E0FB0028EADB77
:10406400019B4FF4806203F47043A3F50053B3FA49
:1040740083F34FF400605B0933602A6016B070BDAF
:104084008A890B46920706D5012103F1430259613F
:104094001A601A61704770B582B001AB6A460C466B
:1040A4000546FFF7BFFF00990646284600F032F8A0
:1040B400B4F90C30D8B1164A0099EA63019A43F076
:1040C4008003A3812060C4E904011AB93343A381A6
:1040D40002B070BD2846B4F90E1000F0B3FBA0B1D5
:1040E400A38923F0030343F001031BB2EEE79A050F
:1040F400EED4012123F0030304F1430243F002034D
:10410400A381616122602261E2E7B4F90C30DDE74A
:10411400CD3C00082DE9F04F01F10B05162D83B0BD
:10412400064623D8102900F2B68000F085FA10253F
:1041340018230220CC4F3B445C68A3F1080294424C
:1041440000F056816368E16823F0030323445A684E
:10415400A56842F00102E96030468D605A6000F0C3
:1041640071FA0834204603B0BDE8F08F35F0070536
:1041740000F19180A94200F28E8000F05DFAB5F55D
:10418400FC7FC0F064816B0A00F08C80042B00F289
:104194003681AB0903F1390003F1380CC100B24F89
:1041A40039444C680839A14206D10CE0002A80F257
:1041B4001B81E468A14206D0636823F003035A1B01
:1041C4000F2AF3DD60463C69DFF8B0C264456FD066
:1041D400636823F003035A1B0F2A00F32681002A85
:1041E400C7E904CC80F21781B3F5007F80F05981D0
:1041F4000122DB08991013448A40796857F833E0A8
:1042040007EBC3080A43A8F10801C4E902E17A6094
:1042140047F83340CEF80C40012483109C4094426C
:104224004CD8144206D120F003006400144200F17B
:104234000400FAD007EBC009CE468046DEF80C3005
:104244009E4507D107E1002A80F21C81DB689E4568
:1042540000F00181596821F003014A1B0F2AF2DDA5
:1042640045F001083046D3E902E41D4442F001065A
:10427400C3F80480CEF80C40C4F808E0C7E904553C
:10428400C5E902CC6E605A50019300F0DBF9019B42
:1042940003F1080466E700240C232046336003B0CE
:1042A400BDE8F08F4FF4007140204FF03F0C76E7EB
:1042B40001247A6883109C409442B2D9BC68636834
:1042C40023F00309A94503D3A9EB05030F2B7BDCDA
:1042D400664BDFF8ACA11A68DAF8003005EB020887
:1042E400013300F03A8108F5805808F10F0828F4EA
:1042F4007F6828F00F084146304600F0A9F9B0F174
:10430400FF3F834600F0F68004EB0900584500F2B5
:10431400EF80574A13684344136000F03F81DAF892
:10432400001001311BBFABEB00001B18CAF800B032
:1043340013601BF0070300F02681C3F10801C3F5E5
:1043440080538B440833D844C8F30B08A3EB080804
:1043540041463046019200F07BF9431C019A00F07B
:104364003881A0EB0B01414441F001011368BC42C8
:104374004344C7F808B01360CBF8041015D0B9F162
:104384000F0F40F222814FF0050E6168A9F10C0075
:1043940020F0070001F00101014304EB000C0F2899
:1043A4006160CCE901EE00F22C81324A3248116896
:1043B400BC688B42016888BF136062688B4222F03C
:1043C400030288BF036099E045F0010243F0010352
:1043D400254462603046BD6008346B6000F032F9F9
:1043E400204603B0BDE8F08F23445A68E168AFE685
:1043F400DC68A34208BF02303FF4E5AEA2E6142B0A
:1044040070D9542B00F2AC802B0B03F16F0003F135
:104414006E0CC100C3E623445A68304642F00102E0
:104424005A60083400F00EF99CE645F0010E42F0A3
:1044340001012544C4F804E03046C7E90455C5E940
:1044440002CC6960E25000F0FDF808348AE6E8081E
:1044540005F108036EE608F1010818F0030F0EF1E8
:10446400080E7FF4EBAE60E074040020EC0C002036
:10447400BC0C0020E40C0020E80C00207C0400208C
:104484007C0800201C4619444A68DB6854F8085F1D
:1044940042F001024A603046EB609D6000F0D2F8C1
:1044A40060E65A0A042A35D9142A6FD802F15C014D
:1044B400C9005B3207EB010E7958AEF1080E8E4548
:1044C40058D04A6822F003029A4202D989688E457C
:1044D400F7D1D1F80CE07A68C4E9021ECEF808409E
:1044E400CC6099E603F15C0003F15B0CC10056E675
:1044F400BC4272D0BC68626822F003029542A2EB0F
:10450400050302D80F2B3FF75FAF304600F09AF84F
:10451400002427E69A0902F13901C9003832C9E7B3
:10452400D9F80090994540F0838010F0030FA9F169
:10453400080300F1FF30F3D17B6823EA04037B60B6
:1045440064009C423FF6BAAE1CB9B7E6640008F1B9
:1045540004081C42FAD040466CE608F11008CAE68A
:10456400B3F5AA7F26D8EB0B03F1780003F1770C9F
:10457400C10014E64FF001087B68921008FA02F2B9
:104584001A437A60A8E74FF48053DCE6542A29D80A
:104594001A0B02F16F01C9006E328BE7C0F30B01F5
:1045A40000297FF4BCAE09EB0802B96842F00102AD
:1045B4004A60FAE640F2545293421CD8AB0C03F121
:1045C4007D0003F17C0CC100E9E50123CBF8043044
:1045D4009BE701214FF00008C8E6164A13684344DC
:1045E40013609CE6B2F5AA7F14D8DA0B02F17801C5
:1045F400C90077325EE74FF47E717F204FF07E0C66
:10460400CDE504F1080130460192FFF7EFFB019A72
:104614001368CAE640F254518A4205D89A0C02F152
:104624007D01C9007C3245E74FF47E717E2241E76B
:104634007B6885E7BC0C00200148FBF779BE00BF0E
:10464400000D00200148FBF775BE00BF000D0020DF
:1046540038B50023064C054608462360FDF72AFFBB
:10466400431C00D038BD2368002BFBD02B6038BD21
:104674004C12002010B50C46B1F90E1000F00AF9E6
:10468400002803DB236D0344236510BDA38923F4B1
:104694008053A38110BD00BF2DE9F041B1F90C4056
:1046A4009846E3050D461746B1F90E10064607D5A0
:1046B4000223002200F0D8F8B5F90C40B5F90E1029
:1046C40024F48054AC8143463A463046BDE8F04178
:1046D40000F014B810B50C46B1F90E1000F0C4F88F
:1046E400A389421C0EBF23F4805343F480532065F6
:1046F400A38110BDB1F90E1000F016B8F8B50E463E
:104704000025084C114607461A4630462560FDF739
:10471400EFFE431C00D0F8BD2368002BFBD03B60A8
:10472400F8BD00BF4C12002038B50023064C0546E6
:1047340008462360FDF7CCFE431C00D038BD236837
:10474400002BFBD02B6038BD4C12002070B5002923
:1047540048D005460C4610B1836B002B48D0626EDE
:10476400B4F90C30D00740D4990530D521462846F9
:10477400FFF7AAF9E36A064633B1E1692846984788
:104784000028B8BF4FF0FF36A3891A063CD4216B2A
:1047940041B104F14003994202D02846FFF726FBB9
:1047A40000232363616C21B12846FFF71FFB00231C
:1047B4006364FFF7BFFA0022636EA281DB071FD593
:1047C400A06DFBF7B3FDFFF7BBFA304670BDA06DDB
:1047D400FBF7AEFDB4F90C30002BC7D1666E16F0B2
:1047E400010616D00026304670BD002BFAD0BDE776
:1047F400FFF770FA626EB4F90C30D007F5D4B3E762
:10480400A06DFBF797FDDBE721692846FFF7EEFA79
:10481400BDE7A06DFBF78EFD304670BD70B50D464B
:104824000023074C0646114628462360FDF754FE34
:10483400431C00D070BD2368002BFBD0336070BDD7
:104844004C12002038B50023064C05460846236068
:10485400FDF748FE431C00D038BD2368002BFBD075
:104864002B6038BD4C120020F8B50E460025084CCC
:10487400114607461A4630462560FDF735FE431CAF
:1048840000D0F8BD2368002BFBD03B60F8BD00BF0F
:104894004C120020F8B50E460025084C1146074678
:1048A4001A4630462560FDF721FE431C00D0F8BDB2
:1048B4002368002BFBD03B60F8BD00BF4C120020E6
:1048C400F8B500BFF8BC08BC9E467047F8B500BFF9
:1048D400F8BC08BC9E46704708000020E71CE300B3
:1048E4000D0A53544D333246313033433854362055
:1048F4006973206F6E6C696E652E0D0A00000000EE
:104904006E524632344C30312B20636865636B3A07
:10491400200000004641494C0D0A00004F4B0D0A8F
:10492400000000005243562050495045232564009E
:10493400205041594C4F41443A3E00003C0D0A007E
:104944000A0B0C0D0E0F1000111213141516000093
:104954006E524632340000001B5B303B33376D002F
:1049640050494420202075530D0A00005B25326411
:104974005D3A20253037640D0A0000001B5B303B94
:1049840033326D001B5B2564410000001B5B256412
:10499400420000005E43204F4B2E2E0D0A00000003
:1049A400466C6173682073697A655B6B425D203A7B
:1049B4002025640D0A0000004D435520756E697171
:1049C400756520494420203A2030782558255825FB
:1049D4005825580D0A00000053797374656D2046FC
:1049E4007265715B487A5D3A2025640D0A00000007
:1049F4001B5B324A000000000D0A535748206465CF
:104A040062756720706F72740D0A00004677205635
:104A1400657273696F6E3A2025642E25642E2564B1
:104A24002E2564205B25732025735D0D0A0000008C
:104A340053657020323520323031380031333A3307
:104A4400343A323600000000466F6E7420313678F6
:104A540032360000466F6E742031317831380000F0
:104A6400466F6E74203778313000000054657374DB
:104A7400696E672E2E2E00007E256420465053005A
:104A84004142434445464748494A4B00737464696C
:104A94006F2E633A20696E637265617365204D41C0
:104AA400585F535452494E475F53495A450A0D00C3
:104AB40000000000000000000000000000000000F2
:104AC40000000000000000000000000000000000E2
:104AD40000000000000000000000000000000000D2
:104AE40000000000E003E003E003E003E003E00370
:104AF400E003E003C003C003C001C001C001C00162
:104B0400C001000000000000E003E003E003000037
:104B140000000000000000003C1E3C1E3C1E3C1E29
:104B24003C1E3C1E3C1E0000000000000000000073
:104B34000000000000000000000000000000000071
:104B4400000000000000000000000000CE01CE03C1
:104B5400DE039E039C039C07FF3FFF7F3807380F4B
:104B6400780F780F780EFFFFFFFFF01EF01CE01C9B
:104B7400E03CE03DE03900000000000000000000DF
:104B8400FC03FE0FEE1FE01EE01EE01EE01EE01F11
:104B9400E00FE007F003FC01FE01FE01FE01FE014F
:104BA400FE01FE01FE3DFC3FF00FE001E0010000CC
:104BB40000000000033E07F78FE78EE79EE3BCE3A7
:104BC400B8E7F8E7F0F7E03FC001FF03FF07F3079A
:104BD400F30FF31EF33CF338F3787FF03FE000006B
:104BE4000000000000000000E007F80F780F781FB5
:104BF400781F781F780FF00FE00F801FC37FC3FB6F
:104C0400E7F3F7F1F7F0FFF07FF03EF87F7CFF3F2A
:104C1400EF1F00000000000000000000E003E003BC
:104C2400E003E003E003C003C00100000000000053
:104C34000000000000000000000000000000000070
:104C44000000000000000000000000000000000060
:104C54003F007C00F001E001C003C007800780072B
:104C6400800F000F000F000F000F000F000F800FC8
:104C740080078007C007C003E001F0017C003F000B
:104C84000F000000007E001FC007C003E001F00118
:104C9400F000F000F80078007800780078007800E0
:104CA4007800F800F000F000F001E001C003C00754
:104CB400001F007E00780000E003C003C001CE396D
:104CC400FF3F7F3F20037003F807780F3C1F38062F
:104CD40000000000000000000000000000000000D0
:104CE40000000000000000000000000000000000C0
:104CF4000000000000000000C001C001C001C001AC
:104D0400C001C001C001FFFFFFFFC001C001C0011D
:104D1400C001C001C001000000000000000000004C
:104D2400000000000000000000000000000000007F
:104D3400000000000000000000000000000000006F
:104D44000000E003E003E003E003E001E001E00130
:104D5400C00180030000000000000000000000000B
:104D640000000000000000000000FE3FFE3F0000C5
:104D7400000000000000000000000000000000002F
:104D8400000000000000000000000000000000001F
:104D9400000000000000000000000000000000000F
:104DA40000000000000000000000E003E003E00356
:104DB400E003000000000000000000000F000F00EE
:104DC4001E001E003C003C0078007800F000F0005B
:104DD400E001E001C003C00380078007000F000F5B
:104DE400001E001E003C003C0078007800F000002B
:104DF400F007F80F7C1F3E3E1E3C1F7C1F7C0F7883
:104E04000F780F780F780F780F780F781F7C1F7C3E
:104E14001E3C3E3E7C1FF80FF0070000000000001F
:104E240000000000F000F007F03FF03FF001F00157
:104E3400F001F001F001F001F001F001F001F001E6
:104E4400F001F001F001F001F001FF3FFF3F00002D
:104E54000000000000000000E00FF83F7C3C3C0034
:104E64003E003E003E003C003C007C00F800F001A7
:104E7400E003C0078007000F001E003E003CFE3F19
:104E8400FE3F00000000000000000000F00FF81FCB
:104E94007C1C3E003E003E003C003C00F800F00F4D
:104EA400F80F7C003E001E001E001E001E003E0087
:104EB4007C1CF81FE01F0000000000000000000040
:104EC4007800F800F800F801F803F807F807780FFD
:104ED400781E781E783C78787878FFFFFFFF78009A
:104EE4007800780078007800780000000000000066
:104EF40000000000FC1FFC1FFC1F001E001E001E03
:104F0400001E001EE01FF81FFC007C003E003E0057
:104F14001E003E003E003C007C1CF81FE01F000009
:104F24000000000000000000FC01FE078E0F001FBF
:104F3400001E003E003C003CF83DFC3F3E7F1F7ECF
:104F44000F3C0F3C0F3C0F3C0F3E1F1E3E1FFC0F3F
:104F5400F00300000000000000000000FF3FFF3FDE
:104F6400FF3F0F001E001E003C0038007800F000D8
:104F7400F000E001E001C003C0038007800F800F50
:104F8400000F001F001F00000000000000000000D0
:104F9400F807FC0F3E1F1E1E1E3E1E3E1E1E3C1F1B
:104FA400F80FF007F80FFC1E3E3E1F3C1F7C0F7CE1
:104FB4000F7C1F3C3E3FFC1FF00700000000000078
:104FC40000000000F007F80F7C1E3E3C1E3C1F7CD6
:104FD4001F7C1F7C1F7C1F3C3F3EFF1FEF071F00F1
:104FE4001E001E003E003C00F838F03FE01F0000A9
:104FF40000000000000000000000000000000000AD
:1050040000000000E003E003E003E0030000000010
:1050140000000000000000000000E003E003E003E3
:10502400E003000000000000000000000000000099
:105034000000000000000000E003E003E003E003E0
:105044000000000000000000000000000000E00379
:10505400E003E003E003E001E001E001C0038003BA
:1050640000000000000000000000000003000F002A
:105074003F00FC00F003C00F003F00FE003FC00FE4
:10508400F003FC003F000F000300000000000000DC
:10509400000000000000000000000000000000000C
:1050A4000000000000000000FFFFFFFF0000000000
:1050B4000000FFFFFFFF00000000000000000000F0
:1050C40000000000000000000000000000000000DC
:1050D4000000000000E000F8007E801FE007F801F7
:1050E4007E001F007E00F801E007801F007E00F8AC
:1050F40000E000000000000000000000F01FFC3F82
:105104003E381F381F381E001E003C007800F00097
:10511400E001C003C003C007C00700000000000096
:10512400C007C007C0070000000000000000000026
:10513400F803FE0F1E1F0F3E7F3CFF78EF79C77305
:10514400C7F38FF38FF38FF39FF39FF3FF73FF7B0B
:10515400F779003C1C1FFC0FF8030000000000005E
:1051640000000000000000000000E003E003F0077E
:10517400F007F007780F780F7C0E3C1E3C1E3E3C77
:10518400FE3FFF3F1F780F780FF007F007F0000095
:105194000000000000000000000000000000F83FD4
:1051A400FC3F3E3C1E3C1E3C1E3C3E3C7C3CF03FD7
:1051B400F83F7E3C1F3C1F3C0F3C0F3C1F3CFE3F16
:1051C400F83F0000000000000000000000000000A4
:1051D4000000FF01FF07871F003E003C007C0078B1
:1051E4000078007800780078007C007C003E003F66
:1051F400831FFF07FF010000000000000000000003
:10520400000000000000F07FFC7F7E781F781F788C
:105214000F780F780F780F780F780F780F780F7852
:105224001F781E787E78F87FE07F00000000000081
:1052340000000000000000000000FF3FFF3F003EB0
:10524400003E003E003E003E003EFE3FFE3F003E6C
:10525400003E003E003E003E003EFF3FFF3F000098
:105264000000000000000000000000000000FF1F1C
:10527400FF1F001E001E001E001E001E001EFF1F3A
:10528400FF1F001E001E001E001E001E001E001E2A
:10529400001E0000000000000000000000000000EC
:1052A4000000FE03FF0F871F003E007C007C007897
:1052B40000F800F87FF87FF80F780F7C0F7C0F3E22
:1052C4008F1FFF0FFE03000000000000000000001D
:1052D4000000000000001F7C1F7C1F7C1F7C1F7CC3
:1052E4001F7C1F7C1F7CFF7FFF7F1F7C1F7C1F7C1C
:1052F4001F7C1F7C1F7C1F7C1F7C000000000000A3
:1053040000000000000000000000FF3FFF3FE0033A
:10531400E003E003E003E003E003E003E003E00371
:10532400E003E003E003E003E003FF3FFF3F00008E
:105334000000000000000000000000000000FC1F4E
:10534400FC1F7C007C007C007C007C007C007C00DA
:105354007C007C007C007C0078007800F838F03F0A
:10536400C03F00000000000000000000000000003A
:1053740000001F3C1E3C3C3C783CF03CE03DE03FE0
:10538400C03F803FC03FE03FF03DF03C783C7C3C78
:105394003E3C1F3C0F3C00000000000000000000E9
:1053A400000000000000003E003E003E003E003EC3
:1053B400003E003E003E003E003E003E003E003EF9
:1053C400003E003E003EFF3FFF3F000000000000A3
:1053D400000000000000000000001FF81FFC1FFC7C
:1053E4003FFE3FFE3FFE7FFF77FF77FFF7F7E7F7CC
:1053F400E7F3E7F3C7F307F007F007F007F000005F
:1054040000000000000000000000000000000F7C0D
:105414000F7C0F7E0F7F0F7F8F7F8F7FCF7FEF7B80
:10542400EF79FF79FF78FF787F783F783F781F78AE
:105434001F780000000000000000000000000000D1
:105444000000F007FC1F3E3E1F7C0F780F780FF81A
:105454000FF80FF80FF80FF80FF80F780F781F7C7C
:105464003E3EFC1FF00700000000000000000000AA
:10547400000000000000FC3FFF3F1F3E0F3E0F3EB8
:105484000F3E0F3E1F3E3F3EFC3FF03F003E003EBE
:10549400003E003E003E003E003E000000000000D2
:1054A40000000000000000000000F007FC1F3E3E6A
:1054B4001F7C0F780F780FF80FF80FF80FF80FF81C
:1054C4000FF80F780F781F7C3E3EFC1FF8077C0016
:1054D4003F000F0003000000000000000000F03F48
:1054E400FC3F7E3C3E3C1E3C1E3C3E3C3C3CFC3C6B
:1054F400F03FE03FF03DF83C7C3C3E3C1E3C1F3C12
:105504000F3C00000000000000000000000000004C
:105514000000FC07FE1F0E3E003C003C003C003E29
:10552400C01FF80FFE037F001F000F000F001F2095
:105534003E3CFC3FF01F00000000000000000000A3
:10554400000000000000FFFFFFFFE003E003E003B2
:10555400E003E003E003E003E003E003E003E0032F
:10556400E003E003E003E003E003000000000000C8
:10557400000000000000000000000F7C0F7C0F7C86
:105584000F7C0F7C0F7C0F7C0F7C0F7C0F7C0F7CBF
:105594000F7C0F7C1E3C1E3C3E3EFC1FF0070000AF
:1055A400000000000000000000000000000007F000
:1055B40007F007F80F780F7C1E3C1E3C1E3E3C1E75
:1055C4003C1F781F780FF80FF007F007F007E0038F
:1055D400E0030000000000000000000000000000E4
:1055E400000003E003F003F007F0E7F3E7F3E7F369
:1055F400E773F77BF77FFF7F7F7F7F7F7E7F7E3F31
:105604003E3E3E3E3E3E0000000000000000000022
:1056140000000000000007F80F7C1E3E3E3E3C1FC9
:10562400F80FF007E007E003E003F007F80F7C0F42
:105634007C1E3E3C1F780F780FF000000000000035
:105644000000000000000000000007F807780F7C4D
:105654001E3C1E3E3C1F780FF80FF007E003E003EA
:10566400E003E003E003E003E003E003E003000001
:105674000000000000000000000000000000FF7FA8
:10568400FF7F0F001F003E007C00F800F000E001E7
:10569400E003C007800F000F001E003E007CFF7F68
:1056A400FF7F00000000000000000000FF078007EB
:1056B40080078007800780078007800780078007AE
:1056C400800780078007800780078007800780079E
:1056D40080078007800780078007FF07FF07000017
:1056E40000780078003C003C001E001E000F000FF4
:1056F40080078007C003C003E001E001F000F00070
:10570400780078003C003C001E001E000F000F00D3
:1057140007000000F07FF000F000F000F000F0005F
:10572400F000F000F000F000F000F000F000F000F5
:10573400F000F000F000F000F000F000F000F000E5
:10574400F000F07FF07F0000C000C001C001E00362
:10575400E003F007F0077807780F380F3C1E3C1E73
:105764001E3C1E3C0F380F78077800000000000034
:105774000000000000000000000000000000000025
:105784000000000000000000000000000000000015
:105794000000000000000000000000000000000005
:1057A400000000000000FFFFFFFF000000000000F9
:1057B400F0000000000000000000000000000000F5
:1057C40000000000000000000000000000000000D5
:1057D40000000000000000000000000000000000C5
:1057E40000000000000000000000000000000000B5
:1057F400F80FFC3F7C3C3E003E003E00FE07FE1FCF
:105804003E3E3E7C3E783E7C7E7CFF3FCF1F0000C8
:105814000000000000000000003C003C003C003C94
:10582400003C003CF83DFE3F3E3F1F3E0F3C0F3C1A
:105834000F3C0F3C0F3C0F3C1F3C1E3C3E3FFC3FCB
:10584400F03B000000000000000000000000000029
:105854000000000000000000FE03FF0F871F003E51
:10586400003E003C007C007C007C003C003E003E8E
:10587400871FFF0FFE03000000000000000000006F
:105884001F001F001F001F001F001F00FF07FF1F36
:105894003F3E1F3C1F7C1F7C1F7C1F781F781F7C92
:1058A4001F7C3F3C7F3EFF1FDF0F00000000000015
:1058B40000000000000000000000000000000000E4
:1058C400F803FC0F3E1F1E3E1F3C1F7CFF7FFF7F23
:1058D400007C007C003C003E071FFF0FFE0300001D
:1058E4000000000000000000FF01E103C003C00746
:1058F400C007C007FF7FFF7FC007C007C007C007FE
:10590400C007C007C007C007C007C007C007C0075B
:10591400C0070000000000000000000000000000BC
:105924000000000000000000EF07FF1F7F3E1F3C47
:105934001F7C1F7C1F781F781F781F7C1F7C3F3CB7
:105944007F3EFF1FDF0F1E001E001E007C38F83F45
:10595400003C003C003C003C003C003CFC3DFE3F65
:105964009E3F1F3F1F3E1F3C1F3C1F3C1F3C1F3CD4
:105974001F3C1F3C1F3C1F3C1F3C0000000000005C
:1059840000000000F001F001000000000000000031
:10599400E07FE07FE001E001E001E001E001E001FF
:1059A400E001E001E001E001E001E001E0010000CC
:1059B4000000000000000000F800F80000000000F3
:1059C40000000000F83FF83FF800F800F800F80085
:1059D400F800F800F800F800F800F800F800F80003
:1059E400F800F800F800F000F071E07F003C003CA3
:1059F400003C003C003C003C1F3C3E3C7C3CF83CF2
:105A0400F03DE03DC03FC03FE03FF03DF83C7C3C12
:105A14003E3C1F3C1F3C0000000000000000000052
:105A2400F07FF001F001F001F001F001F001F0016C
:105A3400F001F001F001F001F001F001F001F001DA
:105A4400F001F001F001F001F0010000000000009D
:105A54000000000000000000000000000000000042
:105A64009EF7FFFFFFFFFFFFE7FBE7F9C7F1C7F171
:105A7400C7F1C7F1C7F1C7F1C7F1C7F1C7F100001A
:105A84000000000000000000000000000000000012
:105A940000000000FC3DFE3F9E3F1F3F1F3E1F3C99
:105AA4001F3C1F3C1F3C1F3C1F3C1F3C1F3C1F3C1A
:105AB4001F3C000000000000000000000000000087
:105AC4000000000000000000F007FC1F3E3E1F3CE9
:105AD4001F7C0F780F780F780F780F781F7C1F3C8E
:105AE4003E3EFC1FF0070000000000000000000024
:105AF400000000000000000000000000F83DFE3F30
:105B04003E3F1F3E0F3C0F3C0F3C0F3C0F3C0F3CF5
:105B14001F3C1E3E3E3FFC3FF83F003C003C003C27
:105B2400003C003C000000000000000000000000F9
:105B3400EE07FE1F7E3E1E3C1E7C1E781E781E78DD
:105B44001E781E781E7C3E7C7E3EFE1FDE0F1E00ED
:105B54001E001E001E001E000000000000000000C9
:105B6400000000007F1FFF1FE71FC71F871F001FC4
:105B7400001F001F001F001F001F001F001F001F29
:105B8400001F0000000000000000000000000000F2
:105B94000000000000000000FC07FE1F0E1E003E77
:105BA400003E003FE01FFC07FE003E001E001E00FA
:105BB4003E3CFC3FF01F000000000000000000001D
