:020000040800F2
:1000000050260020B1080008110900081109000855
:10001000110900081109000811090008000000007A
:1000200000000000000000000000000011090008AE
:10003000110900080000000011090008A1120008C1
:100040001109000811090008110900081109000828
:100050001109000811090008110900081109000818
:100060001109000811090008110900081109000808
:1000700011090008110900081109000811090008F8
:1000800011090008110900081109000811090008E8
:1000900011090008110900081109000811090008D8
:1000A00011090008110900081109000811090008C8
:1000B00011090008110900081109000811090008B8
:1000C00011090008110900081109000811090008A8
:1000D00011090008852D0008110900081109000800
:1000E00011090008110900081109000800000000AA
:1000F0000000000000000000000000000000000000
:0C01000000000000000000005FF808F1A3
:0402000001000000F9
:1002040010B5054C237833B9044B13B10448AFF34C
:1002140000800123237010BD90080020000000001E
:100224000C01000808B5034B1BB103490348AFF3A5
:10023400008008BD00000000940800200C010008A4
:10024400F0B4860743D0541E002A3ED0CAB20346F7
:1002540002E014F1FF3438D303F8012B9D07F8D1E1
:10026400032C2BD9CDB245EA05250F2C45EA0545CB
:1002740016D9A4F110073F0903F1200606EB07166F
:1002840003F1100242E9045542E902551032B24228
:10029400F8D104F00F040137032C03EB07130DD935
:1002A4001E462246043A032A46F8045BFAD8221F63
:1002B40022F003020432134404F003042CB1C9B243
:1002C4001C4403F8011B9C42FBD1F0BC704714464C
:1002D4000346C5E7024B13B1024800F005B8704766
:1002E40000000000F9020008002301461A461846DF
:1002F40000F022B838B50A4C0A4D641BA4100AD089
:1003040004F18043013B05EB8305013C55F80439B6
:100314009847002CF9D1BDE8384004F0EFBD00BF88
:10032400900800208C080020704700BF704700BF71
:10033400704700BF704700BF2DE9F8432B4D0646B8
:10034400286898460F469146FFF7F2FF284B1C6831
:10035400D4F84831002B3DD05A681F2A0DDC02F135
:10036400010C16BB0232C3F804C0286843F822709B
:10037400FFF7E0FF0020BDE8F8831E4B7BB34FF48A
:10038400C870AFF30080034648B30020D4F8481186
:100394004FF0010CC3E900100246C4F84831C3F819
:1003A4008801C3F88C01002EDCD0012103EB820408
:1003B400C4F88890D3F8880191400843022EC3F80A
:1003C4008801C4F80881CDD1D3F88C010143C3F866
:1003D4008C11C7E704F5A673C4F84831BCE7286854
:1003E400FFF7A8FF4FF0FF30C5E700BF300400203F
:1003F4000C4F00080000000080B588B000AF00F08A
:1004040035F90346012B21D03B461249184600F02A
:100414004DF903461A46104B1A7000F032F90F4B8F
:100424001B680D4A127811460D4898470B4B1B6800
:100434000C489847074B1B789AB23B46114618461E
:1004440001F0D0FF054B1B680748984700BF2037D1
:10045400BD4680BD140D00201C0D0020180D002089
:10046400644F0008704F00087C4F000880B582B0CC
:1004740000AF786000BF4FF40031786802F0F2FBFF
:100484000346002BF7D10121786802F052FB00BF2C
:100494000549786802F0B7FB0346002BF8D000BF8B
:1004A4000837BD4680BD00BF0100030080B582B09F
:1004B40000AF78600121786802F05AFB00BF08376A
:1004C400BD4680BD80B582B000AF78600B46FB703E
:1004D4001346BB70BA78FB781946786802F076FB4D
:1004E400BB78002B08D100BF0B49786802F08BFB66
:1004F4000346002BF8D00AE0BB78012B07D100BFDC
:100504000649786802F07FFB0346002BF8D000BF51
:100514000837BD4680BD00BF82000700020003000B
:1005240080B582B000AF78600B46FB70FB7819464B
:10053400786802F03CFB00BF0549786802F063FB71
:100544000346002BF8D000BF0837BD4680BD00BF6E
:100554008400070080B584B000AF0346FB714FF4FC
:1005640080510C4800F071FCFB7903F01F03DBB2EF
:10057400184601F0D1FBFF2001F0CEFB0346FB73CC
:100584004FF48051034800F052FCFB7B18461037AF
:10059400BD4680BD000C014080B582B000AF03466B
:1005A4000A46FB711346BB714FF48051194800F0A1
:1005B4004CFCFB791F2B10D897F9073003F01F036D
:1005C4005BB243F020035BB2DBB2184601F0A4FB3C
:1005D400BB79184601F0A0FB13E0FB79184601F043
:1005E4009BFBFB79E12B0CD0FB79E22B09D0FB7947
:1005F400E32B06D0FB79FF2B03D0BB79184601F01F
:100604008BFB4FF48051034800F011FC00BF083706
:10061400BD4680BD000C014090B583B000AF0346D9
:100624003960FB711346BB714FF480510E4800F0E2
:100634000CFCFB79184601F06FFB07E03C68631C77
:100644003B60FF2001F068FB03462370BB795A1E10
:10065400BA71002BF2D14FF48051034800F0E7FB4C
:1006640000BF0C37BD4690BD000C014080B500AF03
:100674001720FFF76FFF034603F00303DBB21846AE
:1006840080BD80B582B000AF0720FFF763FF03464B
:10069400FB71FB7943F07003FB71FB79194607206A
:1006A400FFF77AFF00BF0837BD4680BD80B584B030
:1006B40000AF786039600720FFF74CFF03465B10FA
:1006C400DBB203F00703FB73FB7B052B16D8FB7B24
:1006D4000E4AD35C1846FFF73DFF03461A463B68B3
:1006E4001A703B681B78002B06D03B681B781A46AF
:1006F40079686120FFF790FFFB7B03E03B680022F1
:100704001A70FF2318461037BD4680BD844F000879
:1007140080B500AF154B1B68144A43F00103136006
:10072400124B5A681149124B13404B600F4B1B6814
:100734000E4A23F0847323F4803313600B4B1B683D
:100744000A4A23F480231360084B5B68074A23F4A6
:10075400FE035360054B4FF41F029A6000F00CF83F
:10076400044B4FF000629A6000BF80BD001002404D
:100774000000FFF800ED00E080B500AF00F002F8E3
:1007840000BF80BD80B483B000AF00237B60002332
:100794003B603A4B1B68394A43F480331360374B50
:1007A4001B6803F400333B607B6801337B603B6868
:1007B400002B03D17B68B3F5A06FF0D12F4B1B68DE
:1007C40003F40033002B02D001233B6001E000233B
:1007D4003B603B68012B4BD1294B1B68284A43F0F3
:1007E40010031360264B1B68254A23F00303136090
:1007F400234B1B68224A43F0020313601F4B1F4A1A
:100804005B6853601D4B1D4A5B6853601B4B5B6800
:100814001A4A43F480635360184B5B68174A23F405
:100824007C135360154B5B68144A43F4E81353601C
:10083400124B1B68114A43F08073136000BF0F4BC7
:100844001B6803F00073002BF9D00C4B5B680B4A58
:1008540023F003035360094B5B68084A43F0020327
:10086400536000BF054B5B6803F00C03082BF9D100
:1008740000BF0C37BD4680BC704700BF001002406B
:100884000020024080B582B000AF0123BB80142356
:10089400FB710323BB713B1D1946034800F0F2F9B9
:1008A40000BF0837BD4680BD0008014080B582B056
:1008B40000AF114B7B60114B3B6007E07A68131D5E
:1008C4007B603B68191D396012681A603B680C4AEA
:1008D4009342F3D30B480C494FF000028842B8BF4F
:1008E40040F8042BFADBFFF713FF00F0E1FD00BF33
:1008F4000837BD4680BD00BF96790008000000207F
:1009040090080020900800205012002080B400AF0E
:10091400FEE7000080B500AF4FF480620021044878
:10092400FFF78EFC034B00221A7000BF80BD00BF8E
:10093400240D0020200D002080B485B000AFF860A5
:10094400B9601346FB71204B1B781F2B36D8FB680C
:10095400002B31D01C4B1B781C4A5B0113441C3305
:10096400FA681A60184B1B78184A5B011344BA687A
:100974001A60154B1B78154A5B01134403F11802E6
:1009840013786FF3000313700F4B1B781846FB7931
:10099400002B0CBF01230023D9B20C4A43011A4493
:1009A400137961F300031371074B1B780133DAB237
:1009B400054B1A70002302E0FE2300E0FF231846D3
:1009C4001437BD4680BC7047200D0020240D002044
:1009D40080B485B000AFF860B9601346FB71294B51
:1009E4001B781F2B48D8FB68002B43D0254B1B7862
:1009F400254A5B0113441C33FA681A60214B1B78A7
:100A0400214A5B0113440C33BA681A601D4B1B78EE
:100A140018461E4B1A681C4943010B4410331A60D4
:100A2400184B1B78184A5B01134403F1180213781E
:100A340043F001031370134B1B78134A5B011344F7
:100A440000221A600F4B1B781846FB79002B0CBF51
:100A540001230023D9B20C4A43011A44137961F3E8
:100A640000031371074B1B780133DAB2054B1A707C
:100A7400002302E0FE2300E0FF2318461437BD469E
:100A840080BC7047200D0020240D0020AC080020FD
:100A940080B483B000AF0023FB7115E0FA79FB79D1
:100AA4000E4952010A44083212680C495B010B4496
:100AB40014331A60FB79094A5B011344083300229A
:100AC4001A60FB790133FB71054B1B78FA799A4262
:100AD400E4D300BF0C37BD4680BC7047240D002012
:100AE400200D002080B582B000AF164B1B6816485D
:100AF4009847144B1B68154898470023FB710EE078
:100B0400104B1B68F879FA79114952010A441432DE
:100B1400126801460F489847FB790133FB710E4B6D
:100B24001B78FA799A42EBD3064B1B680B4898471B
:100B3400044B1B68FA7911460948984700BF0837E7
:100B4400BD4680BD180D00209C4F0008A44F00082E
:100B5400240D0020B04F0008200D0020C04F0008D5
:100B6400C84F000890B583B002AF0E4B1B680E4A05
:100B7400128811460D4898470A4B1C680C4B1B8879
:100B840019460C4B1B8818460B4B1A680B4B1B68F9
:100B94000093134602460A48A04700BF0437BD46E7
:100BA40090BD00BF180D0020E0F7FF1FE44F0008C0
:100BB400E8F7FF1FEAF7FF1FECF7FF1FF0F7FF1F2F
:100BC400FC4F000880B500AF044B1B68044A126850
:100BD40011460448984700BF80BD00BF180D00208F
:100BE400340400201C500008B0B584B004AF194B85
:100BF4001B6819489847174B1B6818489847154BAA
:100C04001B6817489847134B1C68164B1B781946EA
:100C1400154B1B781846154B1B781D46144B1B7837
:100C24001A46144B0293144B019300922B4602462E
:100C34001248A047074B1B6811489847FFF792FFDB
:100C4400FFF7C0FF034B1B680448984700BFBD462D
:100C5400B0BD00BF180D0020345000083C500008FF
:100C640044500008000200080102000802020008C3
:100C7400030200087C5000088850000858500008FF
:100C84009450000880B489B000AF786039600023C4
:100C9400FB6100233B610023BB610023FB60002355
:100CA4007B610023BB603B68DB7803F00F03FB61CF
:100CB4003B68DB7803F01003002B05D03B689B787E
:100CC4001A46FB691343FB613B681B88DBB2002BAC
:100CD40044D07B681B687B610023BB6138E0012240
:100CE400BB6902FA03F3FB603B681B881A46FB6886
:100CF40013403B613A69FB689A4226D1BB699B0069
:100D0400FB600F22FB6802FA03F3BB60BB68DB43A2
:100D14007A6913407B61FA69FB6802FA03F37A6922
:100D240013437B613B68DB78282B05D10122BB6927
:100D34009A407B685A6108E03B68DB78482B04D111
:100D44000122BB699A407B681A61BB690133BB61AC
:100D5400BB69072BC3D97B687A691A603B681B8817
:100D6400FF2B46D97B685B687B610023BB613AE05B
:100D7400BB690833012202FA03F3FB603B681B885A
:100D84001A46FB6813403B613A69FB689A4227D1D3
:100D9400BB699B00FB600F22FB6802FA03F3BB6094
:100DA400BB68DB437A6913407B61FA69FB6802FA2A
:100DB40003F37A6913437B613B68DB78282B05D105
:100DC400BB69083301229A407B685A613B68DB782F
:100DD400482B05D1BB69083301229A407B681A610C
:100DE400BB690133BB61BB69072BC1D97B687A69D5
:100DF4005A6000BF2437BD4680BC704780B485B0BC
:100E040000AF78600B467B800023FB737B689A6895
:100E14007B881340002B02D00123FB7301E00023E5
:100E2400FB73FB7B18461437BD4680BC704780B407
:100E340083B000AF78600B467B807A887B681A6148
:100E440000BF0C37BD4680BC704780B483B000AF90
:100E540078600B467B807A887B685A6100BF0C37C8
:100E6400BD4680BC7047000080B487B000AF786096
:100E74000B46FB7000233B610023FB6000237B6176
:100E84000023BB607B68002B03DA2E4BDB697B619C
:100E940002E02C4B5B687B617B681B0C03F00F0347
:100EA400BB607B689BB23B617B6803F44013B3F582
:100EB400401F0AD17B6923F070637B61214B5B681F
:100EC400204A23F07063536021E07B6803F48013AD
:100ED400002B0ED00322BB6802FA03F3FB60FB680D
:100EE400DB437A6913407B617B6943F070637B6108
:100EF4000DE07B685B0D1B013A6902FA03F3DB43E7
:100F04007A6913407B617B6943F070637B61FB7892
:100F1400002B08D07B685B0D1B013A6902FA03F3CE
:100F24007A6913437B617B68002B03DA054A7B698A
:100F3400D36102E0034A7B69536000BF1C37BD469E
:100F440080BC70470000014080B400AF044B1B68B4
:100F5400044AA2FB03239B091846BD4680BC704784
:100F6400AC080020D34D621080B584B000AF0020DF
:100F740001F062FBFFF7E8FFB860BB687B60002309
:100F8400FB730023BB73B97BFB7B0022184601F083
:100F94009BFBBB7B002B06D1FB7B7E2B03D8FB7B0F
:100FA4000133FB7316E0FB7B7F2B06D1BB7B3E2B0F
:100FB40003D8BB7B0133BB730CE0BB7B3F2B06D157
:100FC400FB7B002B03D0FB7B013BFB7302E0BB7B71
:100FD400013BBB73B97BFB7B0122184601F074FB18
:100FE40001F04CFB41F2883000F066F9FFF7ACFFEA
:100FF40078607A68BB68D31AB3F5FA5FC3D3034841
:1010040000F05AF900BF1037BD4680BD40420F00C2
:1010140080B500AF002001F00FFB0021022001F099
:1010240059FC0F4A012306CA0E4801F02DFC1A216F
:10103400022001F04FFC0C4A012306CA0B4801F0C0
:1010440023FC2C21022001F045FC094A012306CA95
:10105400084801F019FC01F011FB00BF80BD00BF7E
:101064006C0400209C50000864040020A850000870
:101074005C040020B4500008B0B598B000AF012063
:1010840001F0DAFAFFF760FFB865BB6D7B650023FA
:10109400FB653C4A07F1440307CA83E807000021C3
:1010A400022001F017FC384A002306CA374801F031
:1010B400EBFB1221022001F00DFC334A07F144003E
:1010C400002306CA01F0E0FB01F0D8FA97F8443097
:1010D40087F8533007F14403013307F144000A222F
:1010E400194602F0B1FE97F8533087F84E30FB6D85
:1010F4000133FB65FFF728FF78657A6DBB6DD31A62
:1011040041F287329342D4D9214800F0D5F8F86DE2
:1011140002F0A4FC0346184602F054F904460D46B6
:101124007A6DBB6DD31A184602F02AF94FF000020B
:10113400184B02F0C9FA02460B462046294602F033
:10114400C3FA03460C461846214602F0A5FB0346A3
:10115400FB65381DFB6D104A402100F047FC01205F
:1011640001F06AFA1221022001F0B4FB064A381D8C
:10117400002306CA01F088FB01F080FA00BF603743
:10118400BD46B0BDD450000864040020C05000081F
:1011940040420F0000408F40CC50000880B500AFA3
:1011A40001F0D8F9FFF768FF044800F085F8FFF76D
:1011B400DBFEFFF72DFF00BF80BD00BF40420F00E4
:1011C40080B483B000AF03463960FB7197F90730F0
:1011D400002B0BDA3B68DAB20C49FB7903F00F03FE
:1011E400043B1201D2B20B441A7609E03B68DAB22E
:1011F400074997F907301201D2B20B4483F8002350
:1012040000BF0C37BD4680BC704700BF00ED00E056
:1012140000E100E080B582B000AF78607B68B3F194
:10122400807F01D3012311E07B6823F07F43094AC7
:10123400013B53600F214FF0FF30FFF7C1FF054B17
:1012440000229A60034B07221A60002318460837CD
:10125400BD4680BD10E000E080B586B000AF3B1D08
:10126400184600F06DFCBB68054AA2FB03239B0CE7
:101274001846FFF7CFFF00BF1837BD4680BD00BF3B
:1012840083DE1B4380B500AF034B00221A60FFF7D7
:10129400E3FF00BF80BD00BFAC08002080B400AFF6
:1012A400044B1B680133034A136000BFBD4680BC76
:1012B400704700BFAC08002080B485B000AF7860F0
:1012C400084B1B68FB60074B1B68FA689B1A7A681B
:1012D4009A4200D9F7E700BF00BF1437BD4680BC6F
:1012E400704700BFAC08002080B582B000AF002377
:1012F400FB717AE0FB79404A5B0113445B68C3F3FA
:101304000003DBB2002B6DD1FB793B4A5B01134434
:1013140018331B68C3F30003DBB2002B2CD1FB7919
:10132400354A5B0113441B681B78002B5AD0334B9E
:101334001B683B60FB79304A5B0113441C331B6818
:1013440098472E4B1A683B68D31A3B60FB792A4AAC
:101354005B01134408331968FB793A680A44264947
:101364005B010B4408331A60FB79234A5B01134485
:101374001B6800221A7035E0204B1A68FB791E495D
:101384005B010B4410331B68D21AFB791A495B01C9
:101394000B440C331B689A4224D3184B1B683B60E4
:1013A400FB79154A5B0113441C331B689847134BA4
:1013B4001A683B68D31A3B60FB790F4A5B011344FC
:1013C40008331968FB793A680A440B495B010B44FA
:1013D40008331A60FB79094A126807495B010B4418
:1013E40010331A60FB790133FB71054B1B78FA79D2
:1013F4009A42FFF47FAF7AE7240D0020AC08002066
:10140400200D002080B500AFFFF784FA01221249B5
:101414001248FFF791FA012211491248FFF7D8FA4E
:10142400012211491148FFF7D3FA01220E4910484D
:10143400FFF7CEFA00220C490E48FFF7C9FA002242
:1014440009490D48FFF7C4FA01224FF47A710B4899
:10145400FFF7BEFA00BF80BD4412002051240008EB
:1014640020A10700A52F000840420F0065300008A6
:10147400A1300008E90A0008950A0008FD030008E5
:1014840080B500AFFFF7BEFFFFF7FCFE4FF461200D
:1014940000F03CFFFFF7A8FB0121042000F000FC52
:1014A400FFF7F0F901F0CCFCFFF778FE00BF80BD38
:1014B40080B500AF0121012000F0F2FB01210548B5
:1014C400FFF7D2FCFFF7DCFFFFF70EFF00231846FF
:1014D40080BD00BF0002300080B483B000AF7860EC
:1014E4000B46FB707B68FA781A70012318460C3798
:1014F400BD4680BC704780B485B000AF7860396069
:101504000023FB600AE03A68531C3B607B68591C6B
:10151400796012781A70FB680133FB603B681B78B2
:10152400002BF0D1FB6818461437BD4680BC7047C9
:1015340080B586B000AFF8607A603B600B46FB7202
:1015440000237B617B68013B7B603B68092B1DD9D1
:101554003B681D4AA2FB0323DB08F97A7A68F86822
:10156400FFF7E6FF78617B69FA681344FB6010E0DB
:10157400FB7A1946F868FFF7AFFFFB680133FB609D
:101584007B6901337B617B68013B7B607B68002B5B
:10159400EEDC39680C4BA3FB0123DA0813469B00ED
:1015A40013445B00CA1AD3B23033DBB21946F8686D
:1015B400FFF792FF02467B6913447B617B691846FF
:1015C4001837BD4680BD00BFCDCCCCCC80B586B02D
:1015D40000AFF8607A603B600B46FB7200237B61CE
:1015E4003B68002B03DA3B685B423B6101E03B68EC
:1015F4003B617B68013B7B603B69092B1FD93B68DE
:10160400002B0CDA3B692E4AA2FB0323DB085B4266
:10161400F97A7A68F868FFF7D9FF78610AE03B69DC
:10162400274AA2FB0323DB08F97A7A68F868FFF7F4
:10163400CDFF78617B69FA681344FB6025E03B6861
:10164400002B11DA7B68013B7B600DE0FB7A1946C5
:10165400F868FFF741FFFB680133FB607B690133E6
:101664007B617B68013B7B607B68002BEEDC3B6825
:10167400002B0ADA2D21F868FFF72EFF02467B695A
:1016840013447B61FB680133FB6039690C4BA3FB9A
:101694000123DA0813469B0013445B00CA1AD3B231
:1016A4003033DBB21946F868FFF716FF02467B6950
:1016B40013447B617B6918461837BD4680BD00BF63
:1016C400CDCCCCCC80B588B002AFF8607A601A4635
:1016D4000B46FB721346BB7200237B617B68013BA4
:1016E4007B603B6A1B09002B20D03B6A1B09BA7A3A
:1016F400F97A009313467A68F868FFF7E3FF024625
:101704007B6913447B617B69FA681344FB6010E0D6
:10171400FB7A1946F868FFF7DFFEFB680133FB60CC
:101724007B6901337B617B68013B7B607B68002BB9
:10173400EEDC3B6A03F00F03092B0BD83B6ADBB2E8
:1017440003F00F03DBB23033DBB21946F868FFF75E
:10175400C3FE19E0BB7A002B0BD03B6ADBB203F06B
:101764000F03DBB23733DBB21946F868FFF7B4FE78
:101774000AE03B6ADBB203F00F03DBB25733DBB2A0
:101784001946F868FFF7A8FE7B6901337B617B6922
:1017940018461837BD4680BD80B58AB002AFF860E0
:1017A400B9607A603B600023BB6100237B61FB6806
:1017B400002B00F0FC80FB6800221A70F7E07B68C5
:1017C4001B78252B0BD07A68531C7B60FB68591C53
:1017D400F96012781A707B6901337B61E7E07B68FA
:1017E40001331B78252B0BD1FB685A1CFA60252288
:1017F4001A707B6802337B607B6901337B61D6E0BE
:101804002023FB770023BB777B6801337B607B68F5
:101814001B78302B14D13023FB777B6801337B603A
:101824000EE0BB7F1A46920013445B00DAB27B6879
:101834001B781344DBB2303BBB777B6801337B609E
:101844007B681B782F2B03D97B681B78392BE8D94D
:10185400BA7F7B6913441A46BB68934205D2BB68BE
:10186400DAB27B69DBB2D31ABB777B681B78583B4F
:10187400202B00F28E8001A252F823F051190008A7
:101884009719000897190008971900089719000874
:101894009719000897190008971900089719000864
:1018A40097190008971900088119000805190008FC
:1018B4009719000897190008971900089719000844
:1018C40005190008971900089719000897190008C6
:1018D4009719000897190008971900089719000824
:1018E40097190008971900086D190008971900083E
:1018F4001D190008971900089719000835190008E0
:10190400B87F3B681A1D3A601B68F97F0246F86885
:10191400FFF75CFEB8613FE0B87F3B681A1D3A6090
:101924001B68F97F0246F868FFF702FEB86133E0EE
:10193400B87F3B681A1D3A601B68F97F0093002347
:101944000246F868FFF7BEFEB86125E0B87F3B6841
:101954001A1D3A601B68F97F009301230246F86858
:10196400FFF7B0FEB86117E03B681A1D3A601B68C8
:101974001946F868FFF7BFFDB8610DE03B681A1D12
:101984003A601B68DBB21946F868FFF7A5FDB86139
:1019940002E04FF0FF3325E07B6801337B60BB69D5
:1019A400FA681344FB607A69BB6913447B617B6802
:1019B4001B78002B04D07B69BA689A423FF6FFAECD
:1019C4007B69BA689A4203D9FB6800221A7008E05E
:1019D400FB68013BFB60FB6800221A707B69013BDA
:1019E4007B617B6918462037BD4680BD0CB480B549
:1019F40084B000AF7860396007F11C03BB60BB683A
:101A0400BA6939687868FFF7C7FEF860FB6818465A
:101A14001037BD46BDE8804002B0704780B584B041
:101A240000AFF860B9607A607B68BA686421F868CE
:101A3400FFF7B2FE034618461037BD4680BD0000CE
:101A4400B0B5A6B000AFF860B9607A60144B07F186
:101A540010041D460FCD0FC40FCD0FC42B68236097
:101A640007F134037A68B9681846FFF7D7FF0346CD
:101A7400632B09DD0B4B1B68DA6807F11003114671
:101A8400184600F039F8FEE707F13403F968184600
:101A940000F032F8034618469837BD46B0BD00BF83
:101AA400E05000080000002080B582B000AF7860EC
:101AB4003960064B1B689B683A6879681846FFF7DB
:101AC400BFFF034618460837BD4680BD000000200E
:101AD4000FB480B582B000AF07F114033B603968DE
:101AE4003869FFF7E1FF78607B6818460837BD4620
:101AF400BDE8804004B0704780B584B000AF786022
:101B040039600023FB6012E07B681B783968184653
:101B140002F06EF90346B3F1FF3F02D14FF0FF33F9
:101B24000AE0FB680133FB607B6801337B607B6800
:101B34001B78002BE8D1FB6818461037BD4680BDE2
:101B440080B487B000AF786000237B6100233B61E1
:101B54000023FB600023BB604C4B5B6803F00C0369
:101B64007B617B69042B07D0082B09D0002B33D170
:101B74007B68474A1A6033E07B68454A1A602FE065
:101B8400424B5B6803F470133B61404B5B6803F4A6
:101B94008033FB603B699B0C02333B61FB68002B89
:101BA40006D13B693B4A02FB03F27B681A6017E0EB
:101BB400364B5B6803F40033002B06D03B69354A8F
:101BC40002FB03F27B681A600AE03B69304A02FBBD
:101BD40003F27B681A6003E07B682D4A1A6000BF39
:101BE4002A4B5B6803F0F0037B617B691B097B6113
:101BF400294A7B6913441B78DBB2BB607B681A6893
:101C0400BB68DA407B685A60204B5B6803F4E0638E
:101C14007B617B691B0A7B611F4A7B6913441B78C8
:101C2400DBB2BB607B685A68BB68DA407B689A6049
:101C3400164B5B6803F460537B617B69DB0A7B6151
:101C4400154A7B6913441B78DBB2BB607B685A6816
:101C5400BB68DA407B68DA600C4B5B6803F4404392
:101C64007B617B699B0B7B610C4A7B6913441B780A
:101C7400DBB2BB607B68DA68BB68B2FBF3F27B68FB
:101C84001A6100BF1C37BD4680BC7047001002407B
:101C940000127A0000093D00480400205804002086
:101CA40080B483B000AF78600B46FB70FB78002BE8
:101CB40006D0094B9A6908497B6813438B6106E097
:101CC400054B9A697B68DB43034913408B6100BF72
:101CD4000C37BD4680BC70470010024080B483B00E
:101CE40000AF78600B46FB70FB78002B06D0094BE5
:101CF400DA6908497B681343CB6106E0054BDA696E
:101D04007B68DB4303491340CB6100BF0C37BD46FE
:101D140080BC70470010024080B582B000AF03461B
:101D2400FB7100BF02210E4800F006FE0346002BA3
:101D3400F8D0FB799BB21946094800F0E3FD00BFD7
:101D44000121074800F0F8FD0346002BF8D00448B1
:101D540000F0E6FD0346DBB218460837BD4680BDF9
:101D64000038004080B58CB000AF78603960002343
:101D7400FB620023BB6200237B6200233B620023DF
:101D8400FB617B68FB617B681B8A9BB2FB62FA6A1E
:101D94004CF6FF731340FB623B68DB881A46FB6A10
:101DA4001343FB62FB6A9AB27B681A827B689B8945
:101DB4009BB2FB62FA6A4EF6F3131340FB623B6874
:101DC4009A883B681B8913439AB23B685B89134327
:101DD4009BB21A46FB6A1343FB62FB6A9AB27B68A6
:101DE4009A817B689B8A9BB2FB62FA6A4FF6FF4337
:101DF4001340FB623B689B891A46FB6A1343FB62F0
:101E0400FB6A9AB27B689A8207F108031846FFF7C7
:101E140097FEFB692E4A934202D17B69BB6201E0C3
:101E24003B69BB627B689B899BB21BB2002B0CDABB
:101E3400BA6A13469B0013449A001A443B681B6811
:101E44005B00B2FBF3F37B620BE0BA6A13469B00C0
:101E540013449A001A443B681B689B00B2FBF3F3DB
:101E64007B627B6A1B4AA2FB03235B091B01FB62A7
:101E7400FB6A1B09642202FB03F37A6AD31A3B62EE
:101E84007B689B899BB21BB2002B0CDA3B6ADB009C
:101E94003233104AA2FB03235B0903F00703FA6AF7
:101EA4001343FB620BE03B6A1B013233094AA2FB7A
:101EB40003235B0903F00F03FA6A1343FB62FB6A13
:101EC4009AB27B681A8100BF3037BD4680BD00BF1F
:101ED400003801401F85EB5180B483B000AF7860B7
:101EE4000B46FB70FB78002B08D07B689B899BB268
:101EF40043F400539AB27B689A8107E07B689B891C
:101F04009BB223F400539AB27B689A8100BF0C37CA
:101F1400BD4680BC704780B487B000AF78600B4684
:101F24007B8013467B7000233B610023FB6000230E
:101F3400BB6000237B617B687B617B88DBB25B09D0
:101F4400DBB23B617B8803F01F03FB600122FB686B
:101F540002FA03F3BB603B69012B03D17B690C33A9
:101F64007B6109E03B69022B03D17B6910337B6100
:101F740002E07B6914337B617B78002B06D07B699C
:101F840019687B69BA680A431A6006E07B691968B4
:101F9400BB68DA437B690A401A6000BF1C37BD4640
:101FA40080BC704780B485B000AF78600A4B1B6872
:101FB400002B02D1084B094A1A60074B1B68FB60CF
:101FC400054B1A687B681344034A1360FB68184680
:101FD4001437BD4680BC7047B00800205012002062
:101FE40080B483B000AF78604FF0FF3318460C37ED
:101FF400BD4680BC704780B483B000AF7860396060
:102004003B684FF400525A60002318460C37BD4613
:1020140080BC704780B483B000AF78600123184659
:102024000C37BD4680BC704780B485B000AFF86003
:10203400B9607A60002318461437BD4680BC7047E7
:1020440080B485B000AFF860B9607A607B681846E8
:102054001437BD4680BC704780B584B000AFF860CB
:10206400B9607A607968B86800F0A2F97B681846AC
:102074001037BD4680BD000080B586B000AF012199
:102084000820FFF70DFEC023BB821C23FB7503232E
:10209400BB7507F1140319461148FEF7F3FD01213E
:1020A4004FF40010FFF71AFE00233B814BF6FF7339
:1020B4007B810023BB814FF48063FB814FF4804319
:1020C4003B82084B7B603B1D1946074800F050FCDF
:1020D4000121054800F00EFD00BF1837BD4680BD44
:1020E400000C0140801A06000054004080B582B004
:1020F40000AF0346FB710C48FEF7B8F900227821C3
:102104000948FEF7DFF900210748FEF709FAFB79D1
:1021140019460548FEF704FA0348FEF7C7F900BF5D
:102124000837BD4680BD00BF0054004080B584B070
:1021340000AF78600B467B801248FEF797F90022C7
:1021440078211048FEF7BEF940210E48FEF7E8F961
:102154000023FB810AE0FB897A6813441B78194643
:102164000848FEF7DDF9FB890133FB81FA897B8896
:102174009A42F0D30348FEF799F900BF1037BD46E1
:1021840080BD00BF0054004080B584B000AF7860CB
:102194000B467B800020FFF78FF87B881946786810
:1021A400FEF753FE4FF4F070FFF786F87B8819466C
:1021B4007868FEF73CFE4620FFF77EF87B881946D8
:1021C4007868FEF71BFE0346FB604FF4CD70FFF703
:1021D40073F8FB6818461037BD4680BD80B584B0DF
:1021E40000AFF8600B467A607B817B68002B10D0CF
:1021F4007B891946F868FEF728FE0620FFF75CF88D
:102204007B891946F868FEF712FE4020FFF754F860
:102214000FE07B891946F868FEF717FE3C20FFF7AC
:102224004BF87B891946F868FEF701FE0A20FFF790
:1022340043F800BF1037BD4680BD80B584B000AF01
:1022440078600B467B807B8819467868FEF7FDFD35
:102254000620FFF731F87B8819467868FEF7E7FD1A
:102264000920FFF729F87B8819467868FEF7C6FD30
:102274000346FB603720FFF71FF8FB68184610374A
:10228400BD4680BD80B586B000AFF8600B467A606D
:102294007B8100237B610DE07B6803F001027B8975
:1022A4001946F868FFF79AFF7B685B107B607B69CF
:1022B40001337B617B69072BEEDD00BF1837BD4618
:1022C40080BD80B584B000AF78600B467B8000236E
:1022D400BB600023FB6011E0BB685B10BB607B88C4
:1022E40019467868FFF7A9FF0346002B03D0BB68A3
:1022F40043F08003BB60FB680133FB60FB68072B82
:10230400EADDBB6818461037BD4680BD80B582B093
:1023140000AF78604FF4867200210C48FDF790FFFF
:10232400142200210A48FDF78BFF084B01221A7280
:10233400084B00221A70786800F0C6FC064B074A66
:102344001A6000BF0837BD4680BD00BF38110020A9
:102354002411002044120020180D0020D51A000872
:1023640080B483B000AF78600F4B1B68DBB27A682F
:10237400D1B20D4A13440A465A720B4B1B680133FF
:10238400094A1360084B00221A72084B9B899BB2BE
:10239400064A43F080039BB29381002318460C370E
:1023A400BD4680BC704700BF381100200038014092
:1023B40080B584B000AF786039600023FB6009E029
:1023C4007B685A1C7A601B781846FFF7C9FFFB68C4
:1023D4000133FB60FA683B689A42F1DB00BF1037B7
:1023E400BD4680BD80B584B000AF78600B467B806D
:1023F4000023FB810BE00A4B1A687B68591C796047
:102404001B78194607489047FB890133FB81FA89F9
:102414007B889A42EFD300BF1037BD4680BD00BF12
:10242400180D00201879000880B500AF044B1B6814
:1024340004489847024B1B680348984700BF80BD77
:10244400180D0020207900082879000880B500AF15
:10245400094B1B7ADBB23F2B02D1FFF7E5FF08E003
:10246400064B1B68044A127AD2B2114604489847B4
:1024740000BF00BF80BD00BF24110020180D002044
:102484004C79000880B487B000AF786000237B618A
:1024940000233B610F23FB607B68DB78002B3AD081
:1024A400274BDB68DB431B0A03F007037B617B6973
:1024B400C3F104033B61FA687B6922FA03F3FB600E
:1024C4007B685B781A463B6902FA03F37B617B689D
:1024D4009B781A46FB6813407A6913437B617B69D6
:1024E4001B017B61174A7B681B787969C9B2134465
:1024F4000A4683F800237B681B7803F01F03114905
:102504007A6812785209D2B21046012202FA03F311
:1025140041F820300FE07B681B7803F01F03094962
:102524007A6812785209D2B2104601229A4000F118
:10253400200341F8232000BF1C37BD4680BC7047F0
:1025440000ED00E000E100E080B400AF00BFBD4654
:1025540080BC704780B500AFFFF78EFDFFF7F4FF36
:102564003348FEF7A9FEAE20FFF7C0FD2020FFF799
:10257400BDFD1020FFF7BAFDB020FFF7B7FDC8205E
:10258400FFF7B4FD0020FFF7B1FD1020FFF7AEFD0B
:102594004020FFF7ABFD8120FFF7A8FDFF20FFF7E8
:1025A400A5FDA120FFF7A2FDA620FFF79FFDA8200F
:1025B400FFF79CFD3F20FFF799FDA420FFF796FD50
:1025C400D320FFF793FD0020FFF790FDD520FFF700
:1025D4008DFDF020FFF78AFDD920FFF787FD22202B
:1025E400FFF784FDDA20FFF781FD1220FFF77EFD5F
:1025F400DB20FFF77BFD2020FFF778FD8D20FFF720
:1026040075FD1420FFF772FDAF20FFF76FFD00206A
:1026140000F012F800F032F8064B00221A80054B45
:1026240000225A80034B01225A7100BF80BD00BFB3
:10263400A0860100B40C002080B485B000AF03462E
:10264400FB710023FB600DE0FB79002B01D100211D
:1026540000E0FF21084AFB6813440A461A70FB682D
:102664000133FB60FB68B3F5806FEDD300BF143713
:10267400BD4680BC704700BFB408002080B582B05E
:1026840000AF0023FB7116E0FB79503BDBB2184628
:10269400FFF72CFD0020FFF729FD1020FFF726FD92
:1026A400FB79DB01074A134480211846FFF73EFDFE
:1026B400FB790133FB71FB79072BE5D900BF0837A0
:1026C400BD4680BDB408002080B483B000AF03468B
:1026D400FB710B46BB7113467B7197F90730002BD6
:1026E40048DBBB793F2B45D8254B1B79002B06D003
:1026F4007B79002B0CBF01230023DBB27B717B7938
:10270400012B1AD1FA79BB79DB08D8B20346DB0175
:1027140013441C4AD35C5AB2BB7903F0070301216A
:1027240001FA03F35BB2134359B2FA790346DB01AE
:102734001344C9B2134AD1541DE0FA79BB79DB08BA
:10274400D8B20346DB0113440E4AD35C5AB2BB79B8
:1027540003F00703012101FA03F35BB2DB435BB22D
:10276400134059B2FA790346DB011344C9B2054A4E
:10277400D15400E000BF0C37BD4680BC704700BF99
:10278400B40C0020B408002090B589B000AF044612
:10279400381D80E806001A462346FB731346BB73B4
:1027A400384B1B881A463B7913447F2B06DC354B88
:1027B4005B881A467B7913443F2B01DD00235DE0DF
:1027C4000023FB614CE0BA68FB7B203B797901FB79
:1027D40003F31946FB690B445B0013441B887B61BC
:1027E4000023BB6134E07A69BB6902FA03F303F4A2
:1027F4000043002B12D0234B1B88DAB2BB69DBB237
:102804001344D8B21F4B5B88DAB2FB69DBB21344C2
:10281400DBB2BA7B1946FFF757FF16E0194B1B884A
:10282400DAB2BB69DBB21344D8B2164B5B88DAB2B6
:10283400FB69DBB21344D9B2BB7B002B0CBF012371
:102844000023DBB21A46FFF73FFFBB690133BB61CC
:102854003B791A46BB699342C5D3FB690133FB61DB
:102864007B791A46FB699342ADD3064B1A883B79B0
:102874009BB213449AB2034B1A80FB7B184624374D
:10288400BD4690BDB40C002080B584B000AFF860A4
:10289400381D80E80600FB7012E0FB681878FB78AE
:1028A4003A1D06CAFFF770FF03461A46FB681B78F9
:1028B4009A4202D0FB681B7808E0FB680133FB6096
:1028C400FB681B78002BE8D1FB681B78184610378F
:1028D400BD4680BD80B483B000AF03460A46FB7199
:1028E4001346BB71FB799AB2054B1A80BB799AB235
:1028F400034B5A8000BF0C37BD4680BC704700BFF5
:10290400B40C002080B483B000AF78600B467B80A9
:102914007B687A889A8100BF0C37BD4680BC7047BB
:1029240080B483B000AF78607B689B899BB2184603
:102934000C37BD4680BC704780B485B000AF78606A
:102944000B467B800023FB737B681B899AB27B88D0
:1029540013409BB2002B02D00123FB7301E0002340
:10296400FB73FB7B18461437BD4680BC70470000E0
:1029740080B58AB000AF786039600023FB840023FF
:102984007B840423BB84574BFB617B689B88FB845B
:10299400FB8C23F03F03FB8407F108031846FFF781
:1029A400CFF83B69FB61FB694F4AA2FB03239B0CF5
:1029B4007B84FA8C7B8C1343FB847B68FA8C9A802F
:1029C4007B681B889BB223F001039AB27B681A8050
:1029D4000023FB843B681B68444A934215D83B6838
:1029E4001B685B00FA69B2FBF3F3BB84BB8C032B5B
:1029F40001D80423BB84FA8CBB8C1343FB847B8CEB
:102A040001339AB27B681A8440E03B68DB884BF65A
:102A1400FF72934209D13B681A6813465B00134462
:102A2400FA69B2FBF3F3BB840EE03B681A68134601
:102A34009B0013449A001344FA69B2FBF3F3BB847A
:102A4400BB8C43F48043BB84BB8CC3F30B03002BCC
:102A540003D1BB8C43F00103BB84BA8CFB8C1343BE
:102A64009BB26FEA43436FEA5343FB847B8C4FF47E
:102A7400967202FB03F31E4A82FB03129211DB17C8
:102A8400D31A9BB201339AB27B681A847B68FA8C9E
:102A94009A837B681B889BB243F001039AB27B68DC
:102AA4001A807B681B88FB84FB8C23F4816323F0EE
:102AB4000203FB843B689A883B685B8913439AB2A0
:102AC400FB8C1343FB847B68FA8C1A803B689A89DD
:102AD4003B681B8913439AB27B681A8100BF28376D
:102AE400BD4680BD00127A0083DE1B43A086010030
:102AF400D34D621080B483B000AF78600B46FB7096
:102B0400FB78002B08D07B681B889BB243F0010341
:102B14009AB27B681A8007E07B681B889BB223F01B
:102B240001039AB27B681A8000BF0C37BD4680BC93
:102B3400704780B483B000AF78600B46FB70FB78BD
:102B4400002B08D07B681B889BB243F480739AB235
:102B54007B681A8007E07B681B889BB223F4807330
:102B64009AB27B681A8000BF0C37BD4680BC7047A0
:102B740080B483B000AF78600B46FB70FB78002B09
:102B840008D07B681B889BB243F400739AB27B68BD
:102B94001A8007E07B681B889BB223F400739AB207
:102BA4007B681A8000BF0C37BD4680BC704780B478
:102BB40083B000AF78600B46FB70FB789AB27B68F9
:102BC4001A8200BF0C37BD4680BC704780B483B006
:102BD40000AF78600B46FB701346BB70BB78002BCC
:102BE40004D0FB7843F00103FB7003E0FB7823F08F
:102BF4000103FB70FB789AB27B681A8200BF0C3722
:102C0400BD4680BC704780B487B000AF786039603F
:102C140000233B610023FB600023BB600023FB75A2
:102C24007B689B8A9BB2FB607B681B8B9BB2BB60FF
:102C3400BB681B04BB60FA68BB68134323F07F4383
:102C44003B613A693B6813403A689A4202D10123D6
:102C5400FB7501E00023FB75FB7D18461C37BD4660
:102C640080BC704780B487B000AF786039600023BF
:102C7400FB7500233B610023FB607B68FB603B68C2
:102C84001B0F3B613B6823F07F433B603B69002B98
:102C940003D0FB681433FB6005E03B681B0C3B600E
:102CA400FB681833FB60FB681A683B681340002B11
:102CB40002D00123FB7501E00023FB75FB7D184660
:102CC4001C37BD4680BC704780B588B000AF7860C3
:102CD40001210520FEF7E4FF01214FF48040FEF7B7
:102CE400DFFF4FF40073BB831823FB770323BB7709
:102CF40007F11C0319462048FDF7C4FF4FF4806315
:102D0400BB830423FB7707F11C0319461A48FDF71C
:102D1400B9FF7B68FB6000233B8200237B82002396
:102D2400BB8200233B830C23FB8207F10C0319466F
:102D34001248FFF717F8012240F225510F48FFF718
:102D4400EAF8012240F227710C48FFF7E4F8252342
:102D54003B7200237B720023BB720123FB7207F1D9
:102D640008031846FFF78EFB01210448FFF7B4F867
:102D740000BF2037BD4680BD000801400038014037
:102D840080B483B000AF2A4B1B889BB203F02003AE
:102D9400002B11D0264B9B889BB2FB71254AFB79F3
:102DA4001372254B01221A70214B1B889BB2204AB7
:102DB40023F020039BB213801D4B1B889BB203F0AE
:102DC4008003002B2FD01D4B1A681C4B5B689A4262
:102DD40016D01A4B5B68DBB2184A13445B7ADAB23A
:102DE400134B92B29A80154B5B68DBB2134A1344BF
:102DF40000225A72114B5B680133104A53600AE097
:102E04000B4B9B899BB20A4A23F080039BB29381AC
:102E14000A4B01221A72064B1B889BB2044A23F008
:102E240080039BB2138000BF0C37BD4680BC704743
:102E340000380140241100204412002038110020E1
:102E440080B582B000AF4FF40063BB801423FB71E4
:102E54000323BB713B1D19460748FDF713FF4FF4CD
:102E64008053BB803B1D19460348FDF70BFF00BF91
:102E74000837BD4680BD00BF0008014080B584B05E
:102E840000AF0346FB71FB79012B05D1374BFB6087
:102E94004FF480537B8105E0344BFB604FF40063B7
:102EA4007B8100BF7B891946F868FFF76DF940F212
:102EB4007710FEF701FA7B89CC221946F868FFF7F0
:102EC400E1F90C20FEF7F8F97B8944221946F868E9
:102ED400FFF7D8F92648FEF7EFF97B891946F86819
:102EE400FFF752F940F27710FEF7E6F97B89CC221E
:102EF4001946F868FFF7C6F90C20FEF7DDF97B895F
:102F0400BE221946F868FFF7BDF90C20FEF7D4F984
:102F14007B891946F868FFF7D4F90346DBB23B72A4
:102F24000220FEF7C9F97B891946F868FFF7C9F949
:102F34000346DBB27B727B891946F868FFF724F9F4
:102F4400B7F90830184600F089FD03464FF0834175
:102F5400184600F08BFE0346184600F023FF034694
:102F64001BB218461037BD4680BD00BF00080140A3
:102F7400E093040090B583B000AF0346FB71FC7985
:102F8400FB791846FFF77AFF03461A46034B23F8EA
:102F9400142000BF0C37BD4690BD00BF481200206E
:102FA40080B500AF0020FFF7E5FF0120FFF7E2FF47
:102FB40000BF80BD80B483B000AF03463960FB809E
:102FC400B7F90630002B07DA3B682D221A70FB880C
:102FD4005B429BB2FB8013E0FB8863339BB2C62B3E
:102FE4000BD9FB881C4AA2FB03235B099BB2DBB20F
:102FF4003033DAB23B681A7002E03B682B221A7055
:10300400FB88164AA2FB0323DB089AB2134BA3FBEB
:103014000213D9080B469B000B445B00D31A9BB2E6
:10302400DAB23B6801333032D2B21A70FA880B4BF1
:10303400A3FB0213D9080B469B000B445B00D31A75
:103044009BB2DAB23B6802333032D2B21A7000BF9C
:103054000C37BD4680BC70471F85EB51CDCCCCCC22
:1030640080B582B000AF0B4B7B600B4BB3F90030E3
:103074003A1D11461846FFF79DFF074BB3F902307E
:103084003A1D11461846FFF795FF00BF0837BD46A5
:1030940080BD00BF303030004812002080B500AF42
:1030A4000F4B1B680F4898470D4B1B680E4AB2F92B
:1030B400002011460D489847094B1B680A4AB2F98B
:1030C400022011460A489847054B1B68094898474F
:1030D400034B1B6802210848984700BF80BD00BF0E
:1030E400180D002060790008481200206879000853
:1030F40078790008887900089079000881F0004107
:1031040002E000BF83F0004330B54FEA41044FEAC8
:10311400430594EA050F08BF90EA020F1FBF54EA63
:10312400000C55EA020C7FEA645C7FEA655C00F0FF
:10313400E2804FEA5454D4EB5555B8BF6D420CDDD0
:103144002C4480EA020281EA030382EA000083EA53
:10315400010180EA020281EA0303362D88BF30BDF3
:1031640011F0004F4FEA01314FF4801C4CEA113149
:1031740002D0404261EB410113F0004F4FEA0333A8
:103184004CEA133302D0524263EB430394EA050F33
:1031940000F0A780A4F10104D5F1200E0DDB02FAA2
:1031A4000EFC22FA05F2801841F1000103FA0EF236
:1031B400801843FA05F359410EE0A5F120050EF1FC
:1031C400200E012A03FA0EFC28BF4CF0020C43FA2D
:1031D40005F3C01851EBE37101F0004507D54FF03A
:1031E400000EDCF1000C7EEB00006EEB0101B1F58A
:1031F400801F1BD3B1F5001F0CD349085FEA3000D0
:103204004FEA3C0C04F101044FEA445212F5800FDA
:1032140080F09A80BCF1004F08BF5FEA500C50F177
:10322400000041EB045141EA050130BD5FEA4C0C5A
:10323400404141EB010111F4801FA4F10104E9D1E3
:1032440091F0000F04BF01460020B1FA81F308BFDA
:103254002033A3F10B03B3F120020CDA0C3208DDA6
:1032640002F1140CC2F10C0201FA0CF021FA02F181
:103274000CE002F11402D8BFC2F1200C01FA02F1F1
:1032840020FA0CFCDCBF41EA0C019040E41AA2BF16
:1032940001EB0451294330BD6FEA04041F3C1CDADE
:1032A4000C340EDC04F11404C4F1200220FA04F0FE
:1032B40001FA02F340EA030021FA04F345EA0301A8
:1032C40030BDC4F10C04C4F1200220FA02F001FA6A
:1032D40004F340EA0300294630BD21FA04F02946EC
:1032E40030BD94F0000F83F4801306BF81F4801185
:1032F4000134013D4EE77FEA645C18BF7FEA655CF8
:1033040029D094EA050F08BF90EA020F05D054EAC9
:10331400000C04BF1946104630BD91EA030F1EBFCE
:103324000021002030BD5FEA545C05D140004941D2
:1033340028BF41F0004130BD14F580043CBF01F5C5
:10334400801130BD01F0004545F0FE4141F47001AB
:103354004FF0000030BD7FEA645C1ABF1946104686
:103364007FEA655C1CBF0B46024650EA013406BF87
:1033740052EA033591EA030F41F4002130BD00BF46
:1033840090F0000F04BF0021704730B54FF4806403
:1033940004F132044FF000054FF0000150E700BF84
:1033A40090F0000F04BF0021704730B54FF48064E3
:1033B40004F1320410F0004548BF40424FF00001D0
:1033C4003EE700BF42004FEAE2014FEA31014FEA13
:1033D40002701FBF12F07F4393F07F4F81F0605162
:1033E400704732F07F4208BF704793F07F4F04BFAD
:1033F40041F40021704730B54FF4607401F000458A
:1034040021F000411CE700BF50EA010208BF7047E9
:1034140030B54FF000050AE050EA010208BF7047DA
:1034240030B511F0004502D5404261EB41014FF443
:10343400806404F132045FEA915C3FF4D8AE4FF04B
:1034440003025FEADC0C18BF03325FEADC0C18BF2E
:10345400033202EBDC02C2F1200300FA03FC20FA7F
:1034640002F001FA03FE40EA0E0021FA02F11444CC
:10347400BDE600BF70B54FF0FF0C4CF4E06C1CEAE5
:1034840011541DBF1CEA135594EA0C0F95EA0C0F56
:1034940000F0DEF82C4481EA030621EA4C5123EAC9
:1034A4004C5350EA013518BF52EA033541F48011F8
:1034B40043F4801338D0A0FB02CE4FF00005E1FBAB
:1034C40002E506F00042E0FB03E54FF00006E1FBF5
:1034D40003569CF0000F18BF4EF0010EA4F1FF0438
:1034E400B6F5007F64F5407404D25FEA4E0E6D4178
:1034F40046EB060642EAC62141EA55514FEAC52089
:1035040040EA5E504FEACE2EB4F1FD0C88BFBCF504
:10351400E06F1ED8BEF1004F08BF5FEA500E50F1B5
:10352400000041EB045170BD06F0004646EA01017B
:1035340040EA020081EA0301B4EB5C04C2BFD4EBAD
:103544000C0541EA045170BD41F480114FF0000EA6
:10355400013C00F3AB8014F1360FDEBF002001F014
:10356400004170BDC4F10004203C35DA0C341BDC8E
:1035740004F11404C4F1200500FA05F320FA04F060
:1035840001FA05F240EA020001F0004221F0004194
:1035940010EBD37021FA04F642EB06015EEA430E07
:1035A40008BF20EAD37070BDC4F10C04C4F1200537
:1035B40000FA04F320FA05F001FA04F240EA0200EA
:1035C40001F0004110EBD37041F100015EEA430EBB
:1035D40008BF20EAD37070BDC4F1200500FA05F2DB
:1035E4004EEA020E20FA04F301FA05F243EA02035A
:1035F40021FA04F001F0004121FA04F220EA020069
:1036040000EBD3705EEA430E08BF20EAD37070BDAE
:1036140094F0000F0FD101F00046400041EB01018E
:1036240011F4801F08BF013CF7D041EA060195F070
:10363400000F18BF704703F00046520043EB03032A
:1036440013F4801F08BF013DF7D043EA0603704717
:1036540094EA0C0F0CEA135518BF95EA0C0F0CD022
:1036640050EA410618BF52EA4306D1D181EA030168
:1036740001F000414FF0000070BD50EA410606BF62
:103684001046194652EA430619D094EA0C0F02D1A7
:1036940050EA013613D195EA0C0F05D152EA0336EC
:1036A4001CBF104619460AD181EA030101F000410A
:1036B40041F0FE4141F470014FF0000070BD41F053
:1036C400FE4141F4780170BD70B54FF0FF0C4CF42D
:1036D400E06C1CEA11541DBF1CEA135594EA0C0F4C
:1036E40095EA0C0F00F0A7F8A4EB050481EA030E99
:1036F40052EA03354FEA013100F088804FEA033380
:103704004FF0805545EA131343EA12634FEA02224D
:1037140045EA111545EA10654FEA00260EF000410E
:103724009D4208BF964244F1FD0404F5407402D260
:103734005B084FEA3202B61A65EB03055B084FEAF1
:1037440032024FF480104FF4002CB6EB020E75EBEE
:10375400030E22BFB61A754640EA0C005B084FEA16
:103764003202B6EB020E75EB030E22BFB61A754693
:1037740040EA5C005B084FEA3202B6EB020E75EBDE
:10378400030E22BFB61A754640EA9C005B084FEA56
:103794003202B6EB020E75EB030E22BFB61A754663
:1037A40040EADC0055EA060E18D04FEA051545EA52
:1037B40016754FEA06164FEAC30343EA52734FEAFB
:1037C400C2025FEA1C1CC0D111F4801F0BD141EA74
:1037D40000014FF000004FF0004CB6E711F4801FD9
:1037E40004BF01430020B4F1FD0C88BFBCF5E06FB9
:1037F4003FF6AFAEB5EB030C04BFB6EB020C5FEAC9
:10380400500C50F1000041EB045170BD0EF0004E1D
:103814004EEA113114EB5C04C2BFD4EB0C0541EA4F
:10382400045170BD41F480114FF0000E013C90E64C
:1038340045EA060E8DE60CEA135594EA0C0F08BF10
:1038440095EA0C0F3FF43BAF94EA0C0F0AD150EA0F
:1038540001347FF434AF95EA0C0F7FF425AF1046A2
:1038640019462CE795EA0C0F06D152EA03353FF4CA
:10387400FDAE1046194622E750EA410618BF52EA47
:1038840043067FF4C5AE50EA41047FF40DAF52EA1B
:1038940043057FF4EBAE12E74FEA410212F5001242
:1038A40015D211D56FF47873B3EB625212D94FEA83
:1038B400C12343F0004343EA505311F0004F23FA6D
:1038C40002F018BF404270474FF00000704750EAC2
:1038D400013005D111F0004008BF6FF0004070477F
:1038E4004FF00000704700BF80F0004002E000BFCE
:1038F40081F0004142001FBF5FEA410392EA030FD7
:103904007FEA226C7FEA236C6AD04FEA1262D2EB20
:103914001363C1BFD218414048404140B8BF5B4225
:10392400192B88BF704710F0004F40F4000020F0BE
:103934007F4018BF404211F0004F41F4000121F0D4
:103944007F4118BF494292EA030F3FD0A2F101021E
:1039540041FA03FC10EB0C00C3F1200301FA03F15C
:1039640000F0004302D5494260EB4000B0F5000F7F
:1039740013D3B0F1807F06D340084FEA310102F13E
:103984000102FE2A51D2B1F1004F40EBC25008BFF0
:1039940020F0010040EA03007047490040EB0000BA
:1039A40010F4000FA2F10102EDD1B0FA80FCACF1E9
:1039B400080CB2EB0C0200FA0CF0AABF00EBC250E8
:1039C40052421843BCBFD0401843704792F0000FD6
:1039D40081F4000106BF80F400000132013BB5E729
:1039E4004FEA41037FEA226C18BF7FEA236C21D09F
:1039F40092EA030F04D092F0000F08BF0846704704
:103A040090EA010F1CBF0020704712F07F4F04D1D1
:103A1400400028BF40F00040704712F100723CBFE4
:103A240000F50000704700F0004343F0FE4040F40E
:103A3400000070477FEA226216BF08467FEA2363CC
:103A44000146420206BF5FEA412390EA010F40F4B7
:103A5400800070474FF0000304E000BF10F0004303
:103A640048BF40425FEA000C08BF704743F09643EA
:103A740001464FF000001CE050EA010208BF704705
:103A84004FF000030AE000BF50EA010208BF70478C
:103A940011F0004302D5404261EB41015FEA010CA1
:103AA40002BF84460146002043F0B64308BFA3F199
:103AB4008053A3F50003BCFA8CF2083AA3EBC2537B
:103AC40010DB01FA02FC634400FA02FCC2F120029A
:103AD400BCF1004F20FA02F243EB020008BF20F0D1
:103AE4000100704702F1200201FA02FCC2F1200237
:103AF40050EA4C0021FA02F243EB020008BF20EA2C
:103B0400DC7070474FF0FF0C1CEAD0521EBF1CEA59
:103B1400D15392EA0C0F93EA0C0F6FD01A4480EA47
:103B2400010C400218BF5FEA41211ED04FF0006330
:103B340043EA501043EA5111A0FB01310CF000405C
:103B4400B1F5000F3EBF490041EAD3715B0040EA82
:103B5400010062F17F02FD2A1DD8B3F1004F40EB52
:103B6400C25008BF20F00100704790F0000F0CF025
:103B7400004C08BF49024CEA502040EA51207F3AE9
:103B8400C2BFD2F1FF0340EAC250704740F40000C4
:103B94004FF00003013A5DDC12F1190FDCBF00F0B5
:103BA40000407047C2F10002410021FA02F1C2F163
:103BB400200200FA02FC5FEA310040F1000053EAFF
:103BC4004C0308BF20EADC70704792F0000F00F04D
:103BD400004C02BF400010F4000F013AF9D040EA53
:103BE4000C0093F0000F01F0004C02BF490011F4E7
:103BF400000F013BF9D041EA0C018FE70CEAD153E5
:103C040092EA0C0F18BF93EA0C0F0AD030F0004C64
:103C140018BF31F0004CD8D180EA010000F0004018
:103C2400704790F0000F17BF90F0004F084691F0D6
:103C3400000F91F0004F14D092EA0C0F01D1420210
:103C44000FD193EA0C0F03D14B0218BF084608D1D9
:103C540080EA010000F0004040F0FE4040F4000023
:103C6400704740F0FE4040F4400070474FF0FF0CB6
:103C74001CEAD0521EBF1CEAD15392EA0C0F93EAFD
:103C84000C0F69D0A2EB030280EA010C49024FEA4F
:103C9400402037D04FF0805343EA111143EA101308
:103CA4000CF000408B4238BF5B0042F17D024FF4C0
:103CB400000C8B4224BF5B1A40EA0C00B3EB510F9B
:103CC40024BFA3EB510340EA5C00B3EB910F24BF84
:103CD400A3EB910340EA9C00B3EBD10F24BFA3EB09
:103CE400D10340EADC001B0118BF5FEA1C1CE0D1D1
:103CF400FD2A3FF650AF8B4240EBC25008BF20F084
:103D0400010070470CF0004C4CEA50207F32C2BFD7
:103D1400D2F1FF0340EAC250704740F400004FF074
:103D24000003013A37E792F0000F00F0004C02BFA5
:103D3400400010F4000F013AF9D040EA0C0093F06F
:103D4400000F01F0004C02BF490011F4000F013BC9
:103D5400F9D041EA0C0195E70CEAD15392EA0C0F31
:103D640008D142027FF47DAF93EA0C0F7FF470AF69
:103D7400084676E793EA0C0F04D14B023FF44CAFAC
:103D840008466EE730F0004C18BF31F0004CCAD141
:103D940030F000427FF45CAF31F000437FF43CAF7D
:103DA4005FE700BF4FEA4002B2F1FE4F0FD34FF07E
:103DB4009E03B3EB12620DD94FEA002343F0004394
:103DC40010F0004F23FA02F018BF404270474FF042
:103DD4000000704712F1610F01D1420205D110F0C9
:103DE400004008BF6FF0004070474FF0000070477C
:103DF400144B70B51D6806460C460DB1AB6B9BB1F8
:103E0400636ED80702D4A389990516D5284622469D
:103E1400314600F07BF8636E0546DA0702D4A389C5
:103E24009B0505D5284670BD284600F06BFAE7E7E8
:103E3400A06DFCF77FFA284670BDA06DFCF778FAF8
:103E4400E4E700BF000000208842F0B40DD98B18CD
:103E540083420AD9841832B1224613F8014D99429B
:103E640002F8014DF9D1F0BC70470F2A48D940EA55
:103E740001039B0746D1A2F110031B0901F120079E
:103E840007EB031701F1100400F1100554F8106C4E
:103E9400103445F8106C54F81C6C103545F81C6C43
:103EA40054F8186C45F8186C54F8146CBC4245F876
:103EB400146CEBD1013302F00F051B01032D1944DF
:103EC400034421D90F462C461E1F57F804CB043C4B
:103ED400032C46F804CFF8D82C1F24F00304043430
:103EE4002344214402F00302002ABCD0013B0A44CB
:103EF40011F8014B914203F8014FF9D1F0BC70471E
:103F04000346F1E70346F1E72A46EDE7F8B50E4626
:103F14001446074608B1836BBBB1636ED80702D45D
:103F2400A389990526D5A368013B002BA3600FDB69
:103F3400F5B223685A1C22601E70636EDA0702D43D
:103F4400A3899B0511D52846F8BD00F0DBF9E4E709
:103F5400A269934202DBF5B20A2DEAD13146384612
:103F6400224600F00BF80546E7E7A06DFCF7E2F9FE
:103F74002846F8BDA06DFCF7DBF9D4E7F8B50D468B
:103F84001446064610B1836B002B43D0B4F90C20C1
:103F9400A36991B20807A3601BD52369CBB1EDB225
:103FA40089042F4622D522686169D31A994229DDF2
:103FB4000133A168501C0139A16020601570626949
:103FC4009A422AD0A389DB0701D50A2D25D0384689
:103FD400F8BD2146304600F029F820BBB4F90C2086
:103FE400EDB291B2890423692F46DCD4616E42F4A8
:103FF400005221F40051A281226861666169D31ADA
:104004009942D5DC2146304600F020F958B9012305
:104014002268CEE700F076F9B8E72146304600F092
:1040240015F90028D3D04FF0FF37D0E738B5314B1E
:10403400054618680C4610B1836B002B3AD0B4F9CE
:104044000C2093B218070CD52069A8B113F0010213
:1040540020D000226369A2605B42A36100B3002008
:1040640038BDD9063DD5580727D4206942F0080346
:10407400A3819BB20028E9D103F42072B2F5007F3A
:10408400E4D02846214600F013FBA389206913F0ED
:104094000102DED1990758BF6269A2600028DED10F
:1040A400B4F90C301A06DBD543F04003A3814FF07A
:1040B400FF3038BD00F026F9C1E7216B51B104F19E
:1040C4004003994204D0284600F0A8F9B4F90C2022
:1040D400002323630023206922F02402C4E900039F
:1040E400C4E7092342F040022B604FF0FF30A28165
:1040F40038BD00BF00000020B1F90C302DE9F041BB
:104104009AB20C461107804644D4626843F40063B3
:10411400002AA3815ADDA56A002D54D000229BB247
:10412400D8F80060E169C8F8002013F4805240F028
:10413400848001234046A847431C4BD0A389A56A29
:10414400E1695F0705D56268236B801A0BB1E36BE5
:10415400C01A024600234046A847451C46D0002109
:10416400B4F90C30226923F40063A381DB04C4E9AD
:10417400002100D52065216BC8F8006019B304F153
:104184004003994202D0404600F048F900202063E1
:10419400BDE8F0812669B6B1920718BF00232568EF
:1041A40008BF63692660AD1BA3600AE02B46324654
:1041B400676AE1694046B8470028A5EB0005064454
:1041C4002BDD002DF2DC0020BDE8F081E26B002A3B
:1041D400A1DCF8E7D8F80030002BAFD01D2B01D0BC
:1041E400162B2CD1C8F800600020EDE7D8F8005059
:1041F4001D2D1AD8144BB4F90C20EB40DB4313F0FB
:10420400010314D1216922F40062C4E90013D1042A
:10421400A281B0D5002DAED1ACE7A3894FF0FF3019
:1042240043F04003A381BDE8F081B4F90C2042F0CF
:104234004002A2814FF0FF30C6E7206D81E7A389D9
:1042440043F04003A381BFE70100402038B50D4689
:10425400044608B1836BA3B1B5F90C00B8B16B6E19
:10426400DB0701D481051AD520462946FFF744FF10
:104274006B6E0446DA0702D4AB899B050AD5204647
:1042840038BD00F03FF8B5F90C000028E7D104462A
:10429400204638BDA86DFCF74DF8204638BDA86D02
:1042A400FCF746F8E0E700BF002310B5044681811F
:1042B400C281C0E9003383604366C0E9043383618B
:1042C400194608225C30FBF7BBFF07480749084A38
:1042D400084BC4E90740C4E90912E36204F1580039
:1042E400BDE81040FCF720B8A94C0008CD4C0008EC
:1042F400094D0008294D0008014900F083B900BFA9
:10430400814D000810B504461448FCF711F8A26B5F
:10431400FAB90320124904F53B73C4F8E832C4F82F
:10432400E022C4F8E402E16360680421FFF7BCFF03
:10433400A06801220921FFF7B7FFE06802221221D9
:10434400FFF7B2FF01230548A363BDE81040FBF764
:10435400F1BF0248BDE81040FBF7ECBFFC0C0020A5
:10436400FD4200080148FBF7E3BF00BF100D002029
:104374000148FBF7DFBF00BF100D0020F8B50C4665
:10438400234F064600F070FCBB68C4F57E615D688F
:104394000F3125F00305294421F47F6121F00F0139
:1043A400A1F58054B4F5805F07DB0021304600F0AE
:1043B40067FCBB682B44984204D0304600F05AFC9A
:1043C4000020F8BD6142304600F05AFC01300DD0A7
:1043D400104BBA6819682D1B45F001053046091BBE
:1043E4005560196000F046FC0120F8BD00213046FC
:1043F40000F046FCBA68831A0F2BDEDD064943F051
:1044040001030C680349001B53600860D5E700BF33
:1044140074040020BC0C00207C080020002953D028
:10442400F8B50D46064600F01FFC55F804CC714F54
:10443400A5F108012CF00103CA18B8685468904229
:1044440024F0030453D01CF0010F546002EB040069
:104454003BD155F808CC4068A1EB0C018D6807F1FD
:10446400080E7545634400F0010075D0D1F80CC006
:10447400C5F80CC0CCF8085060B343F001024A60A0
:10448400CB50B3F5007F50D35A0A042A70D89A0946
:1044940002F13905ED0002F138007C197A59083C23
:1044A400944278D0506820F00300984271D9926801
:1044B4009442F7D1E368C1E9024330469960E16070
:1044C400BDE8F84000F0D6BB7047406800F001003A
:1044D4000028D2D19068484D2344A84243F00104F7
:1044E40062D0D268C26090604C60CB50C9E71CF0C7
:1044F400010F234407D155F8084C091BD1E90202E6
:104504002344C26090603D4A43F001001268486051
:104514009A42B96004D83A4B30461968FFF72EFF27
:104524003046BDE8F84000F0A5BB0122DB087C68FA
:10453400981013448240224307EBC30057F83340DA
:104544000838C1E902407A60304647F83310E16028
:10455400BDE8F84000F08EBB002845D1D2E9020244
:10456400234443F00104C26090604C60CB50D7E711
:10457400142A08D9542A1ED81A0B02F16F05ED002B
:1045840002F16E0089E702F15C05ED0002F15B00C7
:1045940083E714468EE701238210786803FA02F257
:1045A40002437A60234686E7C7E90411C1E90200A1
:1045B4004C60CB50B4E7B2F5AA7F06D8DA0B02F10F
:1045C4007805ED0002F1770067E740F2545082422B
:1045D40006D89A0C02F17D05ED0002F17C005CE73F
:1045E4004FF47E757E2058E743F001004860136065
:1045F40096E700BF740400207C040020800800209B
:10460400EC0C00202DE9F84310F538761ED08846CE
:1046140007464FF00009D6E90154013D10D4A3899F
:10462400013D012B08D9B4F90E30013304D02146E1
:104634003846C04749EA00096B1C04F16804EED10E
:104644003668002EE7D14846BDE8F883B1464846AF
:10465400BDE8F88370B50C46B1F90E1096B0002988
:1046640015461E460FDA0023A289336012F080003B
:1046740004D14FF480632B6016B070BD40221846FD
:104684002A6016B070BD6A4600F0E0FB0028EADB41
:10469400019B4FF4806203F47043A3F50053B3FA13
:1046A40083F34FF400605B0933602A6016B070BD79
:1046B4008A890B46920706D5012103F14302596109
:1046C4001A601A61704770B582B001AB6A460C4635
:1046D4000546FFF7BFFF00990646284600F032F86A
:1046E400B4F90C30D8B1164A0099EA63019A43F040
:1046F4008003A3812060C4E904011AB93343A38170
:1047040002B070BD2846B4F90E1000F0B3FBA0B19E
:10471400A38923F0030343F001031BB2EEE79A05D8
:10472400EED4012123F0030304F1430243F0020316
:10473400A381616122602261E2E7B4F90C30DDE714
:10474400FD4200082DE9F04F01F10B05162D83B051
:10475400064623D8102900F2B68000F085FA102509
:1047640018230220CC4F3B445C68A3F10802944216
:1047740000F056816368E16823F0030323445A6818
:10478400A56842F00102E96030468D605A6000F08D
:1047940071FA0834204603B0BDE8F08F35F0070500
:1047A40000F19180A94200F28E8000F05DFAB5F527
:1047B400FC7FC0F064816B0A00F08C80042B00F253
:1047C4003681AB0903F1390003F1380CC100B24F53
:1047D40039444C680839A14206D10CE0002A80F221
:1047E4001B81E468A14206D0636823F003035A1BCB
:1047F4000F2AF3DD60463C69DFF8B0C264456FD030
:10480400636823F003035A1B0F2A00F32681002A4E
:10481400C7E904CC80F21781B3F5007F80F0598199
:104824000122DB08991013448A40796857F833E071
:1048340007EBC3080A43A8F10801C4E902E17A605E
:1048440047F83340CEF80C40012483109C40944236
:104854004CD8144206D120F003006400144200F145
:104864000400FAD007EBC009CE468046DEF80C30CF
:104874009E4507D107E1002A80F21C81DB689E4532
:1048840000F00181596821F003014A1B0F2AF2DD6F
:1048940045F001083046D3E902E41D4442F0010624
:1048A400C3F80480CEF80C40C4F808E0C7E9045506
:1048B400C5E902CC6E605A50019300F0DBF9019B0C
:1048C40003F1080466E700240C232046336003B098
:1048D400BDE8F08F4FF4007140204FF03F0C76E7B5
:1048E40001247A6883109C409442B2D9BC686368FE
:1048F40023F00309A94503D3A9EB05030F2B7BDCA4
:10490400664BDFF8ACA11A68DAF8003005EB020850
:10491400013300F03A8108F5805808F10F0828F4B3
:104924007F6828F00F084146304600F0A9F9B0F13D
:10493400FF3F834600F0F68004EB0900584500F27F
:10494400EF80574A13684344136000F03F81DAF85C
:10495400001001311BBFABEB00001B18CAF800B0FC
:1049640013601BF0070300F02681C3F10801C3F5AF
:1049740080538B440833D844C8F30B08A3EB0808CE
:1049840041463046019200F07BF9431C019A00F045
:104994003881A0EB0B01414441F001011368BC4292
:1049A4004344C7F808B01360CBF8041015D0B9F12C
:1049B4000F0F40F222814FF0050E6168A9F10C003F
:1049C40020F0070001F00101014304EB000C0F2863
:1049D4006160CCE901EE00F22C81324A3248116860
:1049E400BC688B42016888BF136062688B4222F006
:1049F400030288BF036099E045F0010243F001031C
:104A0400254462603046BD6008346B6000F032F9C2
:104A1400204603B0BDE8F08F23445A68E168AFE64E
:104A2400DC68A34208BF02303FF4E5AEA2E6142BD3
:104A340070D9542B00F2AC802B0B03F16F0003F1FF
:104A44006E0CC100C3E623445A68304642F00102AA
:104A54005A60083400F00EF99CE645F0010E42F06D
:104A640001012544C4F804E03046C7E90455C5E90A
:104A740002CC6960E25000F0FDF808348AE6E808E8
:104A840005F108036EE608F1010818F0030F0EF1B2
:104A9400080E7FF4EBAE60E074040020EC0C002000
:104AA400BC0C0020E40C0020E80C00207C04002056
:104AB4007C0800201C4619444A68DB6854F8085FE7
:104AC40042F001024A603046EB609D6000F0D2F88B
:104AD40060E65A0A042A35D9142A6FD802F15C0117
:104AE400C9005B3207EB010E7958AEF1080E8E4512
:104AF40058D04A6822F003029A4202D989688E4546
:104B0400F7D1D1F80CE07A68C4E9021ECEF8084067
:104B1400CC6099E603F15C0003F15B0CC10056E63E
:104B2400BC4272D0BC68626822F003029542A2EBD8
:104B3400050302D80F2B3FF75FAF304600F09AF819
:104B4400002427E69A0902F13901C9003832C9E77D
:104B5400D9F80090994540F0838010F0030FA9F133
:104B6400080300F1FF30F3D17B6823EA04037B6080
:104B740064009C423FF6BAAE1CB9B7E6640008F183
:104B840004081C42FAD040466CE608F11008CAE654
:104B9400B3F5AA7F26D8EB0B03F1780003F1770C69
:104BA400C10014E64FF001087B68921008FA02F283
:104BB4001A437A60A8E74FF48053DCE6542A29D8D4
:104BC4001A0B02F16F01C9006E328BE7C0F30B01BF
:104BD40000297FF4BCAE09EB0802B96842F0010277
:104BE4004A60FAE640F2545293421CD8AB0C03F1EB
:104BF4007D0003F17C0CC100E9E50123CBF804300E
:104C04009BE701214FF00008C8E6164A13684344A5
:104C140013609CE6B2F5AA7F14D8DA0B02F178018E
:104C2400C90077325EE74FF47E717F204FF07E0C2F
:104C3400CDE504F1080130460192FFF7EFFB019A3C
:104C44001368CAE640F254518A4205D89A0C02F11C
:104C54007D01C9007C3245E74FF47E717E2241E735
:104C64007B6885E7BC0C00200148FBF761BB00BFF3
:104C7400000D00200148FBF75DBB00BF000D0020C4
:104C840038B50023064C054608462360FDF78AF92B
:104C9400431C00D038BD2368002BFBD02B6038BDEB
:104CA4004C12002010B50C46B1F90E1000F00AF9B0
:104CB400002803DB236D0344236510BDA38923F47B
:104CC4008053A38110BD00BF2DE9F041B1F90C4020
:104CD4009846E3050D461746B1F90E10064607D56A
:104CE4000223002200F0D8F8B5F90C40B5F90E10F3
:104CF40024F48054AC8143463A463046BDE8F04142
:104D040000F014B810B50C46B1F90E1000F0C4F858
:104D1400A389421C0EBF23F4805343F480532065BF
:104D2400A38110BDB1F90E1000F016B8F8B50E4607
:104D34000025084C114607461A4630462560FDF703
:104D44008BF9431C00D0F8BD2368002BFBD03B60DB
:104D5400F8BD00BF4C12002038B50023064C0546B0
:104D640008462360FDF73CF9431C00D038BD236896
:104D7400002BFBD02B6038BD4C12002070B50029ED
:104D840048D005460C4610B1836B002B48D0626EA8
:104D9400B4F90C30D00740D4990530D521462846C3
:104DA400FFF7AAF9E36A064633B1E1692846984752
:104DB4000028B8BF4FF0FF36A3891A063CD4216BF4
:104DC40041B104F14003994202D02846FFF726FB83
:104DD40000232363616C21B12846FFF71FFB0023E6
:104DE4006364FFF7BFFA0022636EA281DB071FD55D
:104DF400A06DFBF79BFAFFF7BBFA304670BDA06DC0
:104E0400FBF796FAB4F90C30002BC7D1666E16F096
:104E1400010616D00026304670BD002BFAD0BDE73F
:104E2400FFF770FA626EB4F90C30D007F5D4B3E72B
:104E3400A06DFBF77FFADBE721692846FFF7EEFA5E
:104E4400BDE7A06DFBF776FA304670BD70B50D4630
:104E54000023074C0646114628462360FDF7CBF88D
:104E6400431C00D070BD2368002BFBD0336070BDA1
:104E74004C12002038B50023064C05460846236032
:104E8400FDF7C8F8431C00D038BD2368002BFBD0C5
:104E94002B6038BD4C120020F8B50E460025084C96
:104EA400114607461A4630462560FDF7BDF8431CF7
:104EB40000D0F8BD2368002BFBD03B60F8BD00BFD9
:104EC4004C120020F8B50E460025084C1146074642
:104ED4001A4630462560FDF7B3F8431C00D0F8BDF0
:104EE4002368002BFBD03B60F8BD00BF4C120020B0
:104EF400F8B500BFF8BC08BC9E467047F8B500BFC3
:104F0400F8BC08BC9E467047080000201112131418
:104F1400151600000A0B0C0D0E0F10000D0A535449
:104F24004D33324631303343385436206973206F61
:104F34006E6C696E652E0D0A000000006E524632DA
:104F4400344C30312B20636865636B3A20000000D9
:104F54004641494C0D0A00004F4B0D0A0000000069
:104F6400524356205049504523256400205041594E
:104F74004C4F41443A3E00003C0D0A00E71CE3005C
:104F840011121314151600000A0B0C0D0E0F10004D
:104F94006E524632340000001B5B303B33376D00E9
:104FA40050494420202075530D0A00005B253264CB
:104FB4005D3A20253037640D0A0000001B5B303B4E
:104FC40033326D001B5B2564410000001B5B2564CC
:104FD400420000005E43204F4B2E2E0D0A000000BD
:104FE400466C6173682073697A655B6B425D203A35
:104FF4002025640D0A0000004D435520756E69712B
:10500400756520494420203A2030782558255825B4
:105014005825580D0A00000053797374656D2046B5
:105024007265715B487A5D3A2025640D0A000000C0
:105034001B5B324A000000001B5B303B33326D00C7
:105044000D0A53574820646562756720706F727447
:105054000D0A000046772056657273696F6E3A2018
:1050640025642E25642E25642E2564205B2573205B
:1050740025735D0D0A000000536570203330203223
:105084003031380031303A34303A303400000000E6
:105094001B5B303B33376D00466F6E7420313678BE
:1050A40032360000466F6E7420313178313800009A
:1050B400466F6E7420377831300000005465737485
:1050C400696E672E2E2E00007E2564204650530004
:1050D4004142434445464748494A4B007374646916
:1050E4006F2E633A20696E637265617365204D416A
:1050F400585F535452494E475F53495A450A0D006D
:10510400000000000000000000000000000000009B
:10511400000000000010001000100010001000102B
:1051240000000010000000000028002800280000F3
:105134000000000000000000000000000024002423
:10514400007C00240048007C004800480000000067
:105154000038005400500038001400540054003843
:1051640000100000002000540058003000280054B3
:10517400001400080000000000100028002800109F
:105184000034004800480034000000000010001003
:1051940000100000000000000000000000000000FB
:1051A4000008001000200020002000200020002023
:1051B4000010000800200010000800080008000883
:1051C400000800080010002000100038001000281B
:1051D40000000000000000000000000000000000CB
:1051E40000100010007C00100010000000000000FF
:1051F400000000000000000000000000000000109B
:105204000010001000000000000000000000003842
:10521400000000000000000000000000000000008A
:10522400000000000000001000000000000800085A
:1052340000100010001000100020002000000000EA
:105244000038004400440054004400440044003842
:10525400000000000010003000500010001000108A
:105264000010001000000000003800440044000456
:10527400000800100020007C0000000000380044FA
:10528400000400180004000400440038000000007A
:1052940000080018002800280048007C00080008C6
:1052A40000000000007C004000400078000400047E
:1052B400004400380000000000380044004000783A
:1052C400004400440044003800000000007C000456
:1052D4000008001000100020002000200000000042
:1052E40000380044004400380044004400440038BE
:1052F400000000000038004400440044003C000466
:10530400004400380000000000000000001000000D
:105314000000000000000010000000000000000079
:105324000000001000000000000000100010001039
:1053340000000000000C003000400030000C0000B1
:1053440000000000000000000000007C0000007C61
:1053540000000000000000000000000000600018D1
:105364000004001800600000000000000038004441
:1053740000040008001000100000001000000000ED
:1053840000380044004C0054005C004000400038E9
:105394000000000000100028002800280028007CDD
:1053A40000440044000000000078004400440078F9
:1053B4000044004400440078000000000038004429
:1053C400004000400040004000440038000000005D
:1053D4000070004800440044004400440048007049
:1053E40000000000007C00400040007C00400040C1
:1053F4000040007C00000000007C00400040007879
:10540400004000400040004000000000003800441C
:1054140000400040005C00440044003800000000EC
:10542400004400440044007C004400440044004420
:1054340000000000003800100010001000100010E0
:105444000010003800000000000400040004000400
:105454000004000400440038000000000044004838
:105464000050006000500048004800440000000064
:105474000040004000400040004000400040007CEC
:10548400000000000044006C006C00540044004420
:105494000044004400000000004400640064005420
:1054A4000054004C004C004400000000003800444C
:1054B400004400440044004400440038000000005C
:1054C400007800440044004400780040004000405C
:1054D400000000000038004400440044004400443C
:1054E40000540038000400000078004400440044E4
:1054F40000780048004800440000000000380044E0
:10550400004000300008000400440038000000009F
:10551400007C00100010001000100010001000109B
:1055240000000000004400440044004400440044DF
:1055340000440038000000000044004400440028F7
:10554400002800280010001000000000004400445F
:10555400005400540054006C00280028000000008F
:1055640000440028002800100010002800280044EF
:10557400000000000044004400280028001000102F
:105584000010001000000000007C0004000800105F
:10559400001000200040007C0000000000180010F3
:1055A400001000100010001000100010001000186F
:1055B4000020002000100010001000100008000857
:1055C4000000000000300010001000100010001057
:1055D40000100010001000300010002800280044C3
:1055E40000000000000000000000000000000000B7
:1055F400000000000000000000000000000000FEA9
:105604000020001000000000000000000000000066
:10561400000000000000000000380044003C00448A
:10562400004C0034000000000040004000580064BA
:105634000044004400640058000000000000000022
:1056440000380044004000400044003800000000DE
:10565400000400040034004C00440044004C0034B6
:10566400000000000000000000380044007C0040FE
:105674000044003800000000000C0010007C001002
:1056840000100010001000100000000000000000D6
:105694000034004C00440044004C00340004007802
:1056A40000400040005800640044004400440044AA
:1056B4000000000000100000007000100010001036
:1056C4000010001000000000001000000070001026
:1056D4000010001000100010001000E00040004016
:1056E40000480050006000500048004400000000E2
:1056F40000700010001000100010001000100010C6
:105704000000000000000000007800540054005421
:105714000054005400000000000000000058006421
:105724000044004400440044000000000000000065
:1057340000380044004400440044003800000000E5
:105744000000000000580064004400440064005855
:1057540000400040000000000034004C00440044BD
:10576400004C0034000400040000000000580064F1
:105774000040004000400040000000000000000025
:1057840000380044003000080044003800000000E5
:1057940000200020007800200020002000200018B5
:1057A40000000000000000000044004400440044E5
:1057B400004C0034000000000000000000440044DD
:1057C400002800280028001000000000000000004D
:1057D400005400540054006C00280028000000000D
:1057E40000000000004400280010001000280044BD
:1057F40000000000000000000044004400280028CD
:10580400001000100010006000000000007C000880
:10581400001000200040007C000000000018001070
:1058240000100010002000200010001000100018CC
:1058340000100010001000100010001000100010E4
:1058440000100010003000100010001000080008C4
:105854000010001000100030000000000000007470
:10586400004C0000000000000000000000000000E8
:105874000000000000000000000000000000000024
:105884000000000000000000000000000000000014
:105894000000000C000C000C000C000C000C000CB0
:1058A400000C000C000C000C0000000C000C0000AC
:1058B400000000000000001B001B001B001B001B5D
:1058C40000000000000000000000000000000000D4
:1058D40000000000000000000000801980198019F9
:1058E4008019C07FC07F80190033C07FC07F003320
:1058F4000033003300330000000000000000001EED
:10590400003F807580650074003C001E0007800520
:10591400806580658075003F001E0004000400005F
:105924000000007000D840D8C0D880D900730006A9
:10593400000C801BC036C066C046C0068003000051
:10594400000000000000001E003F0033003300335D
:10595400001E000CC03CC066806380618063C03E52
:10596400801C0000000000000000000C000C000C73
:10597400000C000C0000000000000000000000000B
:105984000000000000000000000000008000000192
:105994000003000600060004000C000C000C000CC0
:1059A400000C000C00040006000600030001800047
:1059B400002000100018000C000C00040006000673
:1059C40000060006000600060004000C000C001887
:1059D400001000200000000C002D003F001E0033CA
:1059E40000000000000000000000000000000000B3
:1059F4000000000000000000000000000000000C97
:105A0400000C000C000CC0FFC0FF000C000C000CCC
:105A1400000C000000000000000000000000000076
:105A24000000000000000000000000000000000072
:105A3400000000000000000C000C0004000400083A
:105A44000000000000000000000000000000000052
:105A54000000001E001E0000000000000000000006
:105A64000000000000000000000000000000000032
:105A74000000000000000000000000000000000C16
:105A8400000C0000000000000000000300030003FD
:105A94000006000600060006000C000C000C000CBA
:105AA4000018001800180000000000000000001E8C
:105AB400003F0033806180618061806D806D806112
:105AC400806180610033003F001E00000000000080
:105AD40000000006000E001E003600260006000628
:105AE4000006000600060006000600060006000088
:105AF400000000000000001E003F80738061806190
:105B0400800100030006000C001800300060807F54
:105B1400807F0000000000000000001C003E0063C5
:105B240000630003000E000E000380018001806109
:105B34008073003F001E000000000000000000060B
:105B4400000E000E001E001E001600360036006611
:105B5400807F807F00060006000600000000000031
:105B64000000007F007F006000600060006E007F26
:105B740080638001800180618073003F001E00000B
:105B8400000000000000001E003F803380610060C0
:105B9400006E007F80738061806180618033003F8C
:105BA400001E0000000000000000807F807F800154
:105BB4000003000300060006000C000C000C0008A3
