:020000040800F2
:10000000302200204D0E0008490E0008490E00085D
:10001000490E0008490E0008490E000800000000C3
:10002000000000000000000000000000490E000871
:10003000490E000800000000490E0008891400085D
:10004000490E0008490E0008490E0008490E000834
:10005000490E0008490E0008490E0008490E000824
:10006000490E0008490E0008490E0008490E000814
:10007000490E0008490E0008490E0008490E000804
:10008000490E0008490E0008490E0008490E0008F4
:10009000490E0008490E0008490E0008490E0008E4
:1000A000490E0008490E0008490E0008490E0008D4
:1000B000490E0008490E0008490E0008490E0008C4
:1000C000490E0008490E0008490E0008490E0008B4
:1000D000490E0008B9270008490E0008490E00081B
:1000E000490E0008490E0008490E000800000000F3
:1000F0000000000000000000000000000000000000
:0C01000000000000000000005FF808F1A3
:0402000000000100F9
:1002040010B5054C237833B9044B13B10448AFF34C
:1002140000800123237010BD780800200000000036
:100224000C01000808B5034B1BB103490348AFF3A5
:10023400008008BD000000007C0800200C010008BC
:10024400F0B4860743D0541E002A3ED0CAB20346F7
:1002540002E014F1FF3438D303F8012B9D07F8D1E1
:10026400032C2BD9CDB245EA05250F2C45EA0545CB
:1002740016D9A4F110073F0903F1200606EB07166F
:1002840003F1100242E9045542E902551032B24228
:10029400F8D104F00F040137032C03EB07130DD935
:1002A4001E462246043A032A46F8045BFAD8221F63
:1002B40022F003020432134404F003042CB1C9B243
:1002C4001C4403F8011B9C42FBD1F0BC704714464C
:1002D4000346C5E7024B13B1024800F005B8704766
:1002E40000000000F9020008002301461A461846DF
:1002F40000F022B838B50A4C0A4D641BA4100AD089
:1003040004F18043013B05EB8305013C55F80439B6
:100314009847002CF9D1BDE8384003F049BE00BF2E
:100324007808002074080020704700BF704700BFA1
:10033400704700BF704700BF2DE9F8432B4D0646B8
:10034400286898460F469146FFF7F2FF284B1C6831
:10035400D4F84831002B3DD05A681F2A0DDC02F135
:10036400010C16BB0232C3F804C0286843F822709B
:10037400FFF7E0FF0020BDE8F8831E4B7BB34FF48A
:10038400C870AFF30080034648B30020D4F8481186
:100394004FF0010CC3E900100246C4F84831C3F819
:1003A4008801C3F88C01002EDCD0012103EB820408
:1003B400C4F88890D3F8880191400843022EC3F80A
:1003C4008801C4F80881CDD1D3F88C010143C3F866
:1003D4008C11C7E704F5A673C4F84831BCE7286854
:1003E400FFF7A8FF4FF0FF30C5E700BF300400203F
:1003F400C03F00080000000010B51D4C1D482368D4
:10040400984702F0CDF801F0EDFE4FF400611A4870
:1004140000F0DEFF23681948984700F01FFA2368AC
:1004240010B917489847FEE71648984700F0CEF8E9
:10043400FF2000F0D7FB732000F0EAFA202000F040
:10044400A5FB0C2000F0B6FA032000F0F9FA0E49DF
:10045400062000F00DFB062000F06CFB002000F0ED
:100464007BFA00F023FCBDE81040022000F044BAFF
:10047400F8080020D03F0008000C0140F03F0008BD
:10048400044000080C400008C43F000830B5434A4B
:100494008BB01368591CFF298DF808304FD8981C6D
:1004A400B0F5807F8DF8091069D10221ADF80A00FA
:1004B4004B1CB3F5807F08BF00238DF80C10384D1A
:1004C400136038482B68984702A8052102F034F8D5
:1004D4002B6835489847354B4FF4006134480193F5
:1004E40000F076FF02A8052100F00AFC4FF4006139
:1004F4002F4800F06BFF03E0019B5A1E01922BB1C1
:1005040000F0A8FB10F0300F0446F5D04FF4006162
:10051400274800F05DFF019B6BB32B6821462548FB
:10052400984700F0C3FBE20621D4A30619D52B6833
:10053400214898472B68214898470BB030BD0123C8
:1005440000218DF80A3002238DF80910591CB1F5E9
:10055400807F8DF80B30ABD1002101238DF80C1076
:10056400ADE700F08FFB2B6815489847E2E72B684E
:1005740014489847DEE72B6813489847DAE70333B3
:10058400B3F5807F8DF80A00E0D1012300218DF8B6
:100594000C308DF80B10022391E700BF9408002063
:1005A400F80800201440000820400008FFFF0F0056
:1005B400000C0140C83F00083C400008A44100086A
:1005C40034400008404000082C40000838B5A24CD4
:1005D4004FF48051204600F0FBFE202001F030FE55
:1005E400082001F02DFE20464FF4805100F0EEFE6D
:1005F4004FF48051204600F0EBFE212001F020FE54
:100604003F2001F01DFE20464FF4805100F0DEFE35
:100614004FF48051204600F0DBFE222001F010FE52
:10062400032001F00DFE20464FF4805100F0CEFE71
:100634004FF48051204600F0CBFE232001F000FE51
:10064400032001F0FDFD20464FF4805100F0BEFE72
:100654004FF48051204600F0BBFE242001F0F0FD51
:10066400032001F0EDFD20464FF4805100F0AEFE72
:100674004FF48051204600F0ABFE252001F0E0FD50
:10068400022001F0DDFD20464FF4805100F09EFE73
:100694004FF48051204600F09BFE262001F0D0FD4F
:1006A4000E2001F0CDFD20464FF4805100F08EFE67
:1006B4004FF48051204600F08BFE272001F0C0FD4E
:1006C400002001F0BDFD20464FF4805100F07EFE75
:1006D4004FF48051204600F07BFE312001F0B0FD44
:1006E400002001F0ADFD20464FF4805100F06EFE75
:1006F4004FF48051204600F06BFE322001F0A0FD43
:10070400002001F09DFD20464FF4805100F05EFE74
:100714004FF48051204600F05BFE332001F090FD41
:10072400002001F08DFD20464FF4805100F04EFE74
:100734004FF48051204600F04BFE342001F080FD40
:10074400002001F07DFD20464FF4805100F03EFE74
:100754004FF48051204600F03BFE352001F070FD3F
:10076400002001F06DFD20464FF4805100F02EFE74
:100774004FF48051204600F02BFE362001F060FD3E
:10078400002001F05DFD20464FF4805100F01EFE74
:100794004FF48051204600F01BFE3C2001F050FD38
:1007A400002001F04DFD20464FF4805100F00EFE74
:1007B4004FF48051204600F00BFE3D2001F040FD37
:1007C400002001F03DFD20464FF4805100F0FEFD75
:1007D40020464FF4805100F0FBFDE22001F030FD93
:1007E40020464FF4805100F0F1FD20464FF4805133
:1007F40000F0EEFDE12001F023FD20464FF480518E
:1008040000F0E4FD4FF48051204600F0E1FD0720A4
:1008140001F016FDFF2001F013FD05464FF4805151
:10082400204600F0D3FD4FF48051204600F0D0FD67
:10083400272001F005FD45F07000C0B201F000FD75
:1008440020464FF4805100F0C1FD2046BDE83840F9
:100854004FF4805100F0BABD000C014030B54FF4A4
:10086400805183B0224800F0B3FD302001F0E8FC51
:10087400204C651D14F8010B01F0E2FCAC42F9D1E7
:100884004FF480511A4800F0A1FD4FF480511848EC
:1008940000F09EFD102001F0D3FC6C460DF105051F
:1008A400FF2001F0CDFC04F8010BAC42F8D14FF469
:1008B40080510F4800F08AFD9DF800306E2B14D152
:1008C4009DF80130522B10D19DF80230462B0CD1EB
:1008D4009DF80330322B08D19DF80400A0F13400B8
:1008E400B0FA80F0400903B030BD002003B030BD41
:1008F400000C01406040000838B54FF480510546B3
:10090400144800F065FD002001F09AFCFF2001F07E
:1009140097FC04464FF480510E4800F057FD022D19
:1009240008BF44F002044FF480510A480CBFE4B2FB
:1009340004F0FD0400F04CFD202001F081FC204671
:1009440001F07EFCBDE838404FF48051014800F0CE
:100954003DBD00BF000C014070B5154D4FF48051F2
:100964000446284600F034FD002001F069FCFF2015
:1009740001F066FC06464FF48051284626F0010635
:1009840004F0010400F022FD34434FF48051284662
:1009940000F01EFD64B2202001F052FCE0B201F030
:1009A4004FFC2846BDE870404FF4805100F00EBD66
:1009B400000C014070B5154D4FF480510446284693
:1009C40000F006FD002001F03BFCFF2001F038FCA4
:1009D40006464FF48051284626F00C0604F00C0419
:1009E40000F0F4FC34434FF48051284600F0F0FC4E
:1009F40064B2202001F024FCE0B201F021FC28467E
:100A0400BDE870404FF4805100F0E0BC000C0140A0
:100A140038B50546094C4FF48051204600F0D8FC07
:100A2400252001F00DFC284601F00AFC2046BDE813
:100A340038404FF4805100F0C9BC00BF000C0140A5
:100A440038B50446094D4FF48051284600F0C0FCE7
:100A5400232001F0F5FBA01EC0B201F0F1FB2846F3
:100A6400BDE838404FF4805100F0B0BC000C0140A8
:100A740006280BD80123834013F0430F70B50C46AE
:100A8400054604D113F03C0F2FD170BD70474FF4CD
:100A94008051264800F09CFC032001F0D1FBFF208C
:100AA40001F0CEFB4FF480510646204800F08EFC46
:100AB4004FF480511D4800F08BFC1D4B0136585DEE
:100AC400F6B240F0200001F0BBFB3444A61B013415
:100AD40014F8010D01F0B4FBB442F9D1BDE8704043
:100AE4004FF48051114800F071BC114B4FF4805108
:100AF4001D5C0E48247800F06BFC1F2D0DD9284690
:100B040001F09EFB05F11F03DBB2022BE6D9FF2D9A
:100B1400E4D0204601F094FBE0E745F0200001F02A
:100B24008FFB204601F08CFBD8E700BF000C01408E
:100B34005040000870B5144D4FF4805106462846C5
:100B440000F046FC062001F07BFBFF2001F078FB5F
:100B540004464FF48051284600F038FC04F0F904B0
:100B64004FF48051284600F033FC3443262001F032
:100B740067FB204601F064FB2846BDE870404FF453
:100B8400805100F023BC00BF000C014070B5144D2F
:100B94004FF480510646284600F01AFC062001F066
:100BA4004FFBFF2001F04CFB04464FF480512846D4
:100BB40000F00CFC04F0D7044FF48051284600F0F8
:100BC40007FC3443262001F03BFB204601F038FBB0
:100BD4002846BDE870404FF4805100F0F7BB00BFD9
:100BE400000C0140052838B527D84FF4805104463D
:100BF400174800F0EDFB012001F022FBFF2001F07B
:100C04001FFB4FF480510546114800F0DFFB4FF401
:100C140080510F4800F0DCFB212001F011FB012082
:100C2400A04025EA0000C0B201F00AFBBDE838404C
:100C34004FF48051064800F0C9BB4FF4805104487A
:100C440000F0C6FB212001F0FBFA0020ECE700BF16
:100C5400000C014038B50A4C4FF48051204600F096
:100C6400B7FB072001F0ECFAFF2001F0E9FA054692
:100C74004FF48051204600F0A9FB284638BD00BF40
:100C8400000C014010B5084C4FF48051204600F090
:100C94009FFBE12001F0D4FA2046BDE810404FF458
:100CA400805100F093BB00BF000C014038B5134CD9
:100CB4004FF48051204600F08BFB072001F0C0FA6E
:100CC400FF2001F0BDFA05464FF48051204600F0A4
:100CD4007DFB4FF48051204600F07AFB272001F081
:100CE400AFFA45F07000C0B201F0AAFA2046BDE8A0
:100CF40038404FF4805100F069BB00BF000C014044
:100D040070B50E4604464FF480510C4800F060FB69
:100D1400A02001F095FA4EB1751EEDB201352544BF
:100D240014F8010B01F08CFAAC42F9D1BDE8704023
:100D34004FF48051014800F049BB00BF000C014052
:100D440030B400244FF41F053A4B3B49186882B075
:100D540040F00100186058681A460140596019684B
:100D640021F0847121F480311960196821F4802103
:100D74001960596821F4FE0159609D600094019442
:100D8400196841F48031196003E0009BB3F5A06F4A
:100D940009D0136803F400330193009B01330093DB
:100DA400019B002BF1D0234B1B6813F4003318BFB5
:100DB40001230193019B012B06D04FF000621F4BCE
:100DC4009A6002B030BC70471D491A4B08681A4635
:100DD40040F010000860086820F00300086008680C
:100DE40040F00200086059685960596859605968B0
:100DF40041F480615960596821F47C115960596843
:100E040041F4E8115960196841F080711960136860
:100E14009B01FCD55368074923F0030353605368CF
:100E240043F0020353604B6803F00C03082BFAD120
:100E3400C3E700BF001002400000FFF800ED00E02F
:100E440000200240FEE700BF08B50D480D4B984254
:100E540007D2C2431A4422F0030204320A4902F0C0
:100E640039F80A480A494FF000028842B8BF40F8EE
:100E7400042BFADBFFF764FFBDE8084000F06ABB0F
:100E84000000002078080020CC41000878080020E9
:100E94002C0E002070B4084B1C785CB100231E4655
:100EA400064D05EB431201339068D9B2A14250615B
:100EB4009660F6D370BC7047FC080020000900203F
:100EC4002DE9F041114D12482B68124E98472B68BA
:100ED4001148984734787CB10024DFF84C800F4FD8
:100EE40008EB44122B68214652693846984701346E
:100EF4003378E4B2A342F3D82B68094898472B68A7
:100F04002146BDE8F0410748184700BFF808002013
:100F140068400008FC080020704000087C4000087D
:100F24008C400008944000080009002008B54FF4E4
:100F3400806200210348FFF783F90022024B1A70F4
:100F440008BD00BF00090020FC080020F0B4104DCB
:100F54002B781F2B15D8B8B1B2FA82F20D4F5E016F
:100F6400BC19E061B951217E52096FF30001217669
:100F74002179013362F300012B7021710020F0BC50
:100F84007047FF20F0BC7047FE20F0BC704700BFE4
:100F9400FC08002000090020F0B4144E34781F2C03
:100FA4001DD8F8B10025B2FA82F2DFF848C0670113
:100FB4000CEB0703D861D9600D4952090968013463
:100FC4001961197E284641F0010119764CF8075041
:100FD4001979347062F300011971F0BC7047FF2075
:100FE400F0BC7047FE20F0BC704700BFFC08002036
:100FF4009808002000090020F0B51C4C1C4D85B059
:1010040023681C48984723682846984723681A4849
:1010140098471A481A4F427881780378C678194855
:101024000096CDE9010726681748B047236817489A
:101034009847174A23681188164898471648174B4B
:101044000068174A17491B681288098826680090A7
:101054001548B047154A236811681548984728462B
:10106400236805B0BDE8F040184700BFF808002029
:101074008C400008004100080841000800020008F4
:10108400404100084C4100081C4100086840000829
:10109400E0F7FF1FB0400008F0F7FF1FECF7FF1F59
:1010A400EAF7FF1FE8F7FF1FC840000844040020C8
:1010B400E840000830B4CC78E30648BF8B7804F0ED
:1010C4000F0548BF1D430B8813F0FF0F33D0482C86
:1010D400026800F0F480282C00F03381D90744BF63
:1010E40022F00F022A43990744BF22F0F00242EA99
:1010F4000512590744BF22F4706242EA0522190717
:1011040044BF22F4704242EA0532D90644BF22F4B5
:10111400702242EA0542990644BF22F4700242EA70
:101124000552590644BF22F0706242EA056219066C
:1011340000F104810260FF2B4BD9282C42684AD06D
:10114400482C40F08E80D90505D54FF4807122F0EB
:101154000F022A4301619C0506D54FF4007122F069
:10116400F00242EA05120161590506D54FF4806187
:1011740022F4706242EA052201611C0506D54FF48F
:10118400006122F4704242EA05320161D90406D5B5
:101194004FF4805122F4702242EA054201619C041A
:1011A40006D54FF4005122F4700242EA055201615F
:1011B400590406D54FF4804122F0706242EA056278
:1011C40001611C0404D54FF4004365F31F720361ED
:1011D400426030BC7047D90505D54FF4807122F0C8
:1011E4000F022A4341619C0506D54FF4007122F099
:1011F400F00242EA05124161590506D54FF48061B7
:1012040022F4706242EA052241611C0506D54FF4BE
:10121400006122F4704242EA05324161D90406D5E4
:101224004FF4805122F4702242EA054241619C0449
:1012340006D54FF4005122F4700242EA055241618E
:10124400590406D54FF4804122F0706242EA0562E7
:1012540041611B04BCD54FF4004365F31F72436125
:10126400B6E7D90544BF22F00F022A439C0544BFC8
:1012740022F0F00242EA0512590544BF22F47062DA
:1012840042EA05221C0544BF22F4704242EA0532B8
:10129400D90444BF22F4702242EA05429C0444BFAC
:1012A40022F4700242EA0552590444BF22F07062EB
:1012B40042EA05621C048BD565F31F7288E7D907DF
:1012C40004D5012122F00F022A430161990705D5B3
:1012D400022122F0F00242EA05120161590705D504
:1012E400042122F4706242EA05220161190705D53E
:1012F400082122F4704242EA05320161D90605D57B
:10130400102122F4702242EA05420161990605D5B2
:10131400202122F4700242EA05520161590605D5E2
:10132400402122F0706242EA0562016119067FF5EC
:1013340001AF802165F31F720161FBE665F31F7243
:10134400F8E6D90704D5012122F00F022A434161AE
:10135400990705D5022122F0F00242EA0512416103
:10136400590705D5042122F4706242EA052241613D
:10137400190705D5082122F4704242EA0532416179
:10138400D90605D5102122F4702242EA05424161B2
:10139400990605D5202122F4700242EA05524161E2
:1013A400590605D5402122F0706242EA0562416186
:1013B40019067FF5BFAE802165F31F724161B9E65E
:1013C4008368194214BF01200020704701617047EF
:1013D400416170470028194B00F44012B4BFDB6927
:1013E4005B68B2F5401F30B484B21ED0C20213D57C
:1013F4000322C0F30345AA4023EA020343F07063C7
:1014040019B1420D1201944023430C4A0028B4BF81
:10141400D361536030BC7047420D120104FA02F2EA
:1014240023EA020343F07063EAE7044D23F0706398
:101434006A6822F070626A60E2E700BF000001405F
:1014440030B5002487B00B4B01A81C60F02500F0D8
:101454006BFE0721029B0848084AA0FB03030848C7
:101464009B0C013B536080F823509460116007B0DB
:1014740030BD00BF9808002083DE1B4310E000E06D
:1014840000ED00E0024A136801331360704700BFA7
:101494009808002080B485B000AF7860084B1B68C2
:1014A400FB60074B1B68FA689B1A7A689A4200D95A
:1014B400F7E700BF00BF1437BD4680BC704700BFCC
:1014C4009808002038B51A4DFFF730FD194C012259
:1014D40019491A48FFF73AFD294601221848FFF72F
:1014E4005BFD214601221748FFF756FD21460022E5
:1014F4001548FFF751FD214600221448FFF74CFD23
:10150400294601221248FFF747FDFFF799FF4FF4E0
:10151400612000F0CBFFFFF76FFD0121042000F0F4
:1015240049FE01F089F9BDE83840FEF765BF00BF08
:1015340020A1070040420F00200E0020692500086A
:101544002529000839290008C50E0008990E00084D
:101554009104000801212DE98848084600F02AFE7C
:1015640001212548FFF736FFFFF7ACFFDFF88C8039
:10157400DFF88C90DFF88CA098F80020002AFBD0CC
:10158400002417E059F805301B787BB1DAF800B075
:10159400F3699847DAF80030B268A3EB0B031344FD
:1015A400B36059F805301F7098F800200134E4B294
:1015B4009442E1D2650109EB05067368DB07F5D4B3
:1015C400B76917F00107DDD0DAF800303069F16847
:1015D4001B1A8B42EAD3DAF80050F3699847DAF819
:1015E4000030B2685B1B1344B360DAF8003098F83B
:1015F40000203361DAE700BF00023000FC0800205D
:101604000009002098080020092B2DE9F84317460B
:101614001C4602F1FF36054614D8002E10DD324672
:10162400FEF70EFE384635441E4BA3FB0423DB08AD
:1016340003EB8303A4EB430330332B70BDE8F8833F
:101644000120F1E7174BA2F10209A3FB04384FEA8A
:10165400D808B8F1090F18D8B9F1000F11DD4A46BE
:10166400FEF7EEFD3846A9440E4B3544A3FB082390
:10167400DB0803EB8303A8EB4303303389F8003022
:10168400D2E7814601260220EEE7074B4A46A3FB38
:1016940004635B09FFF7B8FF05EB0009461C023041
:1016A400E2E700BFCDCCCCCC1F85EB512DE9F84F40
:1016B400002B174604460D46C0F2EE80092B1E4649
:1016C40000F3CC80013A002A40F33681614201F0F4
:1016D4000701002A01F10700CCBF90464FF0010832
:1016E4000C2838BF0C2002F1FF3E002ACCBF7746FD
:1016F4000027B84200F22281002900F01A81204616
:10170400012900F8015B26D00229657004F102006A
:10171400A2F1020E1FD00329A57004F10300A2F167
:10172400030E18D00429E57004F10400A2F1040E9C
:1017340011D00529257104F10500A2F1050E0AD086
:101744000729657104F10600A2F1060E03D1A57103
:10175400E01DA2F1070E4FF00009CA46CC4665F31E
:10176400070A65F3070965F30F2A65F30F29A8EB48
:10177400010865F3174A65F31749214465F31F6AA5
:1017840065F31F694FEAD80B471C3C460CF1010C6A
:10179400DC45C1E9009A04F1070401F1080107F1ED
:1017A4000807F2D328F00707474500EB0701AEEB23
:1017B400070043D00C46012804F8015B3ED0022800
:1017C4004D7001F1020439D003288D7001F1030436
:1017D40034D00428CD7001F104042FD005280D71F4
:1017E40001F105042AD006284D7101F1060425D023
:1017F40007288D7101F1070420D00828CD7101F16B
:1018040008041BD009280D7201F1090416D00A2816
:101814004D7201F10A0411D00B288D7201F10B04F1
:101824000CD00C28CD7201F10C0407D00D2801F165
:101834000D040D731CBF4D7301F10E04002B02F156
:10184400010051DB414BA3FB0623DB0803EB8303BD
:10185400A6EB430330332370BDE8F88F3B4DA2F170
:101864000208A5FB0635ED08092D42D8B8F1000F92
:101874005BDD4246FEF7E4FC3846A0447A1E334B57
:101884001444A3FB0513DB0803EB8303A5EB430319
:10189400303388F80030D5E713F1090FC3F100069F
:1018A400A2F102021BDA294DA5FB0635ED08092D2C
:1018B4002BD9274BA3FB06735B095B42FFF7F6FEAC
:1018C4002118421C0230214B1444A3FB0573DB088E
:1018D40003EB8303A5EB430330330B70B2E7002A19
:1018E4003FF7F4AE022000E0901C2D2304F8013BE6
:1018F400A8E7174B4246A3FB06735B09FFF7D6FE26
:1019040004EB0008421C0230B9E7A7F10308B8F160
:10191400000F16DD4246FEF793FC384604EB08013F
:101924007A1E2D2301F8013BCDE7804601220220D7
:10193400A5E7964620460EE7012083E72146104698
:1019440038E7014602220320EBE700BFCDCCCCCC24
:101954001F85EB512DE9F04782B00A9C92465FEA5D
:10196400141802F1FF3605461F461BD1002E2FDD49
:101974003246FEF765FC5046354404F00F04092C4A
:10198400E3B20AD927B957332B7002B0BDE8F08708
:1019940037332B7002B0BDE8F08730332B7002B0C0
:1019A400BDE8F087A2F10209220A19D1B9F1000FAA
:1019B4001EDD4A46FEF744FC504605EB090208F0DA
:1019C4000F03092BD9B205D93FB957311170D3E7A9
:1019D4000120D2E730311170CEE737311170CBE7F7
:1019E40000924A46FFF7B6FF2A18461C0230E6E783
:1019F400024601260220E2E72DE9F04F8A4689B02B
:101A0400834608B10021017000241178254669B18C
:101A1400A24553D9252911D08BF800100132117831
:101A240001340BF1010B25460029F1D1A24545D91A
:101A34008BF80010204609B0BDE8F08F50782528B7
:101A440006D18BF80000023201340BF1010BDCE704
:101A540030283BD02021561CA0F13002092A4FF037
:101A640000020DD802EB820200EB420216F8010FCD
:101A7400303AA0F13005092D02F0FF02F2D9151910
:101A8400AA4538BFAAEB0405A0F1580038BFEAB252
:101A9400202800F2D080DFE800F042CECECECECEB9
:101AA400CECECECECE6167CECECECE67CECECECE8D
:101AB400CECECECECE96CEA9CECE1D00013C0023F6
:101AC40020460BF8013C09B0BDE8F08F961C9078D5
:101AD4003021C1E7D3F800801F1D5FEA18131546B3
:101AE40002F1FF39029340F0F981B9F1000F40F39C
:101AF40018824A465846FEF7A3FB29460BEB090316
:101B040008F00F08B8F1090F5FFA88F240F29680E6
:101B140057321A703B468B442C44721C75E7D3F839
:101B240000801F1D5FEA1813154602F1FF39029366
:101B340040F0B081B9F1000F40F3EF814A465846B6
:101B4400FEF77EFB29460BEB090308F00F08B8F1FA
:101B5400090F5FFA88F271D93732DAE71A6801346B
:101B64000BF8012B0433D8E7D3F800900433B9F110
:101B7400000F154602F1FF38039361DB4F46092F2E
:101B840072D9D44AAB1EA2FB09294FEAD909B9F18B
:101B9400090F00F26F81002B40F3F7811A46584673
:101BA4000293FEF74DFB4046AC46029B5B44C94999
:101BB400A1FB0921C90801EB8101A9EB410101F154
:101BC40030021A704DE018681F1D0278002A00F0D8
:101BD4005F81594601F8012B10F8012FA1EB0B0589
:101BE400002AF7D12C448B463B4696E7D3F8008075
:101BF4001546B8F1090F02F1FF3903F1040700F2A9
:101C04009881B9F1000F40F390814A465846FEF797
:101C140017FB2A46D944AF4B9344A3FB0823DB08A4
:101C240003EB8303A8EB430303F130082C443B4646
:101C340089F8008071E74FF0FF34FBE6303268E743
:101C440019F1090FC9F1000780F20281A14B424644
:101C5400A3FB0703DB085B425846FFF727FD451C3F
:101C6400AC460BEB0002E5E0B8F1000F40F38281D3
:101C7400CBF1000202F00702B8F1000F02F10700F5
:101C8400CCBF434601230C2808F1FF3538BF0C2094
:101C9400B8F1000F0495D8BF0025A84200F2728164
:101CA400002A00F06A815846012A00F8011B0290BC
:101CB40039D00BF102000290022AA8F102008BF83D
:101CC400011004902FD00BF103000290032AA8F115
:101CD40003008BF80210049025D00BF1040002904D
:101CE400042AA8F104008BF8031004901BD00BF114
:101CF40005000290052AA8F105008BF80410049051
:101D040011D00BF106000290072AA8F106008BF807
:101D14000510049007D10BF107000290A8F1070009
:101D24008BF8061004904FF0000CE64661F3070EA2
:101D340061F30F2E9B1A61F3174E61F31F6E059327
:101D4400DB0806961E467346A6461C46654661F3A6
:101D5400070C61F30F2C61F3174C61F31F6CCDF882
:101D64001CC002988C4607995A4401300346013539
:101D7400AE42C2E9001403F1070302F1080200F1C4
:101D84000800F3D8059861461A4620F0070C029B18
:101D9400049D6045069E74466344A5EB0C0543D040
:101DA4001A46012D02F8011B3ED0022D597003F191
:101DB400020239D0032D997003F1030234D0042DAB
:101DC400D97003F104022FD0052D197103F1050216
:101DD4002AD0062D597103F1060225D0072D9971D9
:101DE40003F1070220D0082DD97103F108021BD09A
:101DF400092D197203F1090216D00A2D597203F143
:101E04000A0211D00B2D997203F10B020CD00C2D88
:101E1400D97203F10C0207D00D2D03F10D021973D1
:101E24001CBF597303F10E02B9F1000F08F101054B
:101E34001CDBAC46274BE344A3FB0713DB0803EB93
:101E44008303A7EB430730372C44039B177064E6E6
:101E5400A2F10208B8F1000F3FF70AAF4FF0020CED
:101E64005A4665462D2302F8013BE3E708F10205D3
:101E7400AC46F7E7184AA2FB07201A46430958461E
:101E8400FFF714FC851C0BEB0003AC4601308EE617
:101E94003B4642E6931E5FEA182240F08180002B05
:101EA40079DD1A4658460393FEF7CAF94A4629468D
:101EB400039B0BEB030C029B03F00F095FFA89F3FE
:101EC400B9F1090F94BF303337338CF800300BEB82
:101ED40002033AE6CDCCCCCC1F85EB51931E5FEACE
:101EE40018226ED1002B67DD1A4658460393FEF77D
:101EF400A7F94A462946039B0BEB030C029B03F00C
:101F04000F095FFA89F3B9F1090F94BF30335733DE
:101F14008CF800300BEB0203F2E501215B460D4621
:101F240013E601215B460D46EAE50122D946154632
:101F340071E65A48931EA0FB08C0C0080928029005
:101F440051D8002B49DD1A4658460393FEF778F919
:101F54002A46039B02980BEB0301DFF840C1D944E6
:101F6400ACFB00C3DB0803EB8303A0EB4303303378
:101F74000B7050E65A4601255BE7CDF81080CDF88A
:101F840008B0D0E645465B460AE74FF0020C5B46D4
:101F9400654601200BE60221DC460D4601228AE754
:101FA400009258461A460123FFF7D4FC851C2946A3
:101FB4000BEB000C421C7EE70221DC460D4601229D
:101FC4009CE7009258461A460023FFF7C3FC851C81
:101FD40029460BEB000C421C90E702225946154699
:101FE4004FF00109B9E72E48A0FB08C0400904904E
:101FF400D01E0390049809281CD80398002838DDC3
:10200400024658460593FEF71BF9059B1946039BA8
:102014005B441A460498DFF884C05944ACFB00C3FF
:10202400DB0803EB8303A0EB430330331370029804
:102034002A4692E74FF47A79B8FBF9F9B9F1090F16
:10204400A2F104051ED8002D19DD2A465846FEF7D4
:10205400F7F80BEB05010A22B9FBF2F302FB139329
:102064006A1C30330B7005F10309A91C5A4404356A
:10207400D0E75A4603254FF002090121CAE7594621
:102084000025E8E742F210732A46B8FBF3F35846FA
:10209400FFF7BAFA05460BEB0001DCE7CDCCCCCC5C
:1020A4001F85EB510FB4F0B51D4DA5B002AC0FCD9B
:1020B4000FC40FCD0FC42AAE1A4F56F8042B29684B
:1020C4003D68334621600BA864210196AE68FFF792
:1020D40093FC632816DC9DF82C3018466BB10BACCE
:1020E400C4F1010503E0601914F8013F2BB118464F
:1020F400314600F0C3FE431CF5D125B0BDE8F040E5
:1021040004B070473B6802AC7320DD6802E014F849
:10211400010F20B1294600F0B1FE0130F7D1FEE7EE
:1021240058410008000000201E4A10B4536803F010
:102134000C03082B0FD153685168C3F38343C903BD
:1021440003F1020328D55268920325D4164A02FBF0
:1021540003F3036001E0144B03601249134A4C6813
:10216400C4F30314145DE34043604C68C4F30224D5
:10217400145D23FA04F484604C68C4F3C224145D2F
:10218400E340C360496810BCC1F381310A44127C46
:10219400B3FBF2F303617047054A02FB03F30360E8
:1021A400DBE700BF0010024000127A004804002060
:1021B40000093D00044A936919B923EA00009061BB
:1021C400704718439061704700100240044AD36975
:1021D40019B923EA0000D06170471843D0617047F1
:1021E40000100240F0B54FF4805702204FF0100C5D
:1021F4004FF40066104A83B09369104C43F008030F
:1022040002AD936125F8047D29468DF80600204629
:102214008DF807C0FEF74EFF39462046FFF7D6F883
:1022240029462046ADF80460FEF744FF31462046B7
:10223400FFF7CEF803B0F0BD00100240000C0140DF
:1022440010B5044602210A4800F05EFA0028F9D0CD
:102254002146074800F046FA0121054800F054FAE7
:102264000028F9D0024800F03FFAC0B210BD00BF08
:102274000038004030B50D460446038ACA889BB234
:1022840023F4405313438A8903828089234B89882A
:10229400034028890B43698903430B43A381A38A21
:1022A40087B09BB223F44073134301A8A382FFF7C2
:1022B4003BFFDDE903311A482A68844208BF0B4614
:1022C400A18903EB830309044CBF5200920003EB82
:1022D4008303B3FBF2F364221248A589A0FB03C174
:1022E400490902FB11332A044FEA01110AD41B01E4
:1022F4003233A0FB0323C3F343130B439BB2238169
:1023040007B030BDDA003232A0FB0232C2F342120F
:1023140042EA01039BB2238107B030BDF3E9FFFF1A
:10232400003801401F85EB51838929B923F40053F8
:102334001B041B0C8381704743F400538381704753
:10234400012310B401F01F04C1F34211012903FA5F
:1023540004F30FD002290CBF103014302AB90268DC
:1023640010BC22EA030303607047026810BC1343E5
:10237400036070470C30F1E7044A05491368002BE9
:1023840008BF0B4618441060184670479C0800208C
:102394002C0E00204FF0FF30704700BF4FF4005365
:1023A40000204B60704700BF012070470020704739
:1023B4001046704710B514460846114600F09CF8C4
:1023C400204610BD38B504460D460020FFF762F8DC
:1023D40029462046FEF7FCFF4FF4F070FFF75AF849
:1023E40029462046FEF7F2FF4620FFF753F8294618
:1023F4002046FEF7E5FF04464FF4CD70FFF74AF898
:10240400204638BDF8B507460E46154608240FE0A9
:10241400FEF7DEFF3C20FFF73DF831463846FEF775
:10242400D5FF0A20FFF736F8013C4FEA650513D0C3
:10243400EB0731463846EBD5FEF7CAFF0620FFF717
:1024440029F831463846FEF7C1FF4020FFF722F84D
:10245400013C4FEA6505EBD1F8BD00BF2DE9F04121
:1024640007460E460825002431463846FEF7B0FFDD
:102474000620FFF70FF831463846FEF7A7FF09207C
:10248400FFF708F831463846FEF79AFF80463720B2
:102494006410FEF7FFFFB8F1000F01D044F0800490
:1024A400013DE1D12046BDE8F08100BF70B50D4C7F
:1024B40006464FF4867200212046FDF7C1FE002334
:1024C4000125094A09491360304653609360D3607B
:1024D400136125720B7000F01DF9054B054A1A6053
:1024E40070BD00BF140D0020000D0020200E002040
:1024F400F8080020A9200008002917DD70B4002680
:102504000B4A0C4C0144136810F8015BDBB2134412
:102514005D721368814203F1010313601672A3898B
:1025240043F08003A381EED170BC7047704700BFB5
:10253400140D00200038014079B1F8B504464D1E51
:10254400ADB20135054F064E054414F8011B3B6836
:1025540030469847A542F8D1F8BD7047F8080020E6
:102564007C410008094B1A7A3F2A04D0084A0948DA
:102574001268197A104710B5054C07482368984724
:1025840023680648BDE81040184700BF000D00202E
:10259400F8080020A84100088C4000088441000885
:1025A40070B5012186B04FF48040FFF70FFE012182
:1025B4000820FFF7FFFD4FF480611022022306ACD0
:1025C4001A4D24F8181D214628468DF803208DF84D
:1025D40002301826FEF76EFD03224FF460432146B5
:1025E40028468DF80220ADF800308DF80360FEF720
:1025F40061FD072000234FF000724FF082750C4CF0
:1026040001A9ADF814002046CDE90153CDE9032317
:1026140000F03CF820464FF4807100F067F8204643
:10262400012100F053F806B070BD00BF000C01405A
:1026340000380040F0B401240178C37801F01F028F
:1026440094404E092BB90F4B203643F82640F0BC7A
:1026540070470D4B4778DD688278E8430F23C0F359
:102664000220C0F10405C34007FA05F513402B43CB
:10267400044A1B01DBB2114481F8003342F82640BE
:10268400F0BC704700E100E000ED00E04A880B88F0
:1026940030B48C881343CA8823430C8913434A8972
:1026A4008D8923431343CC8902882B43234302F4AB
:1026B400415213430380838B0A8A23F400631B046F
:1026C4001B0C838330BC0282704700BF038829B986
:1026D40023F040031B041B0C0380704743F04003AA
:1026E4000380704781817047808970474FF6FF638C
:1026F4009942038805BF23F480731B0443F4807359
:102704001B0C0380704700BF0389194214BF0120CA
:102714000020704730B5012187B005460520FFF73A
:1027240049FD01214FF48040FFF744FD4FF400714F
:10273400182203231D4CADF80010204669468DF87D
:1027440003208DF80230FEF7B5FC4FF480620423B9
:1027540069462046ADF800208DF80330FEF7AAFC48
:1027640000234FF4402204F5405402A92046CDE949
:102774000332ADF814300295FFF77CFD20460122A8
:1027840040F22551FFF7DCFD0122204640F227717B
:10279400FFF7D6FD064B06A840F8143DFFF74AFFA5
:1027A40020460121FFF7C0FD07B030BD00080140FD
:1027B400250000011C4A10B4138899060CD5012089
:1027C40093881A4C1A49DBB223720870138823F0D9
:1027D40020031B041B0C1380134A13881B0618D5F3
:1027E400144B18685968884215D000205968C9B23A
:1027F4001944497A91805A68D2B21A4450725A687C
:1028040001325A60084A138823F080031B041B0C0E
:10281400138010BC70470120918921F080010904C4
:10282400090C91811872EDE700380140000D002079
:10283400200E0020140D002010B5142203234FF4A1
:10284400006482B001A90548ADF804408DF8072062
:102854008DF80630FEF72EFC02B010BD00080140D2
:1028640038B52D4C4FF400612046FFF7ABFD40F224
:102874007710FEF70FFE2046CC224FF40061FFF7DD
:10288400C1FD0C20FEF706FE442220464FF40061F1
:10289400FFF7B8FD2148FEF7FDFD4FF40061204627
:1028A400FFF790FD40F27710FEF7F4FD2046CC22AE
:1028B4004FF40061FFF7A6FD0C20FEF7EBFDBE22EE
:1028C40020464FF40061FFF79DFD0C20FEF7E2FD6A
:1028D4004FF400612046FFF7C1FD4FF0000560F39F
:1028E40007050220FEF7D6FD20464FF40061FFF7EE
:1028F400B5FD4FF4006160F30F252046FFF762FD3C
:1029040028B200F0F1F84FF0765100F041F900F0F0
:102914008FFA00B238BD00BF00080140E093040004
:1029240008B50020FFF79CFF014B186008BD00BFED
:10293400240E002010B5094C094823689847094A19
:10294400236811680848984723680848984723680B
:102954000121BDE810400648184700BFF8080020D0
:1029640068400008240E0020BC4100088C40000888
:102974009440000880F0004002E000BF81F0004174
:1029840042001FBF5FEA410392EA030F7FEA226C11
:102994007FEA236C6AD04FEA1262D2EB1363C1BFA1
:1029A400D218414048404140B8BF5B42192B88BF10
:1029B400704710F0004F40F4000020F07F4018BF33
:1029C400404211F0004F41F4000121F07F4118BF53
:1029D400494292EA030F3FD0A2F1010241FA03FCFB
:1029E40010EB0C00C3F1200301FA03F100F00043E3
:1029F40002D5494260EB4000B0F5000F13D3B0F1AB
:102A0400807F06D340084FEA310102F10102FE2A19
:102A140051D2B1F1004F40EBC25008BF20F0010089
:102A240040EA03007047490040EB000010F4000F37
:102A3400A2F10102EDD1B0FA80FCACF1080CB2EBCA
:102A44000C0200FA0CF0AABF00EBC2505242184329
:102A5400BCBFD0401843704792F0000F81F40001CE
:102A640006BF80F400000132013BB5E74FEA4103A1
:102A74007FEA226C18BF7FEA236C21D092EA030F0D
:102A840004D092F0000F08BF0846704790EA010F87
:102A94001CBF0020704712F07F4F04D1400028BFB4
:102AA40040F00040704712F100723CBF00F5000096
:102AB400704700F0004343F0FE4040F400007047CC
:102AC4007FEA226216BF08467FEA23630146420278
:102AD40006BF5FEA412390EA010F40F4800070478B
:102AE4004FF0000304E000BF10F0004348BF404231
:102AF4005FEA000C08BF704743F0964301464FF06D
:102B040000001CE050EA010208BF70474FF00003C8
:102B14000AE000BF50EA010208BF704711F0004309
:102B240002D5404261EB41015FEA010C02BF8446D9
:102B34000146002043F0B64308BFA3F18053A3F538
:102B44000003BCFA8CF2083AA3EBC25310DB01FA7F
:102B540002FC634400FA02FCC2F12002BCF1004F03
:102B640020FA02F243EB020008BF20F00100704794
:102B740002F1200201FA02FCC2F1200250EA4C00E8
:102B840021FA02F243EB020008BF20EADC7070472E
:102B94004FF0FF0C1CEAD0521EBF1CEAD15392EA3C
:102BA4000C0F93EA0C0F6FD01A4480EA010C400218
:102BB40018BF5FEA41211ED04FF0006343EA501072
:102BC40043EA5111A0FB01310CF00040B1F5000FB4
:102BD4003EBF490041EAD3715B0040EA010062F163
:102BE4007F02FD2A1DD8B3F1004F40EBC25008BF4D
:102BF40020F00100704790F0000F0CF0004C08BF6B
:102C040049024CEA502040EA51207F3AC2BFD2F137
:102C1400FF0340EAC250704740F400004FF0000345
:102C2400013A5DDC12F1190FDCBF00F0004070477F
:102C3400C2F10002410021FA02F1C2F1200200FABD
:102C440002FC5FEA310040F1000053EA4C0308BF84
:102C540020EADC70704792F0000F00F0004C02BFD5
:102C6400400010F4000F013AF9D040EA0C0093F050
:102C7400000F01F0004C02BF490011F4000F013BAA
:102C8400F9D041EA0C018FE70CEAD15392EA0C0F18
:102C940018BF93EA0C0F0AD030F0004C18BF31F083
:102CA400004CD8D180EA010000F00040704790F059
:102CB400000F17BF90F0004F084691F0000F91F0FD
:102CC400004F14D092EA0C0F01D142020FD193EAC3
:102CD4000C0F03D14B0218BF084608D180EA01004B
:102CE40000F0004040F0FE4040F40000704740F027
:102CF400FE4040F4400070474FF0FF0C1CEAD052F5
:102D04001EBF1CEAD15392EA0C0F93EA0C0F69D050
:102D1400A2EB030280EA010C49024FEA402037D0BB
:102D24004FF0805343EA111143EA10130CF00040B2
:102D34008B4238BF5B0042F17D024FF4000C8B42A2
:102D440024BF5B1A40EA0C00B3EB510F24BFA3EB82
:102D5400510340EA5C00B3EB910F24BFA3EB910352
:102D640040EA9C00B3EBD10F24BFA3EBD10340EAAC
:102D7400DC001B0118BF5FEA1C1CE0D1FD2A3FF6F2
:102D840050AF8B4240EBC25008BF20F001007047A7
:102D94000CF0004C4CEA50207F32C2BFD2F1FF034A
:102DA40040EAC250704740F400004FF00003013A7B
:102DB40037E792F0000F00F0004C02BF400010F41F
:102DC400000F013AF9D040EA0C0093F0000F01F033
:102DD400004C02BF490011F4000F013BF9D041EA55
:102DE4000C0195E70CEAD15392EA0C0F08D1420288
:102DF4007FF47DAF93EA0C0F7FF470AF084676E75B
:102E040093EA0C0F04D14B023FF44CAF08466EE733
:102E140030F0004C18BF31F0004CCAD130F0004201
:102E24007FF45CAF31F000437FF43CAF5FE700BF59
:102E34004FEA4002B2F1FE4F0FD34FF09E03B3EBC3
:102E440012620DD94FEA002343F0004310F0004F03
:102E540023FA02F018BF404270474FF00000704759
:102E640012F1610F01D1420205D110F0004008BFF8
:102E74006FF0004070474FF000007047144B70B57E
:102E84001D6806460C460DB1AB6B9BB1636ED8074B
:102E940002D4A389990516D528462246314600F066
:102EA4008FF8636E0546DA0702D4A3899B0505D51E
:102EB400284670BD284600F07FFAE7E7A06DFDF7CD
:102EC40039FA284670BDA06DFDF732FAE4E700BF79
:102ED40000000020844641EA000313F0030349D1B3
:102EE400403A23D30B6803604B6843608B6883606C
:102EF400CB68C3600B6903614B6943618B69836170
:102F0400CB69C3610B6A03624B6A43628B6A836257
:102F1400CB6AC3620B6B03634B6B43638B6B83633F
:102F2400CB6BC36340304031403ADBD230320BD3F9
:102F34000B6803604B6843608B688360CB68C36035
:102F440010301031103AF3D20C3205D351F8043B4F
:102F540040F8043B043AF9D2043208D0D2071CBF2B
:102F640011F8013B00F8013B01D30B880380604654
:102F7400704700BF082A13D38B07B1D010F00303A6
:102F8400AED0C3F10403D21ADB071CBF11F8013B16
:102F940000F8013BA4D331F8023B20F8023B9FE741
:102FA400043AD9D3013A11F8013B00F8013BF9D2B4
:102FB4000B7803704B7843708B788370604670474E
:102FC400F8B50E461446074608B1836BBBB1636E71
:102FD400D80702D4A389990526D5A368013B002B01
:102FE400A3600FDBF5B223685A1C22601E70636E67
:102FF400DA0702D4A3899B0511D52846F8BD00F051
:10300400DBF9E4E7A269934202DBF5B20A2DEAD1C7
:1030140031463846224600F00BF80546E7E7A06D36
:10302400FDF788F92846F8BDA06DFDF781F9D4E7CE
:10303400F8B50D461446064610B1836B002B43D0F9
:10304400B4F90C20A36991B20807A3601BD52369C6
:10305400CBB1EDB289042F4622D522686169D31A17
:10306400994229DD0133A168501C0139A160206017
:10307400157062699A422AD0A389DB0701D50A2D0B
:1030840025D03846F8BD2146304600F029F820BB4B
:10309400B4F90C20EDB291B2890423692F46DCD433
:1030A400616E42F4005221F40051A28122686166EB
:1030B4006169D31A9942D5DC2146304600F020F9E3
:1030C40058B901232268CEE700F076F9B8E7214623
:1030D400304600F015F90028D3D04FF0FF37D0E781
:1030E40038B5314B054618680C4610B1836B002B7C
:1030F4003AD0B4F90C2093B218070CD52069A8B1C2
:1031040013F0010220D000226369A2605B42A36134
:1031140000B3002038BDD9063DD5580727D420690F
:1031240042F00803A3819BB20028E9D103F4207282
:10313400B2F5007FE4D02846214600F013FBA389B2
:10314400206913F00102DED1990758BF6269A260B9
:103154000028DED1B4F90C301A06DBD543F0400365
:10316400A3814FF0FF3038BD00F026F9C1E7216B91
:1031740051B104F14003994204D0284600F0A8F963
:10318400B4F90C20002323630023206922F02402D5
:10319400C4E90003C4E7092342F040022B604FF066
:1031A400FF30A28138BD00BF00000020B1F90C300F
:1031B4002DE9F0419AB20C461107804644D4626866
:1031C40043F40063002AA3815ADDA56A002D54D07C
:1031D40000229BB2D8F80060E169C8F8002013F41B
:1031E400805240F0848001234046A847431C4BD0C2
:1031F400A389A56AE1695F0705D56268236B801A14
:103204000BB1E36BC01A024600234046A847451C95
:1032140046D00021B4F90C30226923F40063A38161
:10322400DB04C4E9002100D52065216BC8F80060E7
:1032340019B304F14003994202D0404600F048F922
:1032440000202063BDE8F0812669B6B1920718BF5B
:103254000023256808BF63692660AD1BA3600AE0EC
:103264002B463246676AE1694046B8470028A5EB19
:10327400000506442BDD002DF2DC0020BDE8F081C2
:10328400E26B002AA1DCF8E7D8F80030002BAFD0BD
:103294001D2B01D0162B2CD1C8F800600020EDE7BF
:1032A400D8F800501D2D1AD8144BB4F90C20EB405B
:1032B400DB4313F0010314D1216922F40062C4E951
:1032C4000013D104A281B0D5002DAED1ACE7A389FF
:1032D4004FF0FF3043F04003A381BDE8F081B4F91F
:1032E4000C2042F04002A2814FF0FF30C6E7206D6F
:1032F40081E7A38943F04003A381BFE70100402095
:1033040038B50D46044608B1836BA3B1B5F90C007A
:10331400B8B16B6EDB0701D481051AD52046294666
:10332400FFF744FF6B6E0446DA0702D4AB899B05B2
:103334000AD5204638BD00F03FF8B5F90C00002846
:10334400E7D10446204638BDA86DFCF7F3FF2046BC
:1033540038BDA86DFCF7ECFFE0E700BF002310B513
:1033640004468181C281C0E9003383604366C0E9B9
:1033740004338361194608225C30FCF761FF074877
:103384000749084A084BC4E90740C4E90912E36243
:1033940004F15800BDE81040FCF7C6BF5D3D0008CD
:1033A400813D0008BD3D0008DD3D0008014900F0F5
:1033B40083B900BF353E000810B504461448FCF735
:1033C400B7FFA26BFAB90320124904F53B73C4F8A2
:1033D400E832C4F8E022C4F8E402E163606804213E
:1033E400FFF7BCFFA06801220921FFF7B7FFE068DF
:1033F40002221221FFF7B2FF01230548A363BDE8AF
:103404001040FCF797BF0248BDE81040FCF792BF9C
:10341400E0080020B13300080148FCF789BF00BF71
:10342400F40800200148FCF785BF00BFF408002021
:10343400F8B50C46234F064600F070FCBB68C4F593
:103444007E615D680F3125F00305294421F47F6115
:1034540021F00F01A1F58054B4F5805F07DB002152
:10346400304600F067FCBB682B44984204D03046D9
:1034740000F05AFC0020F8BD6142304600F05AFCCE
:1034840001300DD0104BBA6819682D1B45F00105A9
:103494003046091B5560196000F046FC0120F8BD58
:1034A4000021304600F046FCBA68831A0F2BDEDD9B
:1034B400064943F001030C680349001B536008608C
:1034C400D5E700BF5C040020A008002064080020A9
:1034D400002953D0F8B50D46064600F01FFC55F8F8
:1034E40004CC714FA5F108012CF00103CA18B86887
:1034F4005468904224F0030453D01CF0010F54602C
:1035040002EB04003BD155F808CC4068A1EB0C0158
:103514008D6807F1080E7545634400F0010075D00D
:10352400D1F80CC0C5F80CC0CCF8085060B343F017
:1035340001024A60CB50B3F5007F50D35A0A042AE3
:1035440070D89A0902F13905ED0002F138007C19AE
:103554007A59083C944278D0506820F0030098428D
:1035640071D992689442F7D1E368C1E902433046C5
:103574009960E160BDE8F84000F0D6BB7047406850
:1035840000F001000028D2D19068484D2344A8429D
:1035940043F0010462D0D268C26090604C60CB50AA
:1035A400C9E71CF0010F234407D155F8084C091B47
:1035B400D1E902022344C26090603D4A43F0010015
:1035C400126848609A42B96004D83A4B3046196888
:1035D400FFF72EFF3046BDE8F84000F0A5BB0122FE
:1035E400DB087C68981013448240224307EBC30035
:1035F40057F833400838C1E902407A60304647F84A
:103604003310E160BDE8F84000F08EBB002845D1DE
:10361400D2E90202234443F00104C26090604C608A
:10362400CB50D7E7142A08D9542A1ED81A0B02F112
:103634006F05ED0002F16E0089E702F15C05ED0013
:1036440002F15B0083E714468EE701238210786859
:1036540003FA02F202437A60234686E7C7E90411BB
:10366400C1E902004C60CB50B4E7B2F5AA7F06D89A
:10367400DA0B02F17805ED0002F1770067E740F21A
:103684005450824206D89A0C02F17D05ED0002F1F5
:103694007C005CE74FF47E757E2058E743F0010020
:1036A4004860136096E700BF5C04002064040020B7
:1036B40068080020D00800202DE9F84310F538767A
:1036C4001ED0884607464FF00009D6E90154013D53
:1036D40010D4A389013D012B08D9B4F90E3001336C
:1036E40004D021463846C04749EA00096B1C04F15E
:1036F4006804EED13668002EE7D14846BDE8F88369
:10370400B1464846BDE8F88370B50C46B1F90E10D1
:1037140096B0002915461E460FDA0023A2893360AD
:1037240012F0800004D14FF480632B6016B070BD9A
:10373400402218462A6016B070BD6A4600F0E0FBCD
:103744000028EADB019B4FF4806203F47043A3F585
:103754000053B3FA83F34FF400605B0933602A60CB
:1037640016B070BD8A890B46920706D5012103F174
:10377400430259611A601A61704770B582B001AB97
:103784006A460C460546FFF7BFFF009906462846E1
:1037940000F032F8B4F90C30D8B1164A0099EA6353
:1037A400019A43F08003A3812060C4E904011AB99B
:1037B4003343A38102B070BD2846B4F90E1000F063
:1037C400B3FBA0B1A38923F0030343F001031BB2AD
:1037D400EEE79A05EED4012123F0030304F143023A
:1037E40043F00203A381616122602261E2E7B4F93C
:1037F4000C30DDE7B13300082DE9F04F01F10B0582
:10380400162D83B0064623D8102900F2B68000F0A6
:1038140085FA102518230220CC4F3B445C68A3F1A1
:103824000802944200F056816368E16823F00303C0
:1038340023445A68A56842F00102E96030468D606D
:103844005A6000F071FA0834204603B0BDE8F08FE6
:1038540035F0070500F19180A94200F28E8000F056
:103864005DFAB5F5FC7FC0F064816B0A00F08C80D2
:10387400042B00F23681AB0903F1390003F1380C53
:10388400C100B24F39444C680839A14206D10CE05A
:10389400002A80F21B81E468A14206D0636823F009
:1038A40003035A1B0F2AF3DD60463C69DFF8B0C2FC
:1038B40064456FD0636823F003035A1B0F2A00F397
:1038C4002681002AC7E904CC80F21781B3F5007F72
:1038D40080F059810122DB08991013448A407968E9
:1038E40057F833E007EBC3080A43A8F10801C4E919
:1038F40002E17A6047F83340CEF80C40012483108B
:103904009C4094424CD8144206D120F00300640039
:10391400144200F10400FAD007EBC009CE468046F9
:10392400DEF80C309E4507D107E1002A80F21C81A5
:10393400DB689E4500F00181596821F003014A1BB0
:103944000F2AF2DD45F001083046D3E902E41D44B4
:1039540042F00106C3F80480CEF80C40C4F808E035
:10396400C7E90455C5E902CC6E605A50019300F0D2
:10397400DBF9019B03F1080466E700240C232046CD
:10398400336003B0BDE8F08F4FF4007140204FF076
:103994003F0C76E701247A6883109C409442B2D9A4
:1039A400BC68636823F00309A94503D3A9EB0503A5
:1039B4000F2B7BDC664BDFF8ACA11A68DAF8003019
:1039C40005EB0208013300F03A8108F5805808F14C
:1039D4000F0828F47F6828F00F084146304600F0AD
:1039E400A9F9B0F1FF3F834600F0F68004EB09002B
:1039F400584500F2EF80574A13684344136000F0BF
:103A04003F81DAF8001001311BBFABEB00001B183B
:103A1400CAF800B013601BF0070300F02681C3F15D
:103A24000801C3F580538B440833D844C8F30B080A
:103A3400A3EB080841463046019200F07BF9431C91
:103A4400019A00F03881A0EB0B01414441F00101DF
:103A54001368BC424344C7F808B01360CBF80410A1
:103A640015D0B9F10F0F40F222814FF0050E6168B5
:103A7400A9F10C0020F0070001F00101014304EB5F
:103A8400000C0F286160CCE901EE00F22C81324A6F
:103A940032481168BC688B42016888BF1360626851
:103AA4008B4222F0030288BF036099E045F00102D3
:103AB40043F00103254462603046BD6008346B6006
:103AC40000F032F9204603B0BDE8F08F23445A6871
:103AD400E168AFE6DC68A34208BF02303FF4E5AE1C
:103AE400A2E6142B70D9542B00F2AC802B0B03F1FB
:103AF4006F0003F16E0CC100C3E623445A683046DC
:103B040042F001025A60083400F00EF99CE645F0D8
:103B1400010E42F001012544C4F804E03046C7E92F
:103B24000455C5E902CC6960E25000F0FDF80834A0
:103B34008AE6E80805F108036EE608F1010818F0C2
:103B4400030F0EF1080E7FF4EBAE60E05C0400207E
:103B5400D0080020A0080020C8080020CC080020BD
:103B640064040020640800201C4619444A68DB6889
:103B740054F8085F42F001024A603046EB609D60F1
:103B840000F0D2F860E65A0A042A35D9142A6FD80C
:103B940002F15C01C9005B3207EB010E7958AEF10A
:103BA400080E8E4558D04A6822F003029A4202D980
:103BB40089688E45F7D1D1F80CE07A68C4E9021E11
:103BC400CEF80840CC6099E603F15C0003F15B0C8D
:103BD400C10056E6BC4272D0BC68626822F003029F
:103BE4009542A2EB050302D80F2B3FF75FAF304697
:103BF40000F09AF8002427E69A0902F13901C90075
:103C04003832C9E7D9F80090994540F0838010F024
:103C1400030FA9F1080300F1FF30F3D17B6823EA15
:103C240004037B6064009C423FF6BAAE1CB9B7E65D
:103C3400640008F104081C42FAD040466CE608F11E
:103C44001008CAE6B3F5AA7F26D8EB0B03F1780077
:103C540003F1770CC10014E64FF001087B68921061
:103C640008FA02F21A437A60A8E74FF48053DCE6BC
:103C7400542A29D81A0B02F16F01C9006E328BE75E
:103C8400C0F30B0100297FF4BCAE09EB0802B9684C
:103C940042F001024A60FAE640F2545293421CD8C0
:103CA400AB0C03F17D0003F17C0CC100E9E50123B9
:103CB400CBF804309BE701214FF00008C8E6164A10
:103CC4001368434413609CE6B2F5AA7F14D8DA0B58
:103CD40002F17801C90077325EE74FF47E717F20EC
:103CE4004FF07E0CCDE504F1080130460192FFF758
:103CF400EFFB019A1368CAE640F254518A4205D890
:103D04009A0C02F17D01C9007C3245E74FF47E71C3
:103D14007E2241E77B6885E7A00800200148FCF784
:103D240007BB00BFE40800200148FCF703BB00BF49
:103D3400E408002038B50023064C054608462360F5
:103D4400FEF71AFB431C00D038BD2368002BFBD0C0
:103D54002B6038BD280E002010B50C46B1F90E10AA
:103D640000F00AF9002803DB236D0344236510BD2A
:103D7400A38923F48053A38110BD00BF2DE9F04132
:103D8400B1F90C409846E3050D461746B1F90E10FB
:103D9400064607D50223002200F0D8F8B5F90C40F6
:103DA400B5F90E1024F48054AC8143463A463046AB
:103DB400BDE8F04100F014B810B50C46B1F90E108E
:103DC40000F0C4F8A389421C0EBF23F4805343F4CB
:103DD40080532065A38110BDB1F90E1000F016B810
:103DE400F8B50E460025084C114607461A463046DB
:103DF4002560FEF7DFFA431C00D0F8BD2368002BD2
:103E0400FBD03B60F8BD00BF280E002038B500236E
:103E1400064C054608462360FEF7BCFA431C00D056
:103E240038BD2368002BFBD02B6038BD280E002042
:103E340070B5002948D005460C4610B1836B002BA1
:103E440048D0626EB4F90C30D00740D4990530D50F
:103E540021462846FFF7AAF9E36A064633B1E16929
:103E6400284698470028B8BF4FF0FF36A3891A06A2
:103E74003CD4216B41B104F14003994202D028465D
:103E8400FFF726FB00232363616C21B12846FFF76B
:103E94001FFB00236364FFF7BFFA0022636EA28155
:103EA400DB071FD5A06DFCF741FAFFF7BBFA3046DC
:103EB40070BDA06DFCF73CFAB4F90C30002BC7D1EF
:103EC400666E16F0010616D00026304670BD002B33
:103ED400FAD0BDE7FFF770FA626EB4F90C30D00780
:103EE400F5D4B3E7A06DFCF725FADBE72169284692
:103EF400FFF7EEFABDE7A06DFCF71CFA304670BD83
:103F040070B50D460023074C06461146284623602B
:103F1400FEF744FA431C00D070BD2368002BFBD08D
:103F2400336070BD280E002038B50023064C0546CA
:103F340008462360FEF738FA431C00D038BD2368D6
:103F4400002BFBD02B6038BD280E0020F8B50E46A0
:103F54000025084C114607461A4630462560FEF7F0
:103F640025FA431C00D0F8BD2368002BFBD03B602E
:103F7400F8BD00BF280E0020F8B50E460025084CF9
:103F8400114607461A4630462560FEF711FA431CCF
:103F940000D0F8BD2368002BFBD03B60F8BD00BF08
:103FA400280E0020F8B500BFF8BC08BC9E46704738
:103FB400F8B500BFF8BC08BC9E4670470800002056
:103FC400E71CE3005B253032585D00000D0A5354B2
:103FD4004D33324631303343385436206973206FC1
:103FE4006E6C696E652E0D0A000000006E5246323A
:103FF400344C30312B20636865636B3A2000000039
:104004004641494C0D0A00004F4B0D0A00000000C8
:104014005041594C4F41443A3E0000003C202E2E62
:104024002E2054583A20000054494D454F55540011
:104034004552524F520000004F4B00004D41582052
:1040440052455452414E534D495400000A0B0C0D35
:104054000E0F100011121314151600006E52463282
:10406400340000001B5B303B33376D005049442063
:10407400202075530D0A00005B2532645D3A20252B
:104084003037640D0A0000001B5B303B33326D0097
:104094001B5B2564410000001B5B2564420000009B
:1040A4005E43204F4B2E2E0D0A000000466C6173B8
:1040B400682073697A655B6B425D203A2025640D44
:1040C4000A0000004D435520756E697175652049DD
:1040D4004420203A20307825582558255825580D55
:1040E4000A00000053797374656D20467265715B34
:1040F400487A5D3A2025640D0A0000001B5B324AB1
:10410400000000000D0A535748206465627567205B
:10411400706F72740D0A00004677205665727369D9
:104124006F6E3A2025642E25642E25642E25642086
:104134005B25732025735D0D0A0000005365702014
:10414400323020323031380031333A35343A333773
:1041540000000000737464696F2E633A20696E6313
:104164007265617365204D41585F535452494E47FF
:104174005F53495A450A0D0025303258200000008B
:104184000D0A3F202D205072696E7420617661699A
:104194006C61626C6520636F6D6D616E64730D0A92
:1041A4000D0A00005B253033645D57726F6E672023
:1041B4004B65790D0A0000004B6F6C656B746F7270
:0841C4003A2025640D0A0000F9
:1041CC00080000200000000000000000F4020020A5
:1041DC005C030020C403002000000000000000006D
:1041EC0000000000000000000000000000000000C3
:1041FC0000000000000000000000000000000000B3
:10420C0000000000000000000000000000000000A2
:10421C000000000000000000000000000000000092
:10422C000000000000000000000000000000000082
:10423C000000000000000000000000000000000072
:10424C000000000000000000000000000000000062
:10425C000000000000000000000000000000000052
:10426C000000000000000000000000000000000042
:10427C0001000000000000000E33CDAB34126DE6DF
:10428C00ECDE05000B000000000000000000000048
:10429C000000000000000000000000000000000012
:1042AC000000000000000000000000000000000002
:1042BC0000000000000000000000000000000000F2
:1042CC0000000000000000000000000000000000E2
:1045FC00D4080020000000000000000001020304A9
:10460C000607080900A24A04000000000102030486
:10461C000102030406070809020406080000000052
:10462C00000000005C0400205C04002064040020F6
:10463C00640400206C0400206C040020740400202E
:10464C00740400207C0400207C04002084040020DE
:10465C00840400208C0400208C040020940400208E
:10466C00940400209C0400209C040020A40400203E
:10467C00A4040020AC040020AC040020B4040020EE
:10468C00B4040020BC040020BC040020C40400209E
:10469C00C4040020CC040020CC040020D40400204E
:1046AC00D4040020DC040020DC040020E4040020FE
:1046BC00E4040020EC040020EC040020F4040020AE
:1046CC00F4040020FC040020FC040020040500205D
:1046DC00040500200C0500200C050020140500200A
:1046EC00140500201C0500201C05002024050020BA
:1046FC00240500202C0500202C050020340500206A
:10470C00340500203C0500203C0500204405002019
:10471C00440500204C0500204C05002054050020C9
:10472C00540500205C0500205C0500206405002079
:10473C00640500206C0500206C0500207405002029
:10474C00740500207C0500207C05002084050020D9
:10475C00840500208C0500208C0500209405002089
:10476C00940500209C0500209C050020A405002039
:10477C00A4050020AC050020AC050020B4050020E9
:10478C00B4050020BC050020BC050020C405002099
:10479C00C4050020CC050020CC050020D405002049
:1047AC00D4050020DC050020DC050020E4050020F9
:1047BC00E4050020EC050020EC050020F4050020A9
:1047CC00F4050020FC050020FC0500200406002058
:1047DC00040600200C0600200C0600201406002005
:1047EC00140600201C0600201C06002024060020B5
:1047FC00240600202C0600202C0600203406002065
:10480C00340600203C0600203C0600204406002014
:10481C00440600204C0600204C06002054060020C4
:10482C00540600205C0600205C0600206406002074
:10483C00640600206C0600206C0600207406002024
:10484C00740600207C0600207C06002084060020D4
:10485C00840600208C0600208C0600209406002084
:10486C00940600209C0600209C060020A406002034
:10487C00A4060020AC060020AC060020B4060020E4
:10488C00B4060020BC060020BC060020C406002094
:10489C00C4060020CC060020CC060020D406002044
:1048AC00D4060020DC060020DC060020E4060020F4
:1048BC00E4060020EC060020EC060020F4060020A4
:1048CC00F4060020FC060020FC0600200407002053
:1048DC00040700200C0700200C0700201407002000
:1048EC00140700201C0700201C07002024070020B0
:1048FC00240700202C0700202C0700203407002060
:10490C00340700203C0700203C070020440700200F
:10491C00440700204C0700204C07002054070020BF
:10492C00540700205C0700205C070020640700206F
:10493C00640700206C0700206C070020740700201F
:10494C00740700207C0700207C07002084070020CF
:10495C00840700208C0700208C070020940700207F
:10496C00940700209C0700209C070020A40700202F
:10497C00A4070020AC070020AC070020B4070020DF
:10498C00B4070020BC070020BC070020C40700208F
:10499C00C4070020CC070020CC070020D40700203F
:1049AC00D4070020DC070020DC070020E4070020EF
:1049BC00E4070020EC070020EC070020F40700209F
:1049CC00F4070020FC070020FC070020040800204E
:1049DC00040800200C0800200C08002014080020FB
:1049EC00140800201C0800201C08002024080020AB
:1049FC00240800202C0800202C080020340800205B
:104A0C00340800203C0800203C080020440800200A
:104A1C00440800204C0800204C08002054080020BA
:104A2C0054080020FFFFFFFF00000200D90200081D
:084A3C00290200080502000830
:0400000508000204E9
:00000001FF
