:020000040800F2
:1000000030220020F10C0008510D0008510D0008AD
:10001000510D0008510D0008510D000800000000AE
:10002000000000000000000000000000510D00086A
:10003000510D000800000000510D0008691400086F
:10004000510D0008510D0008510D0008510D000818
:10005000510D0008510D0008510D0008510D000808
:10006000510D0008510D0008510D0008510D0008F8
:10007000510D0008510D0008510D0008510D0008E8
:10008000510D0008510D0008510D0008510D0008D8
:10009000510D0008510D0008510D0008510D0008C8
:1000A000510D0008510D0008510D0008510D0008B8
:1000B000510D0008510D0008510D0008510D0008A8
:1000C000510D0008510D0008510D0008510D000898
:1000D000510D0008E9280008510D0008510D0008D5
:1000E000510D0008510D0008510D000800000000DE
:1000F0000000000000000000000000000000000000
:0C01000000000000000000005FF808F1A3
:0402000001000000F9
:1002040010B5054C237833B9044B13B10448AFF34C
:1002140000800123237010BD780800200000000036
:100224000C01000808B5034B1BB103490348AFF3A5
:10023400008008BD000000007C0800200C010008BC
:10024400F0B4860743D0541E002A3ED0CAB20346F7
:1002540002E014F1FF3438D303F8012B9D07F8D1E1
:10026400032C2BD9CDB245EA05250F2C45EA0545CB
:1002740016D9A4F110073F0903F1200606EB07166F
:1002840003F1100242E9045542E902551032B24228
:10029400F8D104F00F040137032C03EB07130DD935
:1002A4001E462246043A032A46F8045BFAD8221F63
:1002B40022F003020432134404F003042CB1C9B243
:1002C4001C4403F8011B9C42FBD1F0BC704714464C
:1002D4000346C5E7024B13B1024800F005B8704766
:1002E40000000000F9020008002301461A461846DF
:1002F40000F022B838B50A4C0A4D641BA4100AD089
:1003040004F18043013B05EB8305013C55F80439B6
:100314009847002CF9D1BDE8384003F0B5BE00BFC2
:100324007808002074080020704700BF704700BFA1
:10033400704700BF704700BF2DE9F8432B4D0646B8
:10034400286898460F469146FFF7F2FF284B1C6831
:10035400D4F84831002B3DD05A681F2A0DDC02F135
:10036400010C16BB0232C3F804C0286843F822709B
:10037400FFF7E0FF0020BDE8F8831E4B7BB34FF48A
:10038400C870AFF30080034648B30020D4F8481186
:100394004FF0010CC3E900100246C4F84831C3F819
:1003A4008801C3F88C01002EDCD0012103EB820408
:1003B400C4F88890D3F8880191400843022EC3F80A
:1003C4008801C4F80881CDD1D3F88C010143C3F866
:1003D4008C11C7E704F5A673C4F84831BCE7286854
:1003E400FFF7A8FF4FF0FF30C5E700BF300400203F
:1003F400984000080000000080B584B000AF786029
:100404000B46FB70234BBB604FF40071224800F095
:100414003CFFFB781946786800F09EFB4FF40071AE
:100424001D4800F024FF00F06AFB0346FB73FB7BCE
:1004340003F03003002B05D1BB685A1EBA60002BB1
:10044400F1D100E000BF4FF40071134800F01DFF2C
:10045400BB68002B01D1022318E0104B1B68FA7B08
:1004640011460F48984700F062FBFB7B03F0100332
:10047400002B01D0032309E0FB7B03F02003002BB6
:1004840001D0012302E000F042FB0023184610379C
:10049400BD4680BDFFFF0F00000C0140F80800209E
:1004A400AC40000880B500AFFF2000F001FB7320D2
:1004B40000F051FA202000F0E0FA0C2000F02AFAB3
:1004C400032000F056FA0849062000F063FA0620DB
:1004D40000F0B8FA002000F0FCF900F028FB02203C
:1004E40000F0D8F900BF80BD3841000880B500AFE6
:1004F400124B1B681248984702F02EF801F0CEFC0C
:100504004FF400710F4800F0C0FE0C4B1B680E48FE
:10051400984700F091F90346002B04D1074B1B6860
:100524000A489847FEE7054B1B680948984700F0BE
:1005340031F9FFF7B7FF00BF80BD00BFF808002006
:10054400B4400008000C0140D4400008E840000812
:10055400F040000880B58AB000AF00237B6214E04D
:10056400284B1B685A1C27490A60D9B23A467B6A51
:1005740013440A461A70234B1B68FF2B02D9214BE4
:1005840000221A607B6A01337B627B6A042BE7D901
:100594001D4B1B681D4898473B460521184601F032
:1005A4008BFF194B1B681A4898473B460521184690
:1005B400FFF722FF034687F8233097F82330022BF6
:1005C40008D0032B0BD0012B0ED10F4B1B68114805
:1005D40098470EE00C4B1B680F48984709E00A4BFC
:1005E4001B680E48984704E0074B1B680C48984763
:1005F40000BF054B1B680B48984700BF2837BD4612
:1006040080BD00BF94080020F8080020F8400008CE
:100614000441000810410008144100081C4100086E
:100624002C4100083441000880B584B000AF034673
:10063400FB714FF480510C4800F027FEFB7903F066
:100644001F03DBB2184601F059FCFF2001F056FCF1
:100654000346FB734FF48051034800F008FEFB7B14
:1006640018461037BD4680BD000C014080B582B0ED
:1006740000AF03460A46FB711346BB714FF4805129
:10068400194800F002FEFB791F2B10D897F90730A8
:1006940003F01F035BB243F020035BB2DBB21846E6
:1006A40001F02CFCBB79184601F028FC13E0FB791F
:1006B400184601F023FCFB79E12B0CD0FB79E22BEB
:1006C40009D0FB79E32B06D0FB79FF2B03D0BB7950
:1006D400184601F013FC4FF48051034800F0C7FDA5
:1006E40000BF0837BD4680BD000C014090B583B003
:1006F40000AF03463960FB711346BB714FF4805160
:100704000E4800F0C2FDFB79184601F0F7FB07E044
:100714003C68631C3B60FF2001F0F0FB0346237040
:10072400BB795A1EBA71002BF2D14FF480510348A1
:1007340000F09DFD00BF0C37BD4690BD000C01408C
:1007440080B582B000AF03463960FB711346BB71BC
:100754004FF480510E4800F098FDFB79184601F0E3
:10076400CDFB06E03B685A1C3A601B78184601F042
:10077400C5FBBB795A1EBA71002BF3D14FF48051DB
:10078400034800F074FD00BF0837BD4680BD00BFBC
:10079400000C014080B500AF08210020FFF766FF80
:1007A4003F210120FFF762FF03210220FFF75EFFD4
:1007B40003210320FFF75AFF03210420FFF756FF0C
:1007C40002210520FFF752FF0E210620FFF74EFFFE
:1007D40000210720FFF74AFF00211120FFF746FF01
:1007E40000211220FFF742FF00211320FFF73EFFF4
:1007F40000211420FFF73AFF00211520FFF736FFF0
:1008040000211620FFF732FF00211C20FFF72EFFE6
:1008140000211D20FFF72AFF00F081F900F077F98D
:1008240000F085F94FF48051024800F020FD00BF2C
:1008340080BD00BF000C014080B584B000AF144BF4
:10084400BB600522B9683020FFF77AFF3B460522DA
:1008540019461020FFF74AFF0023FB7310E0FB7BCF
:1008640007F11002134413F8102CBB68591CB9602B
:100874001B789A4201D0002306E0FB7B0133FB7313
:10088400FB7B042BEBD9012318461037BD4680BDF2
:100894004C41000880B584B000AF0346FB710020D2
:1008A400FFF7C2FE0346FB73FB79022B04D1FB7BEB
:1008B40043F00203FB7303E0FB7B23F00203FB73AF
:1008C400FB7B19460020FFF7D1FE00BF1037BD4661
:1008D40080BD80B584B000AF0346FB710020FFF7F4
:1008E400A3FE0346FB73FB7B23F00103FB7397F921
:1008F400073003F001035AB297F90F3013435BB288
:10090400FB73FB7B19460020FFF7B0FE00BF1037D6
:10091400BD4680BD80B584B000AF0346FB710020A6
:10092400FFF782FE0346FB73FB7B23F00C03FB7390
:1009340097F9073003F00C035AB297F90F301343B9
:100944005BB2FB73FB7B19460020FFF78FFE00BFF1
:100954001037BD4680BD80B582B000AF0346FB7141
:10096400FB7919460520FFF781FE00BF0837BD4615
:1009740080BD80B582B000AF0346FB71FB79023BBA
:10098400DBB219460320FFF771FE00BF0837BD46EE
:1009940080BD000080B584B000AF03463960FB71B0
:1009A400FB79062B44D801A252F823F0CD090008A4
:1009B400CD090008210A0008210A0008210A0008BC
:1009C400210A0008CD0900080320FFF72DFE034685
:1009D4000133FB73FB7B3A6813443B604FF4805153
:1009E400164800F052FCFB79154AD35C43F020030F
:1009F400DBB2184601F082FA3B685A1E3A601B7853
:100A0400184601F07BFAFB7B5A1EFA73002BF3D1D4
:100A14004FF48051094800F02AFC0AE0FB79084AA7
:100A2400D25C3B681B7819461046FFF71FFE00E0B6
:100A340000BF00BF1037BD4680BD00BF000C0140A1
:100A44004441000880B584B000AF0346FB71062022
:100A5400FFF7EAFD0346FB73FB7B23F00603FB73FE
:100A6400FA7BFB791343FB73FB7B19460620FFF7E4
:100A7400FDFD00BF1037BD4680BD80B584B000AF1A
:100A84000346FB710620FFF7CFFD0346FB73FB7B98
:100A940023F02803FB73FA7BFB791343FB73FB7B83
:100AA40019460620FFF7E2FD00BF1037BD4680BDA2
:100AB40080B584B000AF0346FB71FB79052B04D9E4
:100AC40000210120FFF7D2FD15E00120FFF7ACFD66
:100AD4000346FB73FB79012202FA03F35BB2DB43A7
:100AE4005AB297F90F3013405BB2FB73FB7B194684
:100AF4000120FFF7BBFD00BF1037BD4680BD80B5A8
:100B040000AF0720FFF790FD0346184680BD80B56F
:100B140000AFFF21E120FFF7A9FD00BF80BD80B534
:100B240000AFFF21E220FFF7A1FD00BF80BD80B52B
:100B340082B000AF0720FFF777FD0346FB71FB7916
:100B440043F07003FB71FB7919460720FFF78EFD14
:100B540000BF0837BD4680BD80B582B000AF786065
:100B64000B46FB70FB781A467968A020FFF7E8FD76
:100B740000BF0837BD4680BD80B500AF154B1B686C
:100B8400144A43F001031360124B5A681149124B83
:100B940013404B600F4B1B680E4A23F0847323F4FD
:100BA400803313600B4B1B680A4A23F480231360C1
:100BB400084B5B68074A23F4FE035360054B4FF46C
:100BC4001F029A6000F00CF8044B4FF000629A6028
:100BD40000BF80BD001002400000FFF800ED00E0FF
:100BE40080B500AF00F002F800BF80BD80B483B0D0
:100BF40000AF00237B6000233B603A4B1B68394AFB
:100C040043F480331360374B1B6803F400333B60B9
:100C14007B6801337B603B68002B03D17B68B3F5B1
:100C2400A06FF0D12F4B1B6803F40033002B02D0CC
:100C340001233B6001E000233B603B68012B4BD167
:100C4400294B1B68284A43F010031360264B1B688A
:100C5400254A23F003031360234B1B68224A43F005
:100C6400020313601F4B1F4A5B6853601D4B1D4AF0
:100C74005B6853601B4B5B681A4A43F480635360A0
:100C8400184B5B68174A23F47C135360154B5B685D
:100C9400144A43F4E8135360124B1B68114A43F09F
:100CA4008073136000BF0F4B1B6803F00073002BAD
:100CB400F9D00C4B5B680B4A23F003035360094BD8
:100CC4005B68084A43F00203536000BF054B5B684E
:100CD40003F00C03082BF9D100BF0C37BD4680BCD0
:100CE400704700BF001002400020024080B582B06F
:100CF40000AF114B7B60114B3B6007E07A68131D1A
:100D04007B603B68191D396012681A603B680C4AA5
:100D14009342F3D30B480C494FF000028842B8BF0A
:100D240040F8042BFADBFFF727FF00F09BFC00BF21
:100D34000837BD4680BD00BFE64200080000002021
:100D440078080020780800202C0E002080B400AF22
:100D5400FEE7000080B500AF4FF480620021044834
:100D6400FFF76EFA034B00221A7000BF80BD00BF6C
:100D740000090020FC08002080B485B000AFF860B2
:100D8400B9601346FB71204B1B781F2B36D8FB68C8
:100D9400002B31D01C4B1B781C4A5B0113441C33C1
:100DA400FA681A60184B1B78184A5B011344BA6836
:100DB4001A60154B1B78154A5B01134403F11802A2
:100DC40013786FF3000313700F4B1B781846FB79ED
:100DD400002B0CBF01230023D9B20C4A43011A444F
:100DE400137961F300031371074B1B780133DAB2F3
:100DF400054B1A70002302E0FE2300E0FF2318468F
:100E04001437BD4680BC7047FC0800200009002050
:100E140080B485B000AFF860B9601346FB71294B0C
:100E24001B781F2B48D8FB68002B43D0254B1B781D
:100E3400254A5B0113441C33FA681A60214B1B7862
:100E4400214A5B0113440C33BA681A601D4B1B78AA
:100E540018461E4B1A681C4943010B4410331A6090
:100E6400184B1B78184A5B01134403F118021378DA
:100E740043F001031370134B1B78134A5B011344B3
:100E840000221A600F4B1B781846FB79002B0CBF0D
:100E940001230023D9B20C4A43011A44137961F3A4
:100EA40000031371074B1B780133DAB2054B1A7038
:100EB400002302E0FE2300E0FF2318461437BD465A
:100EC40080BC7047FC08002000090020980800201E
:100ED40080B483B000AF0023FB7115E0FA79FB798D
:100EE4000E4952010A44083212680C495B010B4452
:100EF40014331A60FB79094A5B0113440833002256
:100F04001A60FB790133FB71054B1B78FA799A421D
:100F1400E4D300BF0C37BD4680BC704700090020F5
:100F2400FC08002080B582B000AF164B1B68164841
:100F34009847144B1B68154898470023FB710EE033
:100F4400104B1B68F879FA79114952010A4414329A
:100F5400126801460F489847FB790133FB710E4B29
:100F64001B78FA799A42EBD3064B1B680B489847D7
:100F7400044B1B68FA7911460948984700BF0837A3
:100F8400BD4680BDF8080020544100085C410008BB
:100F94000009002068410008FC080020784100088E
:100FA4008041000890B583B002AF0E4B1B680E4A17
:100FB400128811460D4898470A4B1C680C4B1B8835
:100FC40019460C4B1B8818460B4B1A680B4B1B68B5
:100FD4000093134602460A48A04700BF0437BD46A3
:100FE40090BD00BFF8080020E0F7FF1F9C410008F7
:100FF400E8F7FF1FEAF7FF1FECF7FF1FF0F7FF1FEB
:10100400B441000880B500AF044B1B68044A126861
:1010140011460448984700BF80BD00BFF80800206F
:1010240034040020D4410008B0B584B004AF194B97
:101034001B6819489847174B1B6818489847154B65
:101044001B6817489847134B1C68164B1B781946A6
:10105400154B1B781846154B1B781D46144B1B78F3
:101064001A46144B0293144B019300922B460246EA
:101074001248A047074B1B6811489847FFF792FF97
:10108400FFF7C0FF034B1B680448984700BFBD46E9
:10109400B0BD00BFF8080020EC410008F44100088E
:1010A400FC410008000200080102000802020008D6
:1010B40003020008344200084042000810420008BD
:1010C4004C42000880B489B000AF786039600023D6
:1010D400FB6100233B610023BB610023FB60002311
:1010E4007B610023BB603B68DB7803F00F03FB618B
:1010F4003B68DB7803F01003002B05D03B689B783A
:101104001A46FB691343FB613B681B88DBB2002B67
:1011140044D07B681B687B610023BB6138E00122FB
:10112400BB6902FA03F3FB603B681B881A46FB6841
:1011340013403B613A69FB689A4226D1BB699B0024
:10114400FB600F22FB6802FA03F3BB60BB68DB435E
:101154007A6913407B61FA69FB6802FA03F37A69DE
:1011640013437B613B68DB78282B05D10122BB69E3
:101174009A407B685A6108E03B68DB78482B04D1CD
:101184000122BB699A407B681A61BB690133BB6168
:10119400BB69072BC3D97B687A691A603B681B88D3
:1011A400FF2B46D97B685B687B610023BB613AE017
:1011B400BB690833012202FA03F3FB603B681B8816
:1011C4001A46FB6813403B613A69FB689A4227D18F
:1011D400BB699B00FB600F22FB6802FA03F3BB6050
:1011E400BB68DB437A6913407B61FA69FB6802FAE6
:1011F40003F37A6913437B613B68DB78282B05D1C1
:10120400BB69083301229A407B685A613B68DB78EA
:10121400482B05D1BB69083301229A407B681A61C7
:10122400BB690133BB61BB69072BC1D97B687A6990
:101234005A6000BF2437BD4680BC704780B485B077
:1012440000AF78600B467B800023FB737B689A6851
:101254007B881340002B02D00123FB7301E00023A1
:10126400FB73FB7B18461437BD4680BC704780B4C3
:1012740083B000AF78600B467B807A887B681A6104
:1012840000BF0C37BD4680BC704780B483B000AF4C
:1012940078600B467B807A887B685A6100BF0C3784
:1012A400BD4680BC7047000080B487B000AF786052
:1012B4000B46FB7000233B610023FB6000237B6132
:1012C4000023BB607B68002B03DA2E4BDB697B6158
:1012D40002E02C4B5B687B617B681B0C03F00F0303
:1012E400BB607B689BB23B617B6803F44013B3F53E
:1012F400401F0AD17B6923F070637B61214B5B68DB
:10130400204A23F07063536021E07B6803F4801368
:10131400002B0ED00322BB6802FA03F3FB60FB68C8
:10132400DB437A6913407B617B6943F070637B61C3
:101334000DE07B685B0D1B013A6902FA03F3DB43A2
:101344007A6913407B617B6943F070637B61FB784E
:10135400002B08D07B685B0D1B013A6902FA03F38A
:101364007A6913437B617B68002B03DA054A7B6946
:10137400D36102E0034A7B69536000BF1C37BD465A
:1013840080BC70470000014080B483B000AF0346C6
:101394003960FB7197F90730002B0BDA3B68DAB23E
:1013A4000C49FB7903F00F03043B1201D2B20B4446
:1013B4001A7609E03B68DAB2074997F90730120157
:1013C400D2B20B4483F8002300BF0C37BD4680BC67
:1013D400704700BF00ED00E000E100E080B582B09E
:1013E40000AF78607B68B3F1807F01D3012311E003
:1013F4007B6823F07F43094A013B53600F214FF080
:10140400FF30FFF7C1FF054B00229A60034B072210
:101414001A60002318460837BD4680BD10E000E07E
:1014240080B586B000AF3B1D184600F04BFCBB688E
:10143400054AA2FB03239B0C1846FFF7CFFF00BF0E
:101444001837BD4680BD00BF83DE1B4380B500AFA7
:10145400034B00221A60FFF7E3FF00BF80BD00BF0B
:101464009808002080B400AF044B1B680133034A82
:10147400136000BFBD4680BC704700BF98080020C1
:1014840080B485B000AF7860084B1B68FB60074BE5
:101494001B68FA689B1A7A689A4200D9F7E700BF7A
:1014A40000BF1437BD4680BC704700BF98080020B9
:1014B40080B582B000AF0023FB717AE0FB79404A2B
:1014C4005B0113445B68C3F30003DBB2002B6DD1F3
:1014D400FB793B4A5B01134418331B68C3F30003D5
:1014E400DBB2002B2CD1FB79354A5B0113441B681A
:1014F4001B78002B5AD0334B1B683B60FB79304A76
:101504005B0113441C331B6898472E4B1A683B68D5
:10151400D31A3B60FB792A4A5B01134408331968E8
:10152400FB793A680A4426495B010B4408331A6084
:10153400FB79234A5B0113441B6800221A7035E0CF
:10154400204B1A68FB791E495B010B4410331B685E
:10155400D21AFB791A495B010B440C331B689A427B
:1015640024D3184B1B683B60FB79154A5B01134479
:101574001C331B689847134B1A683B68D31A3B60AB
:10158400FB790F4A5B01134408331968FB793A6805
:101594000A440B495B010B4408331A60FB79094A7E
:1015A400126807495B010B4410331A60FB7901335D
:1015B400FB71054B1B78FA799A42FFF47FAF7AE707
:1015C4000009002098080020FC08002080B500AF26
:1015D400FFF7C0FB01220F490F48FFF7CDFB0122A3
:1015E4000E490F48FFF714FC01220E490E48FFF77D
:1015F4000FFC00220B490D48FFF70AFC00220949A1
:101604000B48FFF705FC012204490A48FFF700FCD8
:1016140000BF80BD200E00202525000820A1070062
:10162400E52A000840420F00F52A0008290F0008A7
:10163400D50E00085905000880B500AFFFF7C6FFB6
:10164400FFF704FF4FF4612000F0CAFEFFF7ECFC43
:101654000121042000F0E6FB01F0A4F9FEF746FFA7
:1016640000BF80BD80B500AF0121012000F0DAFB8E
:1016740001210548FFF718FEFFF7DEFFFFF718FF0B
:101684000023184680BD00BF0002300080B483B040
:1016940000AF78600B46FB707B68FA781A70012300
:1016A40018460C37BD4680BC704780B485B000AF87
:1016B400786039600023FB600AE03A68531C3B60A1
:1016C4007B68591C796012781A70FB680133FB60DF
:1016D4003B681B78002BF0D1FB6818461437BD46D5
:1016E40080BC704780B586B000AFF8607A603B601C
:1016F4000B46FB7200237B617B68013B7B603B688C
:10170400092B1DD93B681D4AA2FB0323DB08F97A88
:101714007A68F868FFF7E6FF78617B69FA68134432
:10172400FB6010E0FB7A1946F868FFF7AFFFFB682F
:101734000133FB607B6901337B617B68013B7B6028
:101744007B68002BEEDC39680C4BA3FB0123DA0821
:1017540013469B0013445B00CA1AD3B23033DBB286
:101764001946F868FFF792FF02467B6913447B61D0
:101774007B6918461837BD4680BD00BFCDCCCCCCA4
:1017840080B586B000AFF8607A603B600B46FB72B0
:1017940000237B613B68002B03DA3B685B423B61BF
:1017A40001E03B683B617B68013B7B603B69092B43
:1017B4001FD93B68002B0CDA3B692E4AA2FB03239A
:1017C400DB085B42F97A7A68F868FFF7D9FF786139
:1017D4000AE03B69274AA2FB0323DB08F97A7A680B
:1017E400F868FFF7CDFF78617B69FA681344FB6002
:1017F40025E03B68002B11DA7B68013B7B600DE040
:10180400FB7A1946F868FFF741FFFB680133FB6078
:101814007B6901337B617B68013B7B607B68002BC8
:10182400EEDC3B68002B0ADA2D21F868FFF72EFF67
:1018340002467B6913447B61FB680133FB603969B1
:101844000C4BA3FB0123DA0813469B0013445B00F3
:10185400CA1AD3B23033DBB21946F868FFF716FF61
:1018640002467B6913447B617B6918461837BD4681
:1018740080BD00BFCDCCCCCC80B588B002AFF860C1
:101884007A601A460B46FB721346BB7200237B61D7
:101894007B68013B7B603B6A1B09002B20D03B6AC1
:1018A4001B09BA7AF97A009313467A68F868FFF745
:1018B400E3FF02467B6913447B617B69FA68134446
:1018C400FB6010E0FB7A1946F868FFF7DFFEFB685F
:1018D4000133FB607B6901337B617B68013B7B6087
:1018E4007B68002BEEDC3B6A03F00F03092B0BD85B
:1018F4003B6ADBB203F00F03DBB23033DBB21946D1
:10190400F868FFF7C3FE19E0BB7A002B0BD03B6AE3
:10191400DBB203F00F03DBB23733DBB21946F868EE
:10192400FFF7B4FE0AE03B6ADBB203F00F03DBB25D
:101934005733DBB21946F868FFF7A8FE7B69013319
:101944007B617B6918461837BD4680BD80B58AB077
:1019540002AFF860B9607A603B600023BB6100238A
:101964007B61FB68002B00F0FC80FB6800221A708E
:10197400F7E07B681B78252B0BD07A68531C7B60BF
:10198400FB68591CF96012781A707B6901337B611A
:10199400E7E07B6801331B78252B0BD1FB685A1CCD
:1019A400FA6025221A707B6802337B607B690133FD
:1019B4007B61D6E02023FB770023BB777B68013370
:1019C4007B607B681B78302B14D13023FB777B68DA
:1019D40001337B600EE0BB7F1A46920013445B0028
:1019E400DAB27B681B781344DBB2303BBB777B688D
:1019F40001337B607B681B782F2B03D97B681B78B2
:101A0400392BE8D9BA7F7B6913441A46BB689342E1
:101A140005D2BB68DAB27B69DBB2D31ABB777B68C9
:101A24001B78583B202B00F28E8001A252F823F041
:101A3400051B00084B1B00084B1B00084B1B000830
:101A44004B1B00084B1B00084B1B00084B1B0008DA
:101A54004B1B00084B1B00084B1B0008351B0008E0
:101A6400B91A00084B1B00084B1B00084B1B00084D
:101A74004B1B0008B91A00084B1B00084B1B00083D
:101A84004B1B00084B1B00084B1B00084B1B00089A
:101A94004B1B00084B1B00084B1B0008211B0008B4
:101AA4004B1B0008D11A00084B1B00084B1B0008F5
:101AB400E91A0008B87F3B681A1D3A601B68F97F71
:101AC4000246F868FFF75CFEB8613FE0B87F3B6808
:101AD4001A1D3A601B68F97F0246F868FFF702FE98
:101AE400B86133E0B87F3B681A1D3A601B68F97F20
:101AF400009300230246F868FFF7BEFEB86125E0B4
:101B0400B87F3B681A1D3A601B68F97F0093012374
:101B14000246F868FFF7B0FEB86117E03B681A1D8B
:101B24003A601B681946F868FFF7BFFDB8610DE01D
:101B34003B681A1D3A601B68DBB21946F868FFF768
:101B4400A5FDB86102E04FF0FF3325E07B68013367
:101B54007B60BB69FA681344FB607A69BB69134410
:101B64007B617B681B78002B04D07B69BA689A423E
:101B74003FF6FFAE7B69BA689A4203D9FB6800223C
:101B84001A7008E0FB68013BFB60FB6800221A70D6
:101B94007B69013B7B617B6918462037BD4680BD6C
:101BA40080B584B000AFF860B9607A607B68BA68C9
:101BB4006421F868FFF7CAFE034618461037BD468D
:101BC40080BD0000B0B5A6B000AFF860B9607A601F
:101BD400144B07F110041D460FCD0FC40FCD0FC4D5
:101BE4002B68236007F134037A68B9681846FFF755
:101BF400D7FF0346632B09DD0B4B1B68DA6807F13B
:101C040010031146184600F039F8FEE707F13403D3
:101C1400F968184600F032F8034618469837BD466E
:101C2400B0BD00BF544200080000002080B582B05F
:101C340000AF78603960064B1B689B683A68796826
:101C44001846FFF7BFFF034618460837BD4680BD58
:101C5400000000200FB480B582B000AF07F1140378
:101C64003B6039683869FFF7E1FF78607B681846A4
:101C74000837BD46BDE8804004B0704780B584B0E5
:101C840000AF786039600023FB6012E07B681B784A
:101C94003968184601F0D4F90346B3F1FF3F02D185
:101CA4004FF0FF330AE0FB680133FB607B680133CC
:101CB4007B607B681B78002BE8D1FB6818461037E3
:101CC400BD4680BD80B487B000AF786000237B61DF
:101CD40000233B610023FB600023BB604C4B5B682B
:101CE40003F00C037B617B69042B07D0082B09D01C
:101CF400002B33D17B68474A1A6033E07B68454A3E
:101D04001A602FE0424B5B6803F470133B61404B55
:101D14005B6803F48033FB603B699B0C02333B61DB
:101D2400FB68002B06D13B693B4A02FB03F27B684C
:101D34001A6017E0364B5B6803F40033002B06D0BF
:101D44003B69354A02FB03F27B681A600AE03B698F
:101D5400304A02FB03F27B681A6003E07B682D4A79
:101D64001A6000BF2A4B5B6803F0F0037B617B6958
:101D74001B097B61294A7B6913441B78DBB2BB6076
:101D84007B681A68BB68DA407B685A60204B5B68E2
:101D940003F4E0637B617B691B0A7B611F4A7B69F7
:101DA40013441B78DBB2BB607B685A68BB68DA40BB
:101DB4007B689A60164B5B6803F460537B617B69B4
:101DC400DB0A7B61154A7B6913441B78DBB2BB6079
:101DD4007B685A68BB68DA407B68DA600C4B5B68E6
:101DE40003F440437B617B699B0B7B610C4A7B69F9
:101DF40013441B78DBB2BB607B68DA68BB68B2FB58
:101E0400F3F27B681A6100BF1C37BD4680BC704783
:101E14000010024000127A0000093D00480400202E
:101E24005804002080B483B000AF78600B46FB7088
:101E3400FB78002B06D0094B9A6908497B68134349
:101E44008B6106E0054B9A697B68DB4303491340C9
:101E54008B6100BF0C37BD4680BC70470010024048
:101E640080B483B000AF78600B46FB70FB78002B26
:101E740006D0094BDA6908497B681343CB6106E055
:101E8400054BDA697B68DB4303491340CB6100BF30
:101E94000C37BD4680BC70470010024080B582B04C
:101EA40000AF144B9B69134A43F00803936110235A
:101EB400FB710223BB714FF48053BB803B1D194659
:101EC4000D48FFF7FFF84FF480510B48FFF7CFF9A7
:101ED4004FF40073BB803B1D19460748FFF7F2F827
:101EE4004FF400710448FFF7D0F900BF0837BD462E
:101EF40080BD00BF00100240000C014080B582B0DC
:101F040000AF0346FB7100BF02210E4800F073FCD2
:101F14000346002BF8D0FB799BB21946094800F020
:101F24002FFC00BF0121074800F065FC0346002B8D
:101F3400F8D0044800F032FC0346DBB218460837F8
:101F4400BD4680BD0038004080B58CB000AF7860DD
:101F540039600023FB620023BB6200237B62002301
:101F64003B620023FB617B68FB617B681B8A9BB23D
:101F7400FB62FA6A4CF6FF731340FB623B68DB8832
:101F84001A46FB6A1343FB62FB6A9AB27B681A82A5
:101F94007B689B899BB2FB62FA6A4EF6F31313408B
:101FA400FB623B689A883B681B8913439AB23B687F
:101FB4005B8913439BB21A46FB6A1343FB62FB6AB9
:101FC4009AB27B689A817B689B8A9BB2FB62FA6AAD
:101FD4004FF6FF431340FB623B689B891A46FB6A3A
:101FE4001343FB62FB6A9AB27B689A8207F1080387
:101FF4001846FFF767FEFB692E4A934202D17B69BC
:10200400BB6201E03B69BB627B689B899BB21BB2EC
:10201400002B0CDABA6A13469B0013449A001A4444
:102024003B681B685B00B2FBF3F37B620BE0BA6AAC
:1020340013469B0013449A001A443B681B689B0098
:10204400B2FBF3F37B627B6A1B4AA2FB03235B09AB
:102054001B01FB62FB6A1B09642202FB03F37A6A1D
:10206400D31A3B627B689B899BB21BB2002B0CDAB0
:102074003B6ADB003233104AA2FB03235B0903F003
:102084000703FA6A1343FB620BE03B6A1B0132331A
:10209400094AA2FB03235B0903F00F03FA6A134303
:1020A400FB62FB6A9AB27B681A8100BF3037BD4677
:1020B40080BD00BF003801401F85EB5180B483B060
:1020C40000AF78600B46FB70FB78002B08D07B6870
:1020D4009B899BB243F400539AB27B689A8107E0D0
:1020E4007B689B899BB223F400539AB27B689A81E4
:1020F40000BF0C37BD4680BC704780B487B000AFCA
:1021040078600B467B8013467B7000233B61002381
:10211400FB600023BB6000237B617B687B617B8861
:10212400DBB25B09DBB23B617B8803F01F03FB601E
:102134000122FB6802FA03F3BB603B69012B03D164
:102144007B690C337B6109E03B69022B03D17B691A
:1021540010337B6102E07B6914337B617B78002B55
:1021640006D07B6919687B69BA680A431A6006E07D
:102174007B691968BB68DA437B690A401A6000BF4F
:102184001C37BD4680BC704780B485B000AF786012
:102194000A4B1B68002B02D1084B094A1A60074BF3
:1021A4001B68FB60054B1A687B681344034A136081
:1021B400FB6818461437BD4680BC70479C08002055
:1021C4002C0E002080B483B000AF78604FF0FF3352
:1021D40018460C37BD4680BC704780B483B000AF4E
:1021E400786039603B684FF400525A600023184607
:1021F4000C37BD4680BC704780B483B000AF7860B4
:10220400012318460C37BD4680BC704780B485B0A6
:1022140000AFF860B9607A60002318461437BD46F1
:1022240080BC704780B485B000AFF860B9607A6054
:102234007B6818461437BD4680BC704780B584B0AF
:1022440000AFF860B9607A607968B86800F01AF98C
:102254007B6818461037BD4680BD80B584B000AF9A
:1022640078600B467B800020FFF70AF97B881946CB
:102274007868FFF70AF84FF4F070FFF701F97B88EC
:1022840019467868FEF7F3FF4620FFF7F9F87B88D4
:1022940019467868FEF7D2FF0346FB604FF4CD7011
:1022A400FFF7EEF8FB6818461037BD4680BD80B5D1
:1022B40084B000AFF8600B467A607B817B68002BAA
:1022C40010D07B891946F868FEF7DFFF0620FFF778
:1022D400D7F87B891946F868FEF7C9FF4020FFF755
:1022E400CFF80FE07B891946F868FEF7CEFF3C2053
:1022F400FFF7C6F87B891946F868FEF7B8FF0A208D
:10230400FFF7BEF800BF1037BD4680BD80B584B06E
:1023140000AF78600B467B807B8819467868FEF7AF
:10232400B4FF0620FFF7ACF87B8819467868FEF7FF
:102334009EFF0920FFF7A4F87B8819467868FEF70A
:102344007DFF0346FB603720FFF79AF8FB681846C9
:102354001037BD4680BD80B586B000AFF8600B462F
:102364007A607B8100237B610DE07B6803F00102CE
:102374007B891946F868FFF79AFF7B685B107B60DE
:102384007B6901337B617B69072BEEDD00BF183766
:10239400BD4680BD80B584B000AF78600B467B80BD
:1023A4000023BB600023FB6011E0BB685B10BB60D3
:1023B4007B8819467868FFF7A9FF0346002B03D0F2
:1023C400BB6843F08003BB60FB680133FB60FB68C0
:1023D400072BEADDBB6818461037BD4680BD0000F8
:1023E40080B582B000AF78604FF4867200210C484B
:1023F400FDF726FF142200210A48FDF721FF084BB0
:1024040001221A72084B00221A70786800F00EFA42
:10241400064B074A1A6000BF0837BD4680BD00BF9F
:10242400140D0020000D0020200E0020F8080020CC
:10243400591C000880B483B000AF78600F4B1B6850
:10244400DBB27A68D1B20D4A13440A465A720B4B76
:102454001B680133094A1360084B00221A72084BA7
:102464009B899BB2064A43F080039BB2938100236D
:1024740018460C37BD4680BC704700BF140D0020C1
:102484000038014080B584B000AF78603960002323
:10249400FB6009E07B685A1C7A601B781846FFF7DA
:1024A400C9FFFB680133FB60FA683B689A42F1DBC1
:1024B40000BF1037BD4680BD80B584B000AF7860E2
:1024C4000B467B800023FB810BE00A4B1A687B6878
:1024D400591C79601B78194607489047FB890133DA
:1024E400FB81FA897B889A42EFD300BF1037BD463F
:1024F40080BD00BFF80800207842000880B500AF16
:10250400044B1B6804489847024B1B6803489847D0
:1025140000BF80BDF80800208042000888420008FF
:1025240080B500AF094B1B7ADBB23F2B02D1FFF71A
:10253400E5FF08E0064B1B68044A127AD2B2114642
:102544000448984700BF00BF80BD00BF000D0020B5
:10255400F8080020AC42000880B586B000AF012125
:102564004FF48040FFF77CFC01210820FFF75AFC60
:102574001023FB750223BB754FF48073BB8207F1F4
:10258400140319461A48FEF79DFD1823FB7503230F
:10259400BB754FF46043BB8207F11403194614481A
:1025A400FEF790FD4FF482737B800023BB810023F0
:1025B4003B800023FB8000233B8107233B820023D5
:1025C400BB800023FB814FF400737B813B4619469B
:1025D400084800F073F84FF48071064800F0EAF8F8
:1025E4000121044800F0ADF800BF1837BD4680BD96
:1025F400000C01400038004080B487B000AF786020
:1026040000237B6100233B610F23FB607B68DB7845
:10261400002B3AD0274BDB68DB431B0A03F007038C
:102624007B617B69C3F104033B61FA687B6922FA2D
:1026340003F3FB607B685B781A463B6902FA03F399
:102644007B617B689B781A46FB6813407A69134365
:102654007B617B691B017B61174A7B681B78796905
:10266400C9B213440A4683F800237B681B7803F03D
:102674001F0311497A6812785209D2B21046012216
:1026840002FA03F341F820300FE07B681B7803F073
:102694001F0309497A6812785209D2B210460122FE
:1026A4009A4000F1200341F8232000BF1C37BD46A7
:1026B40080BC704700ED00E000E100E080B485B02C
:1026C40000AF786039600023FB817B681B88FB8145
:1026D400FB8903F44153FB813B681A883B685B88A0
:1026E40013439AB23B689B8813439AB23B68DB88D6
:1026F40013439AB23B681B8913439AB23B685B89C4
:1027040013439AB23B689B8913439AB23B68DB89B3
:1027140013439AB2FB891343FB817B68FA891A80BD
:102724007B689B8B9BB223F400639AB27B689A8389
:102734003B681A8A7B681A8200BF1437BD4680BC86
:10274400704780B483B000AF78600B46FB70FB78B1
:10275400002B08D07B681B889BB243F040039AB2DD
:102764007B681A8007E07B681B889BB223F04003D8
:102774009AB27B681A8000BF0C37BD4680BC704794
:1027840080B483B000AF78600B467B807B687A8826
:102794009A8100BF0C37BD4680BC704780B483B0BB
:1027A40000AF78607B689B899BB218460C37BD46A6
:1027B40080BC704780B483B000AF78600B467B80E8
:1027C4007B884FF6FF62934208D07B681B889BB2DC
:1027D40043F480739AB27B681A8007E07B681B8895
:1027E4009BB223F480739AB27B681A8000BF0C37C3
:1027F400BD4680BC704780B485B000AF78600B469E
:102804007B800023FB737B681B899AB27B8813400F
:102814009BB2002B02D00123FB7301E00023FB7366
:10282400FB7B18461437BD4680BC704780B588B022
:1028340000AF786001210520FFF7F4FA01214FF47D
:102844008040FFF7EFFA4FF40073BB831823FB7744
:102854000323BB7707F11C0319462048FEF732FC1B
:102864004FF48063BB830423FB7707F11C031946F1
:102874001A48FEF727FC7B68FB6000233B82002399
:102884007B820023BB8200233B830C23FB8207F162
:102894000C0319461248FFF757FB012240F2255159
:1028A4000F48FFF72AFC012240F227710C48FFF77A
:1028B40024FC25233B7200237B720023BB7201237B
:1028C400FB7207F108031846FFF796FE012104483E
:1028D400FFF7F4FB00BF2037BD4680BD0008014070
:1028E4000038014080B483B000AF2A4B1B889BB2F0
:1028F40003F02003002B11D0264B9B889BB2FB7165
:10290400254AFB791372254B01221A70214B1B882F
:102914009BB2204A23F020039BB213801D4B1B88DB
:102924009BB203F08003002B2FD01D4B1A681C4B65
:102934005B689A4216D01A4B5B68DBB2184A1344A0
:102944005B7ADAB2134B92B29A80154B5B68DBB2B6
:10295400134A134400225A72114B5B680133104A24
:1029640053600AE00B4B9B899BB20A4A23F0800315
:102974009BB293810A4B01221A72064B1B889BB2AD
:10298400044A23F080039BB2138000BF0C37BD467A
:1029940080BC704700380140000D0020200E00204C
:1029A400140D002080B582B000AF4FF40063BB80EB
:1029B4001423FB710323BB713B1D19460348FEF727
:1029C40081FB00BF0837BD4680BD00BF0008014041
:1029D40080B584B000AF0346FB71344BFB604FF409
:1029E40000637B8100BF7B891946F868FFF735FCDB
:1029F40040F27710FEF744FD7B89CC221946F86833
:102A0400FFF7A9FC0C20FEF73BFD7B894422194605
:102A1400F868FFF7A0FC2648FEF732FD7B891946CB
:102A2400F868FFF71AFC40F27710FEF729FD7B895E
:102A3400CC221946F868FFF78EFC0C20FEF720FD27
:102A44007B89BE221946F868FFF785FC0C20FEF747
:102A540017FD7B891946F868FFF79CFC0346DBB237
:102A64003B720220FEF70CFD7B891946F868FFF7DC
:102A740091FC0346DBB27B727B891946F868FFF749
:102A8400ECFBB7F90830184600F010F903464FF094
:102A94008341184600F012FA0346184600F0AAFAD9
:102AA40003461BB218461037BD4680BD00080140DE
:102AB400E093040080B582B000AF0346FB71FB795C
:102AC4001846FFF785FF03461A46FB791146034A69
:102AD40042F8231000BF0837BD4680BD240E0020F5
:102AE40080B500AF0020FFF7E5FF00BF80BD000008
:102AF40080B500AF0A4B1B680A489847084B1B680F
:102B0400094A1268114609489847054B1B6808484A
:102B14009847034B1B6801210648984700BF80BDB6
:102B2400F8080020C0420008240E0020C842000813
:102B3400D8420008E042000880F0004002E000BFF4
:102B440081F0004142001FBF5FEA410392EA030F94
:102B54007FEA226C7FEA236C6AD04FEA1262D2EBDE
:102B64001363C1BFD218414048404140B8BF5B42E3
:102B7400192B88BF704710F0004F40F4000020F07C
:102B84007F4018BF404211F0004F41F4000121F092
:102B94007F4118BF494292EA030F3FD0A2F10102DC
:102BA40041FA03FC10EB0C00C3F1200301FA03F11A
:102BB40000F0004302D5494260EB4000B0F5000F3D
:102BC40013D3B0F1807F06D340084FEA310102F1FC
:102BD4000102FE2A51D2B1F1004F40EBC25008BFAE
:102BE40020F0010040EA03007047490040EB000078
:102BF40010F4000FA2F10102EDD1B0FA80FCACF1A7
:102C0400080CB2EB0C0200FA0CF0AABF00EBC250A5
:102C140052421843BCBFD0401843704792F0000F93
:102C240081F4000106BF80F400000132013BB5E7E6
:102C34004FEA41037FEA226C18BF7FEA236C21D05C
:102C440092EA030F04D092F0000F08BF08467047C1
:102C540090EA010F1CBF0020704712F07F4F04D18F
:102C6400400028BF40F00040704712F100723CBFA2
:102C740000F50000704700F0004343F0FE4040F4CC
:102C8400000070477FEA226216BF08467FEA23638A
:102C94000146420206BF5FEA412390EA010F40F475
:102CA400800070474FF0000304E000BF10F00043C1
:102CB40048BF40425FEA000C08BF704743F09643A8
:102CC40001464FF000001CE050EA010208BF7047C3
:102CD4004FF000030AE000BF50EA010208BF70474A
:102CE40011F0004302D5404261EB41015FEA010C5F
:102CF40002BF84460146002043F0B64308BFA3F157
:102D04008053A3F50003BCFA8CF2083AA3EBC25338
:102D140010DB01FA02FC634400FA02FCC2F1200257
:102D2400BCF1004F20FA02F243EB020008BF20F08E
:102D34000100704702F1200201FA02FCC2F12002F4
:102D440050EA4C0021FA02F243EB020008BF20EAE9
:102D5400DC7070474FF0FF0C1CEAD0521EBF1CEA17
:102D6400D15392EA0C0F93EA0C0F6FD01A4480EA05
:102D7400010C400218BF5FEA41211ED04FF00063EE
:102D840043EA501043EA5111A0FB01310CF000401A
:102D9400B1F5000F3EBF490041EAD3715B0040EA40
:102DA400010062F17F02FD2A1DD8B3F1004F40EB10
:102DB400C25008BF20F00100704790F0000F0CF0E3
:102DC400004C08BF49024CEA502040EA51207F3AA7
:102DD400C2BFD2F1FF0340EAC250704740F4000082
:102DE4004FF00003013A5DDC12F1190FDCBF00F073
:102DF40000407047C2F10002410021FA02F1C2F121
:102E0400200200FA02FC5FEA310040F1000053EABC
:102E14004C0308BF20EADC70704792F0000F00F00A
:102E2400004C02BF400010F4000F013AF9D040EA10
:102E34000C0093F0000F01F0004C02BF490011F4A4
:102E4400000F013BF9D041EA0C018FE70CEAD153A2
:102E540092EA0C0F18BF93EA0C0F0AD030F0004C22
:102E640018BF31F0004CD8D180EA010000F00040D6
:102E7400704790F0000F17BF90F0004F084691F094
:102E8400000F91F0004F14D092EA0C0F01D14202CE
:102E94000FD193EA0C0F03D14B0218BF084608D197
:102EA40080EA010000F0004040F0FE4040F40000E1
:102EB400704740F0FE4040F4400070474FF0FF0C74
:102EC4001CEAD0521EBF1CEAD15392EA0C0F93EABB
:102ED4000C0F69D0A2EB030280EA010C49024FEA0D
:102EE400402037D04FF0805343EA111143EA1013C6
:102EF4000CF000408B4238BF5B0042F17D024FF47E
:102F0400000C8B4224BF5B1A40EA0C00B3EB510F58
:102F140024BFA3EB510340EA5C00B3EB910F24BF41
:102F2400A3EB910340EA9C00B3EBD10F24BFA3EBC6
:102F3400D10340EADC001B0118BF5FEA1C1CE0D18E
:102F4400FD2A3FF650AF8B4240EBC25008BF20F041
:102F5400010070470CF0004C4CEA50207F32C2BF95
:102F6400D2F1FF0340EAC250704740F400004FF032
:102F74000003013A37E792F0000F00F0004C02BF63
:102F8400400010F4000F013AF9D040EA0C0093F02D
:102F9400000F01F0004C02BF490011F4000F013B87
:102FA400F9D041EA0C0195E70CEAD15392EA0C0FEF
:102FB40008D142027FF47DAF93EA0C0F7FF470AF27
:102FC400084676E793EA0C0F04D14B023FF44CAF6A
:102FD40008466EE730F0004C18BF31F0004CCAD1FF
:102FE40030F000427FF45CAF31F000437FF43CAF3B
:102FF4005FE700BF4FEA4002B2F1FE4F0FD34FF03C
:103004009E03B3EB12620DD94FEA002343F0004351
:1030140010F0004F23FA02F018BF404270474FF0FF
:103024000000704712F1610F01D1420205D110F086
:10303400004008BF6FF0004070474FF00000704739
:10304400144B70B51D6806460C460DB1AB6B9BB1B5
:10305400636ED80702D4A389990516D5284622465B
:10306400314600F019F8636E0546DA0702D4A389E5
:103074009B0505D5284670BD284600F009FAE7E708
:10308400A06DFDF757F9284670BDA06DFDF750F906
:10309400E4E700BF00000020F8B50E4614460746DA
:1030A40008B1836BBBB1636ED80702D4A3899905B9
:1030B40026D5A368013B002BA3600FDBF5B2236880
:1030C4005A1C22601E70636EDA0702D4A3899B0522
:1030D40011D52846F8BD00F0DBF9E4E7A269934274
:1030E40002DBF5B20A2DEAD131463846224600F019
:1030F4000BF80546E7E7A06DFDF71CF92846F8BD77
:10310400A06DFDF715F9D4E7F8B50D46144606464B
:1031140010B1836B002B43D0B4F90C20A36991B296
:103124000807A3601BD52369CBB1EDB289042F46F0
:1031340022D522686169D31A994229DD0133A16835
:10314400501C0139A1602060157062699A422AD02E
:10315400A389DB0701D50A2D25D03846F8BD2146C1
:10316400304600F029F820BBB4F90C20EDB291B23E
:10317400890423692F46DCD4616E42F4005221F4A1
:103184000051A281226861666169D31A9942D5DC33
:103194002146304600F020F958B901232268CEE7D1
:1031A40000F076F9B8E72146304600F015F900281A
:1031B400D3D04FF0FF37D0E738B5314B0546186808
:1031C4000C4610B1836B002B3AD0B4F90C2093B2A7
:1031D40018070CD52069A8B113F0010220D00022F1
:1031E4006369A2605B42A36100B3002038BDD906C5
:1031F4003DD5580727D4206942F00803A3819BB228
:103204000028E9D103F42072B2F5007FE4D0284607
:10321400214600F013FBA389206913F00102DED1DB
:10322400990758BF6269A2600028DED1B4F90C3056
:103234001A06DBD543F04003A3814FF0FF3038BDBD
:1032440000F026F9C1E7216B51B104F14003994222
:1032540004D0284600F0A8F9B4F90C200023236315
:103264000023206922F02402C4E90003C4E70923EF
:1032740042F040022B604FF0FF30A28138BD00BF06
:1032840000000020B1F90C302DE9F0419AB20C464F
:103294001107804644D4626843F40063002AA38182
:1032A4005ADDA56A002D54D000229BB2D8F80060E4
:1032B400E169C8F8002013F4805240F084800123AF
:1032C4004046A847431C4BD0A389A56AE1695F0720
:1032D40005D56268236B801A0BB1E36BC01A0246F2
:1032E40000234046A847451C46D00021B4F90C30C1
:1032F400226923F40063A381DB04C4E9002100D51F
:103304002065216BC8F8006019B304F140039942A9
:1033140002D0404600F048F900202063BDE8F08167
:103324002669B6B1920718BF0023256808BF6369F0
:103334002660AD1BA3600AE02B463246676AE1694A
:103344004046B8470028A5EB000506442BDD002DB8
:10335400F2DC0020BDE8F081E26B002AA1DCF8E792
:10336400D8F80030002BAFD01D2B01D0162B2CD158
:10337400C8F800600020EDE7D8F800501D2D1AD8D9
:10338400144BB4F90C20EB40DB4313F0010314D1CC
:10339400216922F40062C4E90013D104A281B0D5EA
:1033A400002DAED1ACE7A3894FF0FF3043F04003CA
:1033B400A381BDE8F081B4F90C2042F04002A2815F
:1033C4004FF0FF30C6E7206D81E7A38943F0400347
:1033D400A381BFE70100402038B50D46044608B17B
:1033E400836BA3B1B5F90C00B8B16B6EDB0701D4E4
:1033F40081051AD520462946FFF744FF6B6E044623
:10340400DA0702D4AB899B050AD5204638BD00F003
:103414003FF8B5F90C000028E7D10446204638BD32
:10342400A86DFCF787FF204638BDA86DFCF780FF28
:10343400E0E700BF002310B504468181C281C0E9E2
:10344400003383604366C0E904338361194608226C
:103454005C30FCF7F5FE07480749084A084BC4E905
:103464000740C4E90912E36204F15800BDE81040C2
:10347400FCF75ABF353E0008593E0008953E000847
:10348400B53E0008014900F083B900BF0D3F0008B4
:1034940010B504461448FCF74BFFA26BFAB903209D
:1034A400124904F53B73C4F8E832C4F8E022C4F8C6
:1034B400E402E16360680421FFF7BCFFA068012215
:1034C4000921FFF7B7FFE06802221221FFF7B2FFDC
:1034D40001230548A363BDE81040FCF72BBF024855
:1034E400BDE81040FCF726BFE0080020893400083E
:1034F4000148FCF71DBF00BFF40800200148FCF799
:1035040019BF00BFF4080020F8B50C46234F064647
:1035140000F070FCBB68C4F57E615D680F3125F076
:103524000305294421F47F6121F00F01A1F58054A2
:10353400B4F5805F07DB0021304600F067FCBB6810
:103544002B44984204D0304600F05AFC0020F8BDC9
:103554006142304600F05AFC01300DD0104BBA687D
:1035640019682D1B45F001053046091B556019608B
:1035740000F046FC0120F8BD0021304600F046FC76
:10358400BA68831A0F2BDEDD064943F001030C6889
:103594000349001B53600860D5E700BF5C040020AA
:1035A400A008002064080020002953D0F8B50D4677
:1035B400064600F01FFC55F804CC714FA5F1080134
:1035C4002CF00103CA18B8685468904224F003042C
:1035D40053D01CF0010F546002EB04003BD155F8AA
:1035E40008CC4068A1EB0C018D6807F1080E754505
:1035F400634400F0010075D0D1F80CC0C5F80CC0CC
:10360400CCF8085060B343F001024A60CB50B3F5E4
:10361400007F50D35A0A042A70D89A0902F1390556
:10362400ED0002F138007C197A59083C944278D0B4
:10363400506820F00300984271D992689442F7D1FF
:10364400E368C1E9024330469960E160BDE8F840AF
:1036540000F0D6BB7047406800F001000028D2D1CA
:103664009068484D2344A84243F0010462D0D268D4
:10367400C26090604C60CB50C9E71CF0010F23443A
:1036840007D155F8084C091BD1E902022344C26052
:1036940090603D4A43F00100126848609A42B96064
:1036A40004D83A4B30461968FFF72EFF3046BDE880
:1036B400F84000F0A5BB0122DB087C689810134495
:1036C4008240224307EBC30057F833400838C1E96E
:1036D40002407A60304647F83310E160BDE8F840B4
:1036E40000F08EBB002845D1D2E90202234443F006
:1036F4000104C26090604C60CB50D7E7142A08D90B
:10370400542A1ED81A0B02F16F05ED0002F16E0067
:1037140089E702F15C05ED0002F15B0083E71446E2
:103724008EE701238210786803FA02F202437A607A
:10373400234686E7C7E90411C1E902004C60CB5077
:10374400B4E7B2F5AA7F06D8DA0B02F17805ED00EA
:1037540002F1770067E740F25450824206D89A0C8F
:1037640002F17D05ED0002F17C005CE74FF47E750B
:103774007E2058E743F001004860136096E700BFDD
:103784005C0400206404002068080020D0080020A5
:103794002DE9F84310F538761ED0884607464FF0D9
:1037A4000009D6E90154013D10D4A389013D012B40
:1037B40008D9B4F90E30013304D021463846C04745
:1037C40049EA00096B1C04F16804EED13668002E46
:1037D400E7D14846BDE8F883B1464846BDE8F883DA
:1037E40070B50C46B1F90E1096B0002915461E4668
:1037F4000FDA0023A289336012F0800004D14FF461
:1038040080632B6016B070BD402218462A6016B043
:1038140070BD6A4600F0E0FB0028EADB019B4FF430
:10382400806203F47043A3F50053B3FA83F34FF4B7
:1038340000605B0933602A6016B070BD8A890B464C
:10384400920706D5012103F1430259611A601A61F6
:10385400704770B582B001AB6A460C460546FFF767
:10386400BFFF00990646284600F032F8B4F90C3040
:10387400D8B1164A0099EA63019A43F08003A38100
:103884002060C4E904011AB93343A38102B070BDB6
:103894002846B4F90E1000F0B3FBA0B1A38923F0BD
:1038A400030343F001031BB2EEE79A05EED40121B2
:1038B40023F0030304F1430243F00203A381616193
:1038C40022602261E2E7B4F90C30DDE789340008B4
:1038D4002DE9F04F01F10B05162D83B0064623D8D0
:1038E400102900F2B68000F085FA10251823022072
:1038F400CC4F3B445C68A3F10802944200F056812B
:103904006368E16823F0030323445A68A56842F01E
:103914000102E96030468D605A6000F071FA0834A3
:10392400204603B0BDE8F08F35F0070500F1918023
:10393400A94200F28E8000F05DFAB5F5FC7FC0F07C
:1039440064816B0A00F08C80042B00F23681AB0991
:1039540003F1390003F1380CC100B24F39444C680B
:103964000839A14206D10CE0002A80F21B81E468E8
:10397400A14206D0636823F003035A1B0F2AF3DD28
:1039840060463C69DFF8B0C264456FD0636823F0D9
:1039940003035A1B0F2A00F32681002AC7E904CC2B
:1039A40080F21781B3F5007F80F059810122DB0892
:1039B400991013448A40796857F833E007EBC30839
:1039C4000A43A8F10801C4E902E17A6047F83340E8
:1039D400CEF80C40012483109C4094424CD81442ED
:1039E40006D120F003006400144200F10400FAD070
:1039F40007EBC009CE468046DEF80C309E4507D161
:103A040007E1002A80F21C81DB689E4500F00181F9
:103A1400596821F003014A1B0F2AF2DD45F0010821
:103A24003046D3E902E41D4442F00106C3F80480A1
:103A3400CEF80C40C4F808E0C7E90455C5E902CC47
:103A44006E605A50019300F0DBF9019B03F1080406
:103A540066E700240C232046336003B0BDE8F08FF2
:103A64004FF4007140204FF03F0C76E701247A6850
:103A740083109C409442B2D9BC68636823F0030964
:103A8400A94503D3A9EB05030F2B7BDC664BDFF8B9
:103A9400ACA11A68DAF8003005EB0208013300F033
:103AA4003A8108F5805808F10F0828F47F6828F057
:103AB4000F084146304600F0A9F9B0F1FF3F8346B4
:103AC40000F0F68004EB0900584500F2EF80574AF5
:103AD40013684344136000F03F81DAF800100131A9
:103AE4001BBFABEB00001B18CAF800B013601BF03F
:103AF400070300F02681C3F10801C3F580538B440A
:103B04000833D844C8F30B08A3EB080841463046F1
:103B1400019200F07BF9431C019A00F03881A0EB7C
:103B24000B01414441F001011368BC424344C7F80E
:103B340008B01360CBF8041015D0B9F10F0F40F2A0
:103B440022814FF0050E6168A9F10C0020F00700F6
:103B540001F00101014304EB000C0F286160CCE982
:103B640001EE00F22C81324A32481168BC688B4263
:103B7400016888BF136062688B4222F0030288BF29
:103B8400036099E045F0010243F0010325446260BB
:103B94003046BD6008346B6000F032F9204603B053
:103BA400BDE8F08F23445A68E168AFE6DC68A342BD
:103BB40008BF02303FF4E5AEA2E6142B70D9542BB3
:103BC40000F2AC802B0B03F16F0003F16E0CC1000B
:103BD400C3E623445A68304642F001025A6008346E
:103BE40000F00EF99CE645F0010E42F00101254477
:103BF400C4F804E03046C7E90455C5E902CC69605D
:103C0400E25000F0FDF808348AE6E80805F10803FC
:103C14006EE608F1010818F0030F0EF1080E7FF4A8
:103C2400EBAE60E05C040020D0080020A008002077
:103C3400C8080020CC080020640400206408002088
:103C44001C4619444A68DB6854F8085F42F00102D4
:103C54004A603046EB609D6000F0D2F860E65A0A94
:103C6400042A35D9142A6FD802F15C01C9005B32E9
:103C740007EB010E7958AEF1080E8E4558D04A680C
:103C840022F003029A4202D989688E45F7D1D1F80D
:103C94000CE07A68C4E9021ECEF80840CC6099E6CC
:103CA40003F15C0003F15B0CC10056E6BC4272D028
:103CB400BC68626822F003029542A2EB050302D8B5
:103CC4000F2B3FF75FAF304600F09AF8002427E649
:103CD4009A0902F13901C9003832C9E7D9F80090CC
:103CE400994540F0838010F0030FA9F1080300F117
:103CF400FF30F3D17B6823EA04037B6064009C42B9
:103D04003FF6BAAE1CB9B7E6640008F104081C42D9
:103D1400FAD040466CE608F11008CAE6B3F5AA7F6B
:103D240026D8EB0B03F1780003F1770CC10014E6FD
:103D34004FF001087B68921008FA02F21A437A6085
:103D4400A8E74FF48053DCE6542A29D81A0B02F171
:103D54006F01C9006E328BE7C0F30B0100297FF4B9
:103D6400BCAE09EB0802B96842F001024A60FAE607
:103D740040F2545293421CD8AB0C03F17D0003F182
:103D84007C0CC100E9E50123CBF804309BE7012159
:103D94004FF00008C8E6164A1368434413609CE6D3
:103DA400B2F5AA7F14D8DA0B02F17801C900773290
:103DB4005EE74FF47E717F204FF07E0CCDE504F179
:103DC400080130460192FFF7EFFB019A1368CAE637
:103DD40040F254518A4205D89A0C02F17D01C9007F
:103DE4007C3245E74FF47E717E2241E77B6885E7AC
:103DF400A00800200148FCF79BBA00BFE40800209B
:103E04000148FCF797BA00BFE408002038B5002346
:103E1400064C054608462360FEF7B6F9431C00D05D
:103E240038BD2368002BFBD02B6038BD280E002042
:103E340010B50C46B1F90E1000F00AF9002803DBA6
:103E4400236D0344236510BDA38923F48053A38108
:103E540010BD00BF2DE9F041B1F90C409846E305CF
:103E64000D461746B1F90E10064607D50223002267
:103E740000F0D8F8B5F90C40B5F90E1024F48054CC
:103E8400AC8143463A463046BDE8F04100F014B8F0
:103E940010B50C46B1F90E1000F0C4F8A389421C09
:103EA4000EBF23F4805343F480532065A38110BDD7
:103EB400B1F90E1000F016B8F8B50E460025084CFE
:103EC400114607461A4630462560FEF7B7F9431CEB
:103ED40000D0F8BD2368002BFBD03B60F8BD00BFC9
:103EE400280E002038B50023064C054608462360FA
:103EF400FEF768F9431C00D038BD2368002BFBD0C3
:103F04002B6038BD280E002070B5002948D0054626
:103F14000C4610B1836B002B48D0626EB4F90C30A0
:103F2400D00740D4990530D521462846FFF7AAF991
:103F3400E36A064633B1E169284698470028B8BFCA
:103F44004FF0FF36A3891A063CD4216B41B104F12A
:103F54004003994202D02846FFF726FB002323633F
:103F6400616C21B12846FFF71FFB00236364FFF750
:103F7400BFFA0022636EA281DB071FD5A06DFCF798
:103F8400D5F9FFF7BBFA304670BDA06DFCF7D0F948
:103F9400B4F90C30002BC7D1666E16F0010616D0AA
:103FA4000026304670BD002BFAD0BDE7FFF770FA4B
:103FB400626EB4F90C30D007F5D4B3E7A06DFCF70A
:103FC400B9F9DBE721692846FFF7EEFABDE7A06DF2
:103FD400FCF7B0F9304670BD70B50D460023074CB0
:103FE4000646114628462360FEF7F7F8431C00D026
:103FF40070BD2368002BFBD0336070BD280E0020F9
:1040040038B50023064C054608462360FEF7F4F84D
:10401400431C00D038BD2368002BFBD02B6038BD77
:10402400280E0020F8B50E460025084C1146074618
:104034001A4630462560FEF7E9F8431C00D0F8BD67
:104044002368002BFBD03B60F8BD00BF280E002086
:10405400F8B50E460025084C114607461A46304668
:104064002560FEF7DFF8431C00D0F8BD2368002B61
:10407400FBD03B60F8BD00BF280E0020F8B500BFA0
:10408400F8BC08BC9E467047F8B500BFF8BC08BC35
:104094009E467047080000201112131415160000E4
:1040A4000A0B0C0D0E0F10005B253032585D00001A
:1040B4000D0A53544D33324631303343385436208D
:1040C4006973206F6E6C696E652E0D0A0000000026
:1040D4006E524632344C30312B20636865636B3A40
:1040E400200000004641494C0D0A00004F4B0D0AC8
:1040F400000000005041594C4F41443A3E0000003A
:104104003C202E2E2E2054583A2000004F4B000005
:1041140054494D454F5554004D4158205245545231
:10412400414E534D495400004552524F5200000035
:104134000D0A0000E71CE300111213141516000009
:104144000A0B0C0D0E0F10006E52463234000000A4
:104154001B5B303B33376D0050494420202075539E
:104164000D0A00005B2532645D3A20253037640D6A
:104174000A0000001B5B303B33326D001B5B25647F
:10418400410000001B5B2564420000005E43204F99
:104194004B2E2E0D0A000000466C61736820736973
:1041A4007A655B6B425D203A2025640D0A000000AD
:1041B4004D435520756E6971756520494420203A38
:1041C40020307825582558255825580D0A00000018
:1041D40053797374656D20467265715B487A5D3AF4
:1041E4002025640D0A0000001B5B324A0000000019
:1041F4001B5B303B33326D000D0A53574820646516
:1042040062756720706F72740D0A0000467720563D
:10421400657273696F6E3A2025642E25642E2564B9
:104224002E2564205B25732025735D0D0A00000094
:1042340053657020333020323031380031343A3411
:10424400313A3338000000001B5B303B33376D00DC
:10425400737464696F2E633A20696E637265617367
:1042640065204D41585F535452494E475F53495A54
:10427400450A0D0025303258200000001B5B303BFE
:1042840033326D000D0A3F202D205072696E742068
:10429400617661696C61626C6520636F6D6D616EDE
:1042A40064730D0A0D0A00005B253033645D577298
:1042B4006F6E67204B65790D0A0000001B5B303B75
:1042C40033376D004B6F6C656B746F723A202564E5
:1042D4000D0A00001B5B303B33326D001B5B256411
:0242E400410097
:1042E600080000200000000000000000F40200208A
:1042F6005C030020C4030020000000000000000052
:1043060000000000000000000000000000000000A7
:104316000000000000000000000000000000000097
:104326000000000000000000000000000000000087
:104336000000000000000000000000000000000077
:104346000000000000000000000000000000000067
:104356000000000000000000000000000000000057
:104366000000000000000000000000000000000047
:104376000000000000000000000000000000000037
:104386000000000000000000000000000000000027
:1043960001000000000000000E33CDAB34126DE6C4
:1043A600ECDE05000B00000000000000000000002D
:1043B60000000000000000000000000000000000F7
:1043C60000000000000000000000000000000000E7
:1043D60000000000000000000000000000000000D7
:1043E60000000000000000000000000000000000C7
:10471600D408002000A24A040000000000000000A7
:104726000102030406070809000000000102030451
:104736000102030406070809020406080000000037
:10474600000000005C0400205C04002064040020DB
:10475600640400206C0400206C0400207404002013
:10476600740400207C0400207C04002084040020C3
:10477600840400208C0400208C0400209404002073
:10478600940400209C0400209C040020A404002023
:10479600A4040020AC040020AC040020B4040020D3
:1047A600B4040020BC040020BC040020C404002083
:1047B600C4040020CC040020CC040020D404002033
:1047C600D4040020DC040020DC040020E4040020E3
:1047D600E4040020EC040020EC040020F404002093
:1047E600F4040020FC040020FC0400200405002042
:1047F600040500200C0500200C05002014050020EF
:10480600140500201C0500201C050020240500209E
:10481600240500202C0500202C050020340500204E
:10482600340500203C0500203C05002044050020FE
:10483600440500204C0500204C05002054050020AE
:10484600540500205C0500205C050020640500205E
:10485600640500206C0500206C050020740500200E
:10486600740500207C0500207C05002084050020BE
:10487600840500208C0500208C050020940500206E
:10488600940500209C0500209C050020A40500201E
:10489600A4050020AC050020AC050020B4050020CE
:1048A600B4050020BC050020BC050020C40500207E
:1048B600C4050020CC050020CC050020D40500202E
:1048C600D4050020DC050020DC050020E4050020DE
:1048D600E4050020EC050020EC050020F40500208E
:1048E600F4050020FC050020FC050020040600203D
:1048F600040600200C0600200C06002014060020EA
:10490600140600201C0600201C0600202406002099
:10491600240600202C0600202C0600203406002049
:10492600340600203C0600203C06002044060020F9
:10493600440600204C0600204C06002054060020A9
:10494600540600205C0600205C0600206406002059
:10495600640600206C0600206C0600207406002009
:10496600740600207C0600207C06002084060020B9
:10497600840600208C0600208C0600209406002069
:10498600940600209C0600209C060020A406002019
:10499600A4060020AC060020AC060020B4060020C9
:1049A600B4060020BC060020BC060020C406002079
:1049B600C4060020CC060020CC060020D406002029
:1049C600D4060020DC060020DC060020E4060020D9
:1049D600E4060020EC060020EC060020F406002089
:1049E600F4060020FC060020FC0600200407002038
:1049F600040700200C0700200C07002014070020E5
:104A0600140700201C0700201C0700202407002094
:104A1600240700202C0700202C0700203407002044
:104A2600340700203C0700203C07002044070020F4
:104A3600440700204C0700204C07002054070020A4
:104A4600540700205C0700205C0700206407002054
:104A5600640700206C0700206C0700207407002004
:104A6600740700207C0700207C07002084070020B4
:104A7600840700208C0700208C0700209407002064
:104A8600940700209C0700209C070020A407002014
:104A9600A4070020AC070020AC070020B4070020C4
:104AA600B4070020BC070020BC070020C407002074
:104AB600C4070020CC070020CC070020D407002024
:104AC600D4070020DC070020DC070020E4070020D4
:104AD600E4070020EC070020EC070020F407002084
:104AE600F4070020FC070020FC0700200408002033
:104AF600040800200C0800200C08002014080020E0
:104B0600140800201C0800201C080020240800208F
:104B1600240800202C0800202C080020340800203F
:104B2600340800203C0800203C08002044080020EF
:104B3600440800204C0800204C080020540800209F
:104B460054080020FFFFFFFF00000200D902000802
:084B5600290200080502000815
:0400000508000204E9
:00000001FF
